:020000040800F2
:2000000000000120D5040008F9060008FB060008FD060008FF0600080107000800000000A6
:2000200000000000000000000000000003070008050700080000000007070008090700086C
:20004000250500082505000825050008250500082505000825050008250500082505000810
:200060002505000825050008250500082505000825050008250500082505000825050008F0
:200080002505000825050008250500082505000825050008250500082505000825050008D0
:2000A0002505000825050008250500082505000825050008250500082505000825050008B0
:2000C000250500082505000825050008250500082505000825050008250500082505000890
:2000E000250500082505000825050008250500082505000825050008250500082505000870
:2001000025050008250500082505000825050008250500082505000825050008250500084F
:20012000250500082505000825050008250500082505000800000000000000002505000893
:2001400025050008250500082505000815070008250500082505000825050008250500081D
:20016000250500082505000825050008250500082505000825050008000000000000000053
:200180002505000810B5054C237833B9044B13B10448AFF300800123237010BD3801002032
:2001A00000000000783D000808B5034B1BB103490348AFF3008008BD000000003C010020D0
:2001C000783D000853B94AB9002908BF00281CBF4FF0FF314FF0FF3000F07AB9ADF1080CAE
:2001E0006DE904CE00F006F8DDF804E0DDE9022304B070472DE9F0478C460E460446089D78
:20020000002B50D18A4217466CD9B2FA82FEBEF1000F0BD0CEF1200C01FA0EF620FA0CFC53
:2002200002FA0EF74CEA060C00FA0EF43A0CBCFBF2F9BBB202FB19CC09FB03FA4FEA1448AC
:2002400048EA0C46B2450AD9F61909F1FF3180F02581B24540F22281A9F102093E44A6EB6D
:200260000A06B6FBF2F002FB106600FB03F3A4B244EA0644A34209D9E41900F1FF3280F053
:200280000B81A34240F2088102383C440021E41A40EA0940002D62D0002324FA0EF42C60B8
:2002A0006B60BDE8F0878B4207D9002D55D0002185E841000846BDE8F087B3FA83F10029D5
:2002C00040F08F80B34202D3824200F2FC80841A66EB03060120B446002D40D085E8101006
:2002E000BDE8F08712B90127B7FBF2F7B7FA87FEBEF1000F35D10121F61B4FEA174C1FFA72
:2003000087F8B6FBFCF20CFB126608FB02F0230C43EA0646B04207D9F61902F1FF3302D2C9
:20032000B04200F2D2801A46361AB6FBFCF00CFB106608FB00F8A3B243EA0644A04507D931
:20034000E41900F1FF3302D2A04500F2B9801846A4EB080440EA02409CE729462846BDE82F
:20036000F08707FA0EF7CEF1200326FA03F24FEA174CB2FBFCF11FFA87F80CFB112206FA01
:200380000EF620FA03F301FB08F933431E0C46EA0246B14500FA0EF409D9F61901F1FF322E
:2003A00080F08C80B14540F2898002393E44A6EB0906B6FBFCF00CFB106200FB08F99EB2D1
:2003C00046EA0246B14507D9F61900F1FF3371D2B1456FD902383E44A6EB090640EA014154
:2003E0008FE7C1F1200722FA07F88B4048EA030326FA07F44FEA134EB4FBFEF91FFA83FC9D
:200400000EFB19448E4020FA07F809FB0CFA48EA06084FEA184646EA0444A24502FA01F260
:2004200000FA01F608D9E41809F1FF3044D2A24542D9A9F102091C44A4EB0A04B4FBFEF06E
:200440000EFB104400FB0CFC1FFA88F848EA0444A44507D9E41800F1FF3E29D2A44527D952
:2004600002381C4440EA0940A0FB0289A4EB0C0CCC45C246CE4615D312D055B1B6EB0A03F7
:200480006CEB0E0606FA07F7CB401F43CE402F606E600021BDE8F0871046F7E68946DEE618
:2004A0004645EAD2B8EB020A69EB030E0138E4E77046D7E718468FE78146BDE7114676E776
:2004C00002383C4444E7084606E7023A3E442BE7704700BFDFF834D0002103E00C4B5B58CD
:2004E000435004310B480C4B42189A42F6D30B4A02E0002342F8043B094B9A42F9D300F0CC
:2005000087FB03F041FB00F0CDF8704700000120603E000800000020380100203801002025
:20052000B8090020FEE7000008B503460B4A126842B10A4A106803446A46934206D8074A66
:20054000136008BD0649054A1160F2E703F016FB0C2303604FF0FF3008BD00BF540100207E
:20056000B8090020F0B58BB00024059406940794089409940194264B1A6B42F080021A63D3
:200580001A6B02F080020192019A02941A6B42F001021A631A6B02F001020292029A039426
:2005A0001A6B42F004021A631A6B02F004020392039A04941A6B42F002021A631B6B03F009
:2005C00002030493049B134F01224FF44061384600F0B8FE104D01224FF44071284600F081
:2005E000B1FE4FF440630593012606960794089405A9384600F0BAFD4FF4407305930696D7
:200600000794089405A9284600F0B0FD0BB0F0BD00380240000802400004024008B507486C
:20062000074B03600223436040F6FF73836000F08FFE00B908BD00F041F8FBE7700200201A
:200640000030004070B592B03022002106A803F0CFFA0024019402940394049405940923A3
:200660000693012507950B9502260C964FF480030D930C230E93F0230F9310960523119358
:2006800006A801F061FB0F2301930296802303934FF4805304930594294601A801F04AFD32
:2006A00012B070BD08B500F0E9FAFFF7CBFFFFF759FF00F037F803F013FAFCE770470000F4
:2006C00082B0002100910B4B5A6C42F480425A645A6C02F480420092009A01911A6C42F070
:2006E00080521A641B6C03F080530193019B02B0704700BF003802407047FEE7FEE7FEE725
:20070000FEE770477047704708B500F0D1FA03F025FA08BD08B5024800F0D8FE08BD00BF2F
:20072000A004002008B500220F49104802F050FA70B90F490D4802F062FA60B90D490B4844
:2007400003F006F950B9094802F060FA48B908BDFFF7B4FFEDE7FFF7B1FFEFE7FFF7AEFF9F
:20076000F1E7FFF7ABFFF2E7000000207C02002070000020500000200368B3F1A04F00D09C
:20078000704770B588B0002501951D4C236B43F001032363236B03F001030193019B4FF4DE
:2007A0000073039304950595164E03A9304600F0DDFC4FF4C0530393022304930595032346
:2007C00006930A23079303A9304600F0CFFC636B43F0800363630295636C43F4804363646B
:2007E000636C03F480430293029B2A462946432000F090FA432000F0BDFA08B070BD00BFD4
:20080000003802400000024008B500F56D71D0F8E40302F020FA08BD08B5C1EBC10300EBF4
:200820008303D3F8FC21D0F8E40302F041FA08BD08B5C1EBC10300EB8303DA6BD0F8E40317
:2008400002F06BFA08BD08B5D0F8E40302F0EFFA08BD10B50446C3682BB1022B0DD0FFF75A
:200860002DFF012100E00021D4F8E40302F0CDFAD4F8E40302F0AAFA10BD0121F4E70000AA
:2008800010B50446D0F8E40302F0C2FA2268D2F8003E43F00103C2F8003E236A23B1034A7D
:2008A000136943F00603136110BD00BF00ED00E008B5D0F8E40302F0B4FA08BD08B5D0F85D
:2008C000E40302F0C4FA08BD08B5D0F8E40302F0BCFA08BD08B5D0F8E40302F0BAFA08BD0C
:2008E00008B5D0F8E40302F0B6FA08BD03780BB10020704710B503461548C0F8E433C3F822
:2009000020024FF0A0430360042343600222C260002303618261C361036201224262836281
:2009200000F041FD80B90A4C8021204601F008FA40220021204601F0DEF980220121204625
:2009400001F0D9F9002010BDFFF7B8FEEBE700BFA0040020D0F8202211F0800F08D101F082
:200960007F01C1EBC10102EB810191F8F201704701F07F03C3EBC30302EB830393F83200D0
:20098000704720B102280CBF0120022070470020704708B5D0F8200200F06BFDFFF7F1FF24
:2009A00008BD08B5D0F8200200F078FDFFF7E9FF08BD10B51C4613462246D0F8200201F000
:2009C000A5F8FFF7DEFF10BD08B5D0F8200201F034F9FFF7D6FF08BD08B5D0F8200201F0ED
:2009E0005FF9FFF7CEFF08BD08B5D0F8200201F07BF8FFF7C6FF08BD08B5D0F8200201F0F4
:200A0000F3F8FFF7BEFF08BD08B5D0F8200201F0BEF8FFF7B6FF08BD12230B8000487047F6
:200A20001C00002004230B800048704730000020A2B110B44C1C531EDBB201EB4301033198
:200A40000022030F092B94BF3033373304F8013C000104F8022B8C42F3D110BC7047000096
:200A600038B51A230B800B4B186808331B68C01801D1094838BD094B1D68074C0822A11C2A
:200A8000FFF7D6FF042204F112012846FFF7D0FFEFE700BF107AFF1F34000020147AFF1FED
:200AA00008B50A460249034802F017FC004808BD88080020C03D000810B5044C0A46214600
:200AC000034802F00AFC204610BD00BF88080020AC3D000808B50A460249034802F0FDFBB3
:200AE000004808BD88080020903D000808B50A460249034802F0F1FB004808BD8808002026
:200B00009C3D00085AB130B44C1E821810F8015B04F8015F9042F9D1084630BC7047084666
:200B200070473223537000239370D37000207047DAB12DE9F84316460C46051F89464FF0EA
:200B4000000802276A6843462146384600F000FA68B954F8043B55F8041F99420AD1A4EBD9
:200B600009039E42EED8BDE8F883002070470120BDE8F8830220BDE8F88300B587B000233A
:200B8000059300F17843B3F5804F21D3A3F58043B3F5804F2FD300F17843A3F50043B3F5A3
:200BA000804F01D2022214E000F17843A3F54043B3F5804F01D203220BE000F1774000F5BD
:200BC0007F00B0F5803F28BF022011D2042200E0002200230093022304930292012303935E
:200BE00005A9684600F06EFA002814BF0220002007B05DF804FB0122EBE708B500F06CF9F2
:200C0000002008BD08B500F055F9002008BD00000C4B1A6842F001021A60002199601A68EB
:200C200022F0847222F480321A60074A5A601A6822F480221A60D9604FF00062034B9A6089
:200C4000704700BF003802401030002400ED00E010B50446074B1868074BA3FB00308009E9
:200C600000F094F8002221464FF0FF3000F052F8002010BD6C000020D34D621008B50B4BA9
:200C80001A6842F400721A601A6842F480621A601A6842F480721A60032000F029F8002024
:200CA000FFF7D6FFFFF70CFD002008BD003C0240024A136801331360704700BF8809002072
:200CC000014B1868704700BF8809002030B583B00190FFF7F5FF0546019CB4F1FF3F18BFEC
:200CE0000134FFF7EDFF401BA042FAD303B030BD074AD36823F4E0631B041B0C43F0BF63B2
:200D000043F40033000200F4E0600343D360704700ED00E030B4154BDC68C4F30224C4F11C
:200D20000703042B28BF0423251D062D8CBFE51E0025012404FA03F3013B1940A940AC4001
:200D4000013C22401143002809DB0901C9B200F1604000F5614080F8001330BC704700F0CA
:200D60000F000901C9B2024B1954F6E700ED00E014ED00E0420900F01F00012303FA00F02F
:200D8000014B43F82200704700E100E00138B0F1807F0AD2064B5860F021064A82F8231066
:200DA0000020986007221A6070470120704700BF10E000E000ED00E010B408490C6924F4EB
:200DC00040740C610C6944F440740C610C6944F001040C610260436010BC7047003C024003
:200DE000074B1A6922F440721A611A6942F400721A611A6942F001021A610160704700BF2B
:200E0000003C0240074B1A6922F440721A611A6942F480721A611A6942F001021A61018062
:200E2000704700BF003C0240204BDB6813F0100F07D01F4AD36943F00803D36110221B4B68
:200E4000DA601A4BDB6813F0200F07D0184AD36943F00403D3612022144BDA60134BDB681F
:200E600013F0400F07D0124AD36943F00203D36140220E4BDA600D4BDB6813F0800F07D04C
:200E80000B4AD36943F00103D3618022074BDA60064BDB6813F0020F07D0054AD36943F0EB
:200EA0001003D3610222014BDA607047003C02408C090020064B1B69002B01DB01207047A3
:200EC000034B044A5A6002F188325A6000207047003C024023016745034A136943F00043F1
:200EE00013610020704700BF003C024070B504460022154BDA61FFF7E3FE0646134DEB6868
:200F000013F4803F0AD0B4F1FF3FF8D0CCB1FFF7D7FE801B8442F2D2032070BD0B4BDB6830
:200F200013F0010F02D00122084BDA60074BDB6813F0F20F01D1002070BDFFF775FF0120D9
:200F400070BD032070BD00BF8C090020003C02402DE9F041224C247E012C03D1022420463E
:200F6000BDE8F081984617460E46054601221C4B1A764CF25030FFF7B9FF044698B9B5B1FA
:200F8000012D22D0022D25D03A4643463046FFF713FF4CF25030FFF7A9FF0446114A136909
:200FA00023F00103136100220D4B1A76D7E7FAB20C4B196921F4407119611969196119699B
:200FC00041F0010119613270E3E7B9B23046FFF719FFDEE739463046FFF702FFD9E700BFD9
:200FE0008C090020003C0240074B1A6922F440721A611A6942F004021A611A6942F4803205
:2010000042EA002018617047003C024019B3012923D002290CBF4FF400714FF44071104BF4
:201020001A6922F440721A611A690A431A611A6922F0F8021A61F82292FAA2F2B2FA82F23B
:201040001969904041F00202104318611A6942F480321A6170470021E1E74FF48071DEE7BE
:20106000003C0240164B1B6813F4007F10D0144B1A6822F400721A601A6842F400621A6031
:201080001A6822F400621A601A6842F400721A600B4B1B6813F4806F10D0094B1A6822F49D
:2010A00080621A601A6842F480521A601A6822F480521A601A6842F480621A60704700BF62
:2010C000003C02402DE9F843264B1B7E012B04D14FF002094846BDE8F8830F46044601227C
:2010E000204B1A764CF25030FFF700FF8146002833D14FF0FF333B602368012B1BD0A56894
:20110000E3682B449D4226D24CF25038164E217C2846FFF77BFF4046FFF7E8FE336923F088
:20112000FA0333618146A8B90135E368A2681344AB42ECD80FE06168207CFFF755FF4CF287
:201140005030FFF7D3FE8146074A136923F00403136100E03D60FFF785FF0022014B1A7631
:20116000B8E700BF8C090020003C02402DE9F04F83B000256D4FDFF8C0E16D4EDFF8BC911E
:20118000DFF8BCA157E0EC0800EB8404D4F820C005F007024FEA820B0F2202FA0BF22CEACD
:2011A000020C0A6902FA0BF242EA0C0222624EE0846802EA040BCC6804FA0CF444EA0B0473
:2011C0008460446824EA030B4C68C4F30013AB4043EA0B03436051E0002202FA0BF242EAA4
:2011E0000C029A6033686FEA08044A6812F4803F0CBF234048EA0303336073684A6812F4E4
:20120000003F0CBF234048EA03037360B2684B6813F4801F0CBF224048EA0202B260F36813
:201220004A6812F4001F0CBF234048EA0303F3600135102D76D00123AB400A6803EA0208ED
:201240004345F5D14A6822F01002022A9BD004684FEA450C032202FA0CF2D24304EA020BAE
:201260004C6804F0030404FA0CF444EA0B0404604C6824F01004013C012C99D9C3681A40E3
:201280008B6803FA0CF31343C3604B6813F0805FCED0002301937B6C43F480437B647B6C55
:2012A00003F480430193019B25F0030303F1804303F59C339C6805F003024FEA820B0F22B6
:2012C00002FA0BF224EA020C704585D048451BD050451BD0174A90421AD002F5806290422F
:2012E00018D002F58062904216D002F58062904214D002F58062904212D002F580629042AE
:201300000CBF0822092268E7012266E7022264E7032262E7042260E705225EE706225CE7CD
:2013200007225AE703B0BDE8F08F00BF00380240003C0140000C02400000024000040240E0
:201340000008024012B90904816170478161704708B338B5044603684CF6CC421A600368A7
:2013600045F255521A60036842685A60036882689A60FFF7A5FC05462368DA6832B1FFF76F
:201380009FFC401B3028F7D9032038BD4AF6AA221A60002038BD0120704703684AF6AA222D
:2013A0001A6000207047002861D0F0B589B00546032380F8B133FFF7DFF9286800F0BEFFCD
:2013C0002C4654F8107B6E460FCC0FC694E80F0086E80F002B1D0ECB384600F06BFF00213E
:2013E000286800F0B1FF2B462A46002101200C4682F8310082F83010D18682F833409463A8
:20140000D463546401311C320F29F1D100210A4683F8F12183F8F011D98683F8F321C3F840
:20142000F821C3F8FC21C3F804222C6801F1400004EB8004626001311C330F29E8D12C46FB
:2014400054F8107B6E460FCC0FC694E80F0086E80F002B1D0ECB384600F08CFF012385F88E
:20146000B133286801F01CFB002009B0F0BD0120704790F8B033012B01D10220704710B58B
:201480000446012380F8B033006801F0FDFA206800F04EFF002084F8B00310BD90F8B033E7
:2014A000012B01D10220704710B50446012380F8B033006800F042FF206801F0B4FA20687F
:2014C00001F0EEFA002084F8B00310BD2DE9F04F89B00446D0F80080404601F01CFB10B1A8
:2014E00009B0BDE8F08F8146206801F0E5FA0028F6D0206801F0E0FA10F0020F02D0236841
:2015000002225A61206801F0D7FA10F4002F75D1CA46206801F0D0FA10F4802F40F0C980AA
:20152000206801F0C9FA0028C0F28081206801F0C3FA10F4006F09D0D8F8083813F0010FEF
:2015400040F0828123684FF400625A61206801F0B3FA10F4805F40F07B81206801F0ACFA19
:2015600010F4005F40F0B981206801F0A5FA10F0100F15D02268936923F010039361D8F812
:20158000205005F00F06C5F34343022B00F03482062B00F051822268936943F0100393610C
:2015A000206801F089FA10F0080F40F05782206801F082FA10F4801F40F05782206801F0F5
:2015C0007BFA10F4001F40F05A82206801F074FA10F0804F40F05D82206801F06DFA10F0C2
:2015E000040F3FF47DAF23685D6815F0040F40F0588223685A6815435D6071E7206801F0D4
:201600005FFA0546002852D008F530662746CA46CDF808801BE0D7F8F8213369C3F3120335
:20162000D31AC7F80832D7F8FC311344C7F8FC311FE018F0080F31D118F0100F1CBF102330
:20164000B3600AF1010A20361C376D082CD015F0010FF6D05FFA8AFB5946206801F040FA4C
:20166000804610F0010FE4D00123B3602369012BD1D059462046FFF7CFF82369012BD8D12D
:20168000BAF1000FD5D1D4F80432002BD1D104F56D720121206801F05EFACAE72046FFF743
:2016A000B3F80823B360C7E7DDF8088031E782462FE7206801F00CFA8346002800F0B480AC
:2016C000CDF8148008F51067CA46CDF81880A046CDF81C9026E0D8F83C30D8F838201344B8
:2016E000C8F83C303CE015F0080F1CBF0823BB6015F0100F1CBF1023BB6015F0400F1CBFE9
:201700004023BB6015F0020F1CBF0223BB6015F0800F39D10AF1010A08F11C0820375FEAB9
:201720005B0B7CD01BF0010FF4D05FFA8AF302931946206801F0DEF9054610F0010FD2D001
:20174000059B03F50062D3F83438012101FA0AF123EA010353630123BB602369012BBAD0F8
:2017600002992046FFF764F82369012BBBD1BAF1000FB8D1636C002BB5D104F56D72012115
:20178000206801F0E8F9AEE72368184604934646D8F84450D8F84820AB1AD8F838108B4208
:2017A00028BF0B46039300F5106909EB4A19D9F81810033389B2B1EB930F22D9954220D923
:2017C000FDB1AD1AB36B9D4228BF1D460395237C0093ABB2029AF16B049801F0A5F8F36BA6
:2017E0002B44F363B26C2A44B264D9F8183003359BB2B3EB950F04D9756C954201D9002D06
:20180000DFD1039B002B85D1049BD3F83428012101FA0AF122EA0102C3F834287AE7DDF8BF
:201820001880DDF81C907BE6824679E6D8F8043823F00103C8F804382046FFF739F82368D0
:201840004FF000425A6171E62046FFF719F879E608F500656B6823F001036B601021206859
:2018600000F034FE63685BB108F51063FF229A60C3F8082209F10109203361684945F6D883
:201880004FF0FF33AB61EB6943F00113EB61A36AD3B1D5F8843043F00B03C5F884306B6C49
:2018A00043F00B036B64D8F8003823F4FE63C8F8003804F56D72217C206801F04CF92368E2
:2018C0004FF480525A6148E66B6943F00B036B612B6943F00B032B61E5E7206801F01FF96B
:2018E0002268D36823F47053D360206800F017FE88B90023E3604FF4007363612268D368A3
:2019000043F41053D3602046FEF7A3FF23684FF400525A6128E60323E3604023636100F094
:20192000C3FC624B0344624A934205D82268D36843F47053D360E6E75E4B03445E4A93426A
:2019400005D82268D36843F46053D360DBE7A0F57403A3F51053594A934205D82268D368E5
:2019600043F45053D360CEE7A0F18373A3F5E743534A934205D82268D36843F44053D3604B
:20198000C1E7504B0344504A934205D82268D36843F43053D360B6E74C4B03444C4A9342D9
:2019A00005D82268D36843F42053D360ABE7494B0344494A934205D82268D36843F4105397
:2019C000D360A0E7A0F1B773A3F55853434A934205D82268D36843F40053D36093E7404B89
:2019E0000344404A93422268D36894BF43F4E05343F4C053D36086E747F6F0731D423FF4A3
:201A0000CAAD2D094FEAC609A9EB060704EB8707C5F30A02D7F8FC11404600F09AFFC5F38C
:201A20000A05D7F8FC312B44C7F8FC31D7F808321D44C7F80852AEE5082204F56D714046A3
:201A400000F087FFF200911B04EB8101C5F30A13D1F808221344C1F808329CE52046FEF713
:201A6000F2FE236808225A61A1E55FFA8AF12046FEF72AFF23684FF480125A619EE55FFA31
:201A80008AF12046FEF71AFF23684FF400125A619BE52046FEF71EFF23684FF080425A617D
:201AA0009AE52046FEF71CFFA3E500BF405327FFFF340C00401E1BFF3F420F007F4F12000A
:201AC0001FD6130060B6E5FE5FE3160000D3CEFE3F771B00C05BB3FEBF9121001F75380034
:201AE000E05459FEDF9C410090F8B033012B01D10220704710B50446012380F8B033006867
:201B000000F0B2FF002084F8B00310BDF8B511F0800F1DD101F07F04E500291B00EB8101D3
:201B200001F5F8712E1B00EB860686F8F041002786F8F171C6F8F82186F8F331022B04BF67
:201B400000230B7190F8B033012B15D10220F8BD01F07F04E500291B00EB810130312E1BDE
:201B600000EB860686F83040012786F83170B26386F83330F486E1E70446012380F8B033B8
:201B8000006800F0EBFC002084F8B003F8BD38B501F07F05EC00611B00EB810101F5F8716C
:201BA000641B00EB8404C4F8FC21C4F804320023C4F8083284F8F13184F8F0510369012B5C
:201BC00006D065B1DAB2006800F00EFD002038BDC5EBC50400EB8404C4F80022F1E7DAB2E7
:201BE000006800F007FEF1E738B501F07F05EC00611B00EB81013031641B00EB8404E263E1
:201C000063640023A364012384F8313084F830500369012B06D05DB1DAB2006800F0E4FC96
:201C2000002038BDC5EBC50400EB84042264F2E7DAB2006800F0DEFDF2E738B54AB2002A99
:201C400012DBC1EBC10300EB830303F5F87301249C7001F07F041C70D20F5A7090F8B0231C
:201C6000012A09D1022038BD01F07F03C3EBC30300EB83033033EAE70546012280F8B02303
:201C80001946006800F07AFE1CB1002085F8B00338BD05F56D72297C286800F05CFFF4E7CF
:201CA00010B54AB2002A12DBC1EBC10300EB830303F5F87300249C7001F07F011970D20FFD
:201CC0005A7090F8B023012A09D1022010BD01F07F03C3EBC30300EB83033033EAE7044615
:201CE000012280F8B0231946006800F06FFE002084F8B00310BD30B405686C6AE1B10B462C
:201D0000A96A04EB1144591E00290CDD00231846403305EB83035B6804EB13440130C0B2CD
:201D200003468842F4DB44EA0244403105EB81056C60002030BC704744EA0244AC62F8E776
:201D40000368596200207047002800F09481F0B583B00446036813F0010F2ED0A24B9B68CB
:201D600003F00C03042B1FD09F4B9B6803F00C03082B14D022799D4B1A706368002B40D02A
:201D8000FEF79EFF0646984D2B6813F4003F14D1FEF796FF801B6428F6D9032070E1924BF1
:201DA0005B6813F4800FE5D08F4B1B6813F4003F03D06368002B00F06081236813F0020F39
:201DC0004AD0894B9B6813F00C0F2ED0864B9B6803F00C03082B23D0E368002B62D001222F
:201DE000834B1A60FEF76CFF06467F4D2B6813F0020F49D1FEF764FF801B0228F6D9032053
:201E00003EE1FEF75DFF0646774D2B6813F4003FD3D0FEF755FF801B6428F6D903202FE154
:201E2000714B5B6813F4800FD6D16F4B1B6813F0020F04D0E368012B01D0012020E16A48A5
:201E40000168F82393FAA3F3B3FA83F22369934021F0F80213430360236813F0080F45D0DC
:201E600063698BB30122634B1A60FEF729FF06465D4D6B6F13F0020F38D1FEF721FF801B53
:201E80000228F6D90320FBE057480168F82393FAA3F3B3FA83F22369934021F0F802134323
:201EA0000360D9E70022524B1A60FEF709FF06464D4D2B6813F0020FCED0FEF701FF801B0E
:201EC0000228F6D90320DBE000224A4B1A60FEF7F7FE0646444D6B6F13F0020F06D0FEF77A
:201EE000EFFE801B0228F6D90320C9E0236813F0040F1FD1A369002B00F0C1803A4A92681E
:201F000002F00C02082A00F0BD80022B59D00022394B1A60FEF7D4FE0546334C236813F0CD
:201F2000007F00F0A680FEF7CBFE401B6428F5D90320A5E0002301932B4B1A6C42F080523A
:201F40001A641B6C03F080530193019B2B4A136843F480731360FEF7B3FE0646274D2B6800
:201F600013F4807F06D1FEF7ABFE801B0228F6D9032085E0227A224B1A70A36883B1FEF703
:201F80009FFE0746184D41F288362B6F13F0020FB0D1FEF795FEC01BB042F6D903206FE03C
:201FA000FEF78EFE0746104D41F288362B6F13F0020F9FD0FEF784FEC01BB042F6D90320B2
:201FC0005EE000220C4B1A60FEF77AFE0646064D2B6813F0007F15D0FEF772FE801B64283E
:201FE000F6D903204CE000BF003802400238024000004742800E47426000474200700040D5
:020000040800F2
:202000007038024047F6C07595FAA5F5B5FA85F54FF4403292FAA2F2B2FA82F04FF070610F
:2020200091FAA1F1B1FA81F1E369226A1343626AAA401343A26A5208013A82401343E26A27
:2020400002FA01F10B43104A536001220F4B1A60FEF736FE05460C4C236813F0007F06D190
:20206000FEF72EFE401B6428F6D9032008E0002006E0002004E001207047012000E000207B
:2020800003B0F0BD0120FBE70038024060004742F8B5254B9B6803F00C03042B03D0082B23
:2020A00003D02248F8BD2248F8BD1F4B5A6802F03F025B6813F4800F12D01B4B5968C1F39A
:2020C000881100231A48A1FB0001FEF77BF8164B5B68C3F3014301335B00B0FBF3F0F8BDED
:2020E000114B5B68C3F388131E4600275C010025E41A65EB0705A90141EA9461A001001B83
:2021000061EB0501CB0043EA5073C400A01943EB07018B0243EA90538402204619460023F4
:20212000FEF750F8D3E700BF003802400024F400001BB700002800F0AA802DE9F0410446B2
:20214000554B1B6803F00F038B420AD2CBB2524A1370136803F00F03994202D00120BDE81F
:20216000F081236813F0020F17D013F0040F04D04A4A936843F4E0539360236813F0080FED
:2021800004D0464A936843F460439360434A936823F0F003A068034393600D46236813F063
:2021A000010F35D06268012A22D0022A28D03B4B1B6813F0020F6CD038498B6823F0030319
:2021C00013438B60FEF77CFD8046344E41F28837B36803F00C036268B3EB820F18D0FEF723
:2021E0006FFDA0EB0800B842F2D90320BDE8F0812A4B1B6813F4003FDED10120BDE8F081BE
:20220000264B1B6813F0007FD6D10120BDE8F081214B1B6803F00F039D420AD2EAB21E4BB6
:202220001A701B6803F00F039D4202D00120BDE8F081236813F0040F06D0184A936823F4B9
:20224000E053E1680B439360236813F0080F07D0124A9368216923F4604343EAC1039360C6
:20226000FFF716FF0D4B9B68F02292FAA2F2B2FA82F203F0F003D340094AD35CD840094BBF
:2022800018600020FEF7E4FC0020BDE8F081012070470120BDE8F081003C02400038024094
:2022A000403E00086C000020014B1868704700BF6C00002084B010B5044603A880E80E00DA
:2022C000089B012B11D0E36843F04003E360204600F064FC4FF48033A363069B012B1ED0DD
:2022E0000020BDE8104004B07047A36B23F48033A363E36823F4840323F04003E360E368B3
:2023000023F44013E3600D9B012B03D0204600F045FCE2E7E36843F48013E360F6E7A368C9
:2023200043F00603A360A36843F02003A360D7E7836843F00103836000207047836823F062
:20234000010383600020704708B5C36823F0C043C360012909D019B9C36843F08043C36085
:202360003220FEF7B3FC002008BDC36843F00053C360F5E784B02DE9F84F04460BA880E8DC
:202380000E008846DDF838A0DDF84CB0A36B43F40023A363BBF1000F03D1A36B43F400138E
:2023A000A3630023C4F8003E04F50065D4F80038C4F80038109B012B62D00321204600F021
:2023C000A7F81021204600F081F8204600F090F800232B616B614FF0FF32AA61EB61B8F195
:2023E000000F28D004F51063002216464FF09049FF2718680028B4BFC3F800901E601E614B
:202400009F60013220334245F3D1A2B104F5306300210F464FF090494FF0FF081E68002E85
:20242000B4BFC3F800901F601F61C3F80880013120338A42F2D12B6923F480732B61BAF1B3
:20244000010F29D00023A3616FF080436361BAF1000F03D1A36943F01003A361A269194B13
:202460001343A361119B1BB1A36943F00803A361BBF1010F1FD00020BDE8F84F04B070471A
:202480000D9B23B90021204600F042F899E70121204600F03DF894E70B4B2B632B6B43F4AE
:2024A000803343F003032B632B6B0023A3616FF080436361D2E7A36943F0804343F004030A
:2024C000A361D8E700383C8000018000890141F020010161054B026912F0200F03D0013B8B
:2024E000F9D1032070470020704700BF400D030010230361054B026912F0100F03D0013BD0
:20250000F9D1032070470020704700BF400D0300D0F800381943C0F8001800207047D0F866
:20252000083800F5006013F0060F11D0836803F00603022B0ED0836803F00603062B0BD028
:20254000836803F00603042B14BF00200220704700207047032070470320704730B44B7867
:20256000012B20D0D0F81C480D784FF48033AB402343C0F81C380A78520100F53060135876
:2025800013F4004F0CD114588B68C3F30A0343F0805343F40043C97843EA8143234313506B
:2025A000002030BC7047D0F81C480D78AB409BB22343C0F81C380C78620100F51060135846
:2025C00013F4004FECD115588B68C3F30A0343F0805343F40043C97843EA814343EA84530F
:2025E0002B431350DCE70000F0B583B04B78012B35D000F530630D7803EB45152C69E40CA1
:20260000E4042C610D7803EB45152C6924F0FF5424F4C0142C614C69002C40F0B8800D7835
:2026200003EB45152E698C68C4F3120434432C610C7803EB4414256945F400252561012A8F
:2026400000F0C080CA78012A00F0C2800A785201D15841F00441D150002003B0F0BD4B69E2
:202660004BBB00F510630D7803EB45152C6924F0FF5424F4C0142C610C7803EB4414256952
:2026800045F4002525610C7803EB44131C69E40CE4041C61012A3DD0CB78012B66D04B6922
:2026A000002B41D0D0F834580E780123B3402B43C0F8343835E000F510640D7804EB45150F
:2026C0002B69DB0CDB042B610D7804EB45152B6923F0FF5323F4C0132B610E7804EB461606
:2026E00037698D684B692B44013BB3FBF5F3404D05EAC3433B4333610D7804EB45152E6957
:202700004B69C3F3120333432B61CB78012B1ED0012AC4D10C7800F5106303EB44130C6975
:202720005C61CB78012B21D00B785B0100F510655C5944F004445C51CB78012B8CD114462F
:202740008B8A0A78C968009400F0EEF884E70B7804EB43131D6925F0C0451D610B7804EB84
:202760004314236943F00053236193E7D0F8083813F4807F0B784FEA431300F510655C59B3
:202780000CBF44F0005444F080545C51CCE78D682C44013CB4FBF5F40E7803EB46163769D4
:2027A000134D05EAC4453D4335610E7803EB46163769A4B28D6805FB04F4C4F312043C43AC
:2027C00034613CE70A7803EB4212CC68546139E7D0F8082812F4807F0A784FEA4212D05840
:2027E0000CBF40F0005040F08050D0502EE700BF0000F81F30B44B78012B30D000F530602B
:202800000C7800EB44142369DB0CDB0423610C7800EB4414236923F0FF5323F4C0132361F5
:202820004B690BB18B684B610B7800EB43131C6944F400241C610C7800EB441425698B681F
:20284000C3F312032B432361012A67D00B785B011A5842F004421A50002030BC70474B69AF
:2028600073BB00F510630D7803EB45152C6924F0FF5424F4C0142C610C7803EB4414256928
:2028800045F4002525610C7803EB44131C69E40CE4041C6100F510650B785B015C5944F07F
:2028A00004445C51012A33D04B69002BD4D0D0F83428097801238B401343C0F83438CBE7B2
:2028C00000F510630D7803EB45152C69E40CE4042C610D7803EB45152C6924F0FF5424F4E8
:2028E000C0142C618C684D69A54288BF4C610C7803EB4414256945F4002525610C7803EB44
:2029000044131D694C69C4F312042C431C61C1E70B7805EB43150B696B619DE70B7800EBC7
:202920004313CA685A6191E710B49DF804406CB9DC1CA4080AD000F5805000EB0232002395
:2029400051F8040B106001339C42F9D1002010BC7047033292080FD070B40C46002300F5F4
:202960008056356844F8045B01339A42F9D101EB8301084670BC7047084670474B78012BDA
:2029800012D000F530600B785B011A58002A03DB1A5822F080421A500B785B011A5842F440
:2029A00000121A500020704700F510600B785B011A58002A03DB1A5822F080421A500B78D3
:2029C0005B011A5842F400121A50EBE74B78012B0ED000F530600B785B011A5822F40012DA
:2029E0001A50CB78023BDBB2012B15D90020704700F510600B785B011A5822F400121A5027
:202A0000CB78023BDBB2012BF0D80B785B011A5842F080521A50E9E70B785B011A5842F0A3
:202A200080521A50E2E738B5044600F5106300F52E60FF229A60C3F8082220338342F9D18D
:202A40004FF0FF32C4F818280025C4F81058C4F81458C4F81C582046FFF74AFD102120462F
:202A6000FFF734FD284638BDD0F8003823F4FE63C0F80038D0F80038090101F4FE611943AA
:202A8000C0F800180020704708B5D0F8043823F00203C0F804380320FEF718F9002008BDB4
:202AA00008B5D0F8043843F00203C0F804380320FEF70CF9002008BD42698069104070478C
:202AC000D0F8183800F50060C0691840000C7047D0F8183800F50060C069184080B270476E
:202AE00000F5306303EB41118A6800F5006040691040704710B4D0F81048D0F8343800EB14
:202B0000411000F510608068CB40DB01DBB22343184010BC7047406900F001007047D0F849
:202B2000003923F4FF6323F00703C0F8003900F500639A6802F00602042A05D05A6842F486
:202B400080725A6000207047D0F8002942F00302C0F80029F2E710B40024C0F8104BD0F84D
:202B6000104B44F40024C0F8104BD0F8104B44F01804C0F8104BD0F8104B44F0C044C0F8F2
:202B8000104B012902D0002010BC7047C0F8142B4FF08023C0F8003BF5E700000B4B0269D2
:202BA000002A03DB013BFAD103207047036943F001030361054B026912F0010F03D0013B49
:202BC000F9D1032070470020704700BF400D030098B108B50346D0F8140210B10020C3F8A2
:202BE000140209B1C3F810121846012380F8FC310270FDF77BFE002008BD0220704719B19A
:202C0000C0F81412002070470220704708B5FDF7C0FE002008BD10B50446D0F814325B68F2
:202C2000017998472046FDF7BCFE002010BD08B5D0F8143233B11B689847002814BF02200C
:202C4000002008BD022008BD08B5D0F814325B689847002008BD38B5044600F50275284645
:202C600000F004F90123C4F8F431B4F80E32C4F8F83194F8081201F01F03012B0ED03BB1E2
:202C8000022B10D001F080012046FDF79DFE03E02946204600F008F9002038BD294620462D
:202CA00000F07CFAF8E72946204600F093FAF3E710B5044619BB1346D0F8F421032A27D165
:202CC000D0F80C11D0F8102191420BD8D0F814321B691BB190F8FC21032A0ED0204600F0FC
:202CE00068FE15E0891AC0F80C118A4228BF0A4692B2194600F055FE0AE09847EEE70A462A
:202D0000D0F814329B691BB190F8FC11032901D0002010BD11469847FAE710B50446002907
:202D200047D11346D0F8F421022A05D094F80032012B3AD0002010BDC169026A914217D80B
:202D40008169B1FBF2F302FB13132BB98A4203D8D0F8F831994218D3D4F81432DB681BB172
:202D600094F8FC21032A1DD0204600F02DFEDDE78A1AC26192B2194600F0FCFD00231A4675
:202D800019462046FDF740FED0E70022114600F0F1FD0021C4F8F8110B460A462046FDF74D
:202DA00033FEC3E720469847DEE7002384F80032C0E70A46D0F814325B69002BBAD090F857
:202DC000FC110329B6D111469847B3E738B50446402300221146FDF7ECFD4025C4F81051F1
:202DE0002B46002280212046FDF7E3FD2562012384F8FC31D4F818322BB1D4F814325B684A
:202E0000217920469847002038BD01740020704790F8FC3180F8FD31042380F8FC3100202B
:202E2000704790F8FD3180F8FC310020704708B590F8FC31032B01D0002008BDD0F8143245
:202E4000DB69002BF8D09847F6E700207047002070470020704708B5012280F8FC21D0F8BD
:202E60001422526801799047002008BD0B7803704B784370CA788B7803EB022343804A79E2
:202E80000B7903EB02238380CA798B7903EB0223C380704710B504468021FDF795FD0021ED
:202EA0002046FDF791FD10BD70B582B005460C464B78092B00F26B81DFE813F03001530145
:202EC000690146016901A3000A0069011401C70049880B0A013B062B00F28F80DFE803F0D6
:202EE000041E328D8D717E00D0F810321B680DF10601007C9847BDF80620002A00F04981C9
:202F0000E388002B00F045819A4228BF1A46ADF806200146284600F020FD3AE1037C43B91F
:202F2000D0F814329B6A0DF10600984702234370E1E7D0F81432DB6A0DF1060098470223A0
:202F40004370D8E7C9B2052934D8DFE801F0030B131B232BD0F810325B680DF10601007CBA
:202F60009847C8E7D0F810329B680DF10601007C9847C0E7D0F81032DB680DF10601007CE1
:202F80009847B8E7D0F810321B690DF10601007C9847B0E7D0F810325B690DF10601007CDF
:202FA0009847A8E7D0F810329B690DF10601007C9847A0E7D0F814329B6B0DF106029847B5
:202FC00099E7037C33B9D0F814325B6B0DF10600984790E72146FFF75DFFDAE0037C43B9EA
:202FE000D0F814321B6B0DF1060098470723437081E72146FFF74EFFCBE02146FFF74AFF1A
:20300000C7E08B88E3B9CB88D3B98E7806F07F0690F8FC31032B0CD080F8FE613146FDF7F9
:20302000E3FC284600F0C5FC36B1022385F8FC31AFE0FFF72FFFACE0012385F8FC31A8E047
:2030400021462846FFF726FFA3E08978524B1970012909D890F8FC31022B09D0032B1CD0F6
:203060002146FFF717FF94E02146FFF713FF90E081B14160032380F8FC31FFF7D8FD0228F7
:2030800003D0284600F095FC83E021462846FFF701FF7EE000F08DFC7BE089B1436899424E
:2030A0001DD0D9B2FFF7D0FD3B4B197869602846FFF7BDFD02280DD0284600F07AFC68E0B4
:2030C000022380F8FC314160FFF7BEFD284600F070FC5EE021462846FFF7DCFE59E000F0FE
:2030E00068FC56E0CB88012B08D190F8FC31022B07D0032B0DD0FFF7CDFE4AE0FFF7CAFE71
:2031000047E00146002341F8083F012200F025FC3FE00122011D00F020FC3AE090F8FC312F
:20312000023B012B0DD80123C360D0F804320BB10323C360022205F10C01284600F00DFC69
:2031400027E0FFF7A7FE24E04B88012B21D1C0F80432D0F814329B689847284600F029FC77
:2031600017E090F8FC31023B012B0DD84B88012B0FD10023C0F80432D0F814329B68984775
:20318000284600F016FC04E0FFF784FE01E0FFF781FE002002B070BD5801002038B504465E
:2031A0000D4690F8FC31032B11D10B79012B03D9FFF770FE002038BDD0F814329B68984702
:2031C000EB88002BF6D1204600F0F3FBF2E7FFF761FEEFE738B505460C468A880B7803F030
:2031E0006003202B11D0D1B26378012B2AD0002B4BD0032B0DD190F8FC31022B0BD0032B7F
:203200000FD02146FFF746FE03E0D0F814329B689847002038BD11F07F0FFAD0FDF7D4FB2A
:20322000F7E7638823B911F07F0F01D0FDF7CCFBD5F814329B68214628469847284600F0A6
:20324000B8FBE6E790F8FC31022B05D0032B09D02146FFF71FFEDCE711F07F0FD9D0FDF7C7
:20326000B3FBD6E76388002BD3D111F07F0F03D1284600F09EFBCCE7FDF7AEFBD5F814326C
:203280009B68214628469847F2E790F8FC31022B05D0032B09D02146FFF7FCFDB9E711F0E9
:2032A0007F0FB6D0FDF790FBB3E712F0800F01F07F0400EB041414BF143404F58274FDF7DB
:2032C00049FB38B10123236002222146284600F044FB9EE700232360F6E7F8B130B4044613
:2032E000037833B100230133DBB210F8015F002DF9D15B00023313800B7003234B70207815
:2033000058B1022300255A1CD2B2C8540233DBB28D5414F8010F0028F5D130BC70470000F4
:203320001B23038000487047AC0000200020704700207047002070470020704700207047CE
:20334000002070470A23038000487047C8000020062909D810B5054CD0F81C3221461868DC
:20336000FFF7BBFF204610BD002070475C01002030B583B00546D0F8184294F80034042BA2
:2033800004D0072B6BD0002003B030BDD4F80834002B51D1237813BBD4F80C34012B0DD059
:2033A0000023C4F80C34C4F808348DF800300123ADF8063069462846FFF76CFD0020C4F8EA
:2033C0000C04C4F80804032384F8003484F8020484F8030484F8040484F80534D4E7212BFA
:2033E00010D1D4F80C34052BDAD1A278E3781B0403EB022362781344227903EB0263C4F883
:203400001034DBE7412BCBD1D4F80C34052BC7D1A378E078000400EB032063781844237972
:2034200000EB0360C4F81004D5F81C32DB6898470028C3D00220A7E7012BBFD9224919443A
:20344000D4F81004D5F81C321B69D4F80C2400EB8121204698470028B0D0022094E70023B7
:2034600084F80734194B1B7D13F0040F0CD0062384F80034002084F8020484F8030484F82D
:20348000040484F805347FE7082284F80024002384F8023484F8033484F8043484F805245E
:2034A000FFF7B9FBD5F81C329B689847BFF34F8F0749CA6802F4E062064B1343CB60BFF397
:2034C0004F8F00BFFDE700BFFEFF3F00AC00002000ED00E00400FA05F8B50646D0F81842B9
:2034E0000B7813F0600300F0A581202B40F0CF814B78062B00F29A81DFE813F068010700C7
:203500003E00B1001B0142014901CB88D3B194F80034022B05D0052B03D0FFF7BBFC0020AA
:20352000F8BD4B88C4F80834CA88C4F80C24032384F8003484F805342146304600F022FA59
:203540000020F8BD94F80034052B05D0022B03D0FFF7A0FC0020F8BD012384F80734062366
:2035600084F80034002084F8020484F8030484F8040484F80534F8BDCB88002B62D094F84C
:203580000034022B01D0092B53D14B88C4F80834CA88C4F80C24D3B9032A8CBF0223092343
:2035A00084F80034002584F8025484F8035484F8045484F805342570212363704123A370E5
:2035C00003222146304600F0C8F92846F8BD012B1ED9092184F80014002584F8025484F8C5
:2035E000035484F8045484F80514AC481844D4F81034D6F81C124F69214603EB8020B84703
:20360000B4F80C240146304600F0A7F92846F8BD0F2384F80034002584F8025484F80354B2
:2036200084F8045484F805343046FFF733FC2846F8BD0025C4F80C54C4F80854FFF72AFCCE
:203640002846F8BD022384F80034002084F8020484F8030484F8040484F80534F8BD94F8D3
:203660000034032B09D0062B3DD0062204F20141304600F072F90020F8BDD4F80C342BB3E1
:20368000042284F80024002384F8023484F8033484F8043484F80524D4F8083413B9237814
:2036A000412B09D0D6F81C329B6904F201420121D4F810049847D8E7D0F81C329B6904F2BC
:2036C00001420021D4F810049847CEE7052284F80024002384F8023484F8033484F804340F
:2036E00084F80524C1E794F80734012B13D0002BBBD16B4B1B7D13F0040FB6D0022284F866
:203700000024002384F8023484F8033484F8043484F80524A9E7072384F80034012284F89B
:203720000224002284F8032484F8042484F805349BE794F800340A2B11D00A2384F8003410
:203740000E2284F80124002084F8020484F8030484F8040484F8053484F80604F8BD0223DA
:2037600084F80034002084F8010484F8020484F8030484F8040484F8053484F80604F8BD7F
:20378000012204F5806100F0E8F80020F8BD94F80024092A7DD84FF41B73D34013F0010F58
:2037A00079D0022384F80034002084F8010484F8020484F8030484F8040484F8053484F890
:2037C0000604C4F80804C4F80C04F8BD94F80024092A19D84FF41B73D34013F0010F13D0E8
:2037E000022284F80024002384F8013484F8023484F8033484F8043484F8052484F80634BD
:20380000C4F80834C4F80C34254B5B7D13F0100F04D14888FDF75AFA0020F8BD3046FFF71C
:20382000FAF93046FFF7F2F90020F8BDFFF732FB0220F8BD4B780A2B18D00B2B1DD0062B3B
:2038400003D0FFF727FB0220F8BD4B881B0A212B06D000221146304600F07FF80020F8BD61
:20386000CA88092A28BF09220E49F4E7012204F2144100F072F80020F8BD8B781BB90020EB
:20388000C4F81404F8BDFFF705FB0220F8BD0020F8BD0020F8BD0020F8BD00BFFEFF3F0058
:2038A000AC000020BE000020D0F818320022C3F80824C3F80C24022183F8001483F8012406
:2038C00083F80514D0F8183273B110B50446D0F81C329B689847D4F8180200F081F90023A4
:2038E000C4F81832002010BD0020704710B504464FF4836000F06CF9C4F8180218B30023B0
:20390000C0F81434114AC0F81024C0F80834C0F80C3480F80734022280F8002480F8013454
:2039200080F8023480F8033480F8043480F8052480F80634D4F81C325B689847002814BF70
:203940000220002010BD022010BD00BF0000010809B1C0F81C120020704710B513460222E8
:20396000C0F8F4218361C3610A460021FDF744F8002010BD08B513460A460021FDF73CF835
:20398000002008BD10B513460322C0F8F421C0F80831C0F80C310A460021FDF735F800209A
:2039A00010BD08B513460A460021FDF72DF8002008BD08B50423C0F8F43100231A46194612
:2039C000FDF71AF8002008BD08B50523C0F8F43100231A461946FDF717F8002008BD000070
:2039E0001F4A138801339BB2138041F2883293420DD94FF47A721A4B1A804FF08062194B54
:203A00009A614FF40072A3F580639A617047B3F57A6F0DD240F6B732934211D94FF40062D6
:203A2000104B9A614FF08072A3F580639A6170470D4B4FF480729A614FF000729A617047E7
:203A4000B3F5FA6F07D3074B4FF480629A614FF000629A617047B3F57A7FD7D3CDE700BFF8
:203A60005C020020000802400004024098B500AF124B1B7873B9124B1A68124B9A4206D032
:203A8000114B1A68114B1340B3F1005F03D000220B4B1A6098BD0E4B1B680E4A13600E4C7B
:203AA0002360FCF7BBFD0D48FDF777FC064B1B6883F3088823689847E9E700BF62020020C5
:203AC000F0FF0120EF5CADA8008000080000FE2F04800008AC090020B009002070020020B5
:203AE00008B51A4B5B6F13F0005F07D0174A536F43F0807353670122154B1A7000F038F871
:203B0000144B18801C4600F033F82388C31A632BF9D9FFF7ABFF0F4C0F4D0D4E05E000F0C2
:203B200027F82388C01A0928F9D900F021F820802B8801339BB22B8041F270729342EED9A5
:203B400000233370FFF792FFE9E700BF0038024062020020600200205E02002008B5034A7F
:203B6000136801331360FFF73BFF08BD64020020014B1868704700BF64020020014B186814
:203B8000704700BFD400002070B500250C4E0D4CA41BA410A54209D100F0EEF800250A4E37
:203BA0000A4CA41BA410A54205D170BD56F8253098470135EEE756F8253098470135F2E734
:203BC000583E0008583E0008583E00085C3E0008024B0146186800F05FB800BFD40000209B
:203BE000024B0146186800F00BB800BFD400002003460244934200D1704703F8011BF9E768
:203C000038B50546002943D051F8043C0C1F002BB8BFE41800F0AEF81E4A1368104633B923
:203C2000636014602846BDE8384000F0A4B8A3420BD921686218934201BF1A685B68521866
:203C4000226063600460EDE713465A680AB1A242FAD919685818A0420BD12068014458186E
:203C600082421960DED110685268014419605A60D8E702D90C232B60D4E7206821188A4212
:203C800001BF116852680918216062605C60C9E738BD00BF6802002070B5CD1C25F00305F8
:203CA00008350C2D38BF0C25002D064601DBA94203D90C233360002070BD00F05BF8234A8B
:203CC0001468214691B9224C23681BB9304600F041F820602946304600F03CF8431C26D16C
:203CE0000C233046336000F046F8E4E70B685B1B1AD40B2B0FD90B60CC18CD50304600F0CC
:203D00003AF804F10B00231D20F00700C31A1BD05A42E25070BD8C420BBF63684B681360CE
:203D2000636018BF0C46E9E70C464968CAE7C41C24F00304A04205D0211A304600F00AF8BE
:203D40000130CDD02560D9E770BD00BF680200206C02002038B50023054C054608462360CF
:203D6000FCF7E2FB431C02D1236803B12B6038BDB409002070477047F8B500BFF8BC08BC53
:203D80009E467047F8B500BFF8BC08BC9E46704744465520436F6E666967000044465520B5
:203DA000496E7465726661636500000053544D6963726F656C656374726F6E696373000036
:203DC00053544D333220446F776E4C6F6164204669726D7761726520557064617465000072
:203DE00040496E7465726E616C20466C6173682020202F307830383030303030302F3032E8
:203E00002A3031364B612C30322A3031364B672C30312A3036344B672C30372A3132384B8E
:203E2000672C30342A3031364B672C30312A3036344B672C30372A3132384B67000000000B
:203E400000000000000000000102030406070809A4C3FF7F01000000A90100088501000814
:203E6000190A0008250A0008B90A0008A10A0008610A0008D50A0008ED0A000812010002F4
:203E800000000040830411DF0002010203010000040309041A030000000000000000000031
:203EA00000000000000000000000000000000000E03D0008050C0008FB0B00087B0B000828
:203EC000310B0008050B0008230B00080024F400ED380008A9380008D93400087133000861
:203EE000313300082D3300084133000835330008393300083D33000821330008213300085E
:203F000021330008453300085133000809021B00010102C0320904000000FE0102060921DF
:203F20000BFF0000041A01000A0600020000004001000000D800002000000000000000000D
:203F4000000000000000000000000000000000000000000000000000000000000000000061
:203F6000000000000000000000000000000000000000000000000000000000000000000041
:183F800000000000000000000000000000000000000000000000000029
:00000001FF
