:020000040800F2
:108000000080012085930008459D0008519D0008CF
:10801000579D00085D9D0008639D0008000000005A
:10802000000000000000000000000000699D000842
:10803000759D000800000000819D00088D9D0008CE
:10804000D5930008D5930008D5930008D593000870
:10805000D5930008D59300089D9D0008B19D0008A8
:10806000D5930008D5930008D5930008D593000850
:10807000D5930008D5930008D5930008D593000840
:10808000D5930008D5930008D5930008D593000830
:10809000D5930008D5930008D5930008D593000820
:1080A000D5930008D5930008D5930008D593000810
:1080B000D5930008D5930008D5930008D593000800
:1080C000D5930008D5930008D5930008D5930008F0
:1080D000D5930008C59D0008D5930008D5930008E6
:1080E000D5930008D5930008D5930008D5930008D0
:1080F000D5930008D5930008D5930008D5930008C0
:10810000D5930008D5930008D5930008D5930008AF
:10811000D5930008D5930008D5930008D59300089F
:10812000D19D0008D5930008D5930008D593000889
:10813000D59300080000000000000000D59300085F
:10814000D5930008D5930008D5930008E59D000855
:10815000D5930008D5930008D5930008D59300085F
:10816000D5930008D5930008D5930008D59300084F
:10817000D5930008D593000800000000000000001F
:04818000D59300088B
:1081880010B5054C237833B9044B13B10448AFF349
:1081980000800123237010BD50050020000000005E
:1081A800AC5D010808B5034B1BB103490348AFF3A5
:1081B800008008BD0000000054050020AC5D0108E7
:1081C80081F0004102E000BF83F0004330B54FEA80
:1081D80041044FEA430594EA050F08BF90EA020FED
:1081E8001FBF54EA000C55EA020C7FEA645C7FEA80
:1081F800655C00F0E2804FEA5454D4EB5555B8BFA3
:108208006D420CDD2C4480EA020281EA030382EA13
:10821800000083EA010180EA020281EA0303362DA5
:1082280088BF30BD11F0004F4FEA01314FF4801C78
:108238004CEA113102D0404261EB410113F0004F8A
:108248004FEA03334CEA133302D0524263EB430341
:1082580094EA050F00F0A780A4F10104D5F1200EDF
:108268000DDB02FA0EFC22FA05F2801841F100013A
:1082780003FA0EF2801843FA05F359410EE0A5F10E
:1082880020050EF1200E012A03FA0EFC28BF4CF03F
:10829800020C43FA05F3C01851EBE37101F00045F5
:1082A80007D54FF0000EDCF1000C7EEB00006EEB02
:1082B8000101B1F5801F1BD3B1F5001F0CD349088C
:1082C8005FEA30004FEA3C0C04F101044FEA4452E3
:1082D80012F5800F80F09A80BCF1004F08BF5FEA6A
:1082E800500C50F1000041EB045141EA050130BD4A
:1082F8005FEA4C0C404141EB010111F4801FA4F1ED
:108308000104E9D191F0000F04BF01460020B1FA41
:1083180081F308BF2033A3F10B03B3F120020CDA79
:108328000C3208DD02F1140CC2F10C0201FA0CF057
:1083380021FA02F10CE002F11402D8BFC2F1200CBC
:1083480001FA02F120FA0CFCDCBF41EA0C01904072
:10835800E41AA2BF01EB0451294330BD6FEA0404BB
:108368001F3C1CDA0C340EDC04F11404C4F12002A6
:1083780020FA04F001FA02F340EA030021FA04F3B8
:1083880045EA030130BDC4F10C04C4F1200220FA0F
:1083980002F001FA04F340EA0300294630BD21FA4D
:1083A80004F0294630BD94F0000F83F4801306BF13
:1083B80081F480110134013D4EE77FEA645C18BF07
:1083C8007FEA655C29D094EA050F08BF90EA020F9E
:1083D80005D054EA000C04BF1946104630BD91EA96
:1083E800030F1EBF0021002030BD5FEA545C05D199
:1083F8004000494128BF41F0004130BD14F58004D8
:108408003CBF01F5801130BD01F0004545F0FE414B
:1084180041F470014FF0000030BD7FEA645C1ABF80
:10842800194610467FEA655C1CBF0B46024650EAB7
:10843800013406BF52EA033591EA030F41F40021E3
:1084480030BD00BF90F0000F04BF0021704730B569
:108458004FF4806404F132044FF000054FF000013E
:1084680050E700BF90F0000F04BF0021704730B5FF
:108478004FF4806404F1320410F0004548BF4042D4
:108488004FF000013EE700BF42004FEAE2014FEA29
:1084980031014FEA02701FBF12F07F4393F07F4F04
:1084A80081F06051704792F0000F14BF93F07F4F36
:1084B800704730B54FF4607401F0004521F0004179
:1084C80020E700BF50EA010208BF704730B54FF0FF
:1084D80000050AE050EA010208BF704730B511F004
:1084E800004502D5404261EB41014FF4806404F13C
:1084F80032045FEA915C3FF4DCAE4FF003025FEABE
:10850800DC0C18BF03325FEADC0C18BF033202EB45
:10851800DC02C2F1200300FA03FC20FA02F001FA9F
:1085280003FE40EA0E0021FA02F11444C1E600BF3E
:1085380070B54FF0FF0C4CF4E06C1CEA11541DBFF1
:108548001CEA135594EA0C0F95EA0C0F00F0DEF8BC
:108558002C4481EA030621EA4C5123EA4C5350EAA1
:10856800013518BF52EA033541F4801143F48013F2
:1085780038D0A0FB02CE4FF00005E1FB02E506F083
:108588000042E0FB03E54FF00006E1FB03569CF0D8
:10859800000F18BF4EF0010EA4F1FF04B6F5007FDE
:1085A80064F5407404D25FEA4E0E6D4146EB060650
:1085B80042EAC62141EA55514FEAC52040EA5E50D9
:1085C8004FEACE2EB4F1FD0C88BFBCF5E06F1ED883
:1085D800BEF1004F08BF5FEA500E50F1000041EBBA
:1085E800045170BD06F0004646EA010140EA020067
:1085F80081EA0301B4EB5C04C2BFD4EB0C0541EA89
:10860800045170BD41F480114FF0000E013C00F39D
:10861800AB8014F1360FDEBF002001F0004170BDC1
:10862800C4F10004203C35DA0C341BDC04F11404DA
:10863800C4F1200500FA05F320FA04F001FA05F266
:1086480040EA020001F0004221F0004110EBD37033
:1086580021FA04F642EB06015EEA430E08BF20EA5F
:10866800D37070BDC4F10C04C4F1200500FA04F302
:1086780020FA05F001FA04F240EA020001F0004194
:1086880010EBD37041F100015EEA430E08BF20EA07
:10869800D37070BDC4F1200500FA05F24EEA020E4F
:1086A80020FA04F301FA05F243EA020321FA04F07E
:1086B80001F0004121FA04F220EA020000EBD37035
:1086C8005EEA430E08BF20EAD37070BD94F0000F35
:1086D8000FD101F00046400041EB010111F4801F69
:1086E80008BF013CF7D041EA060195F0000F18BF1A
:1086F800704703F00046520043EB030313F4801F56
:1087080008BF013DF7D043EA0603704794EA0C0F0F
:108718000CEA135518BF95EA0C0F0CD050EA410625
:1087280018BF52EA4306D1D181EA030101F00041A2
:108738004FF0000070BD50EA410606BF10461946CA
:1087480052EA430619D094EA0C0F02D150EA0136D6
:1087580013D195EA0C0F05D152EA03361CBF104617
:1087680019460AD181EA030101F0004141F0FE41B6
:1087780041F470014FF0000070BD41F0FE4141F43A
:10878800780170BD70B54FF0FF0C4CF4E06C1CEA3A
:1087980011541DBF1CEA135594EA0C0F95EA0C0FEF
:1087A80000F0A7F8A4EB050481EA030E52EA0335AA
:1087B8004FEA013100F088804FEA03334FF08055CB
:1087C80045EA131343EA12634FEA022245EA1115F8
:1087D80045EA10654FEA00260EF000419D4208BFA9
:1087E800964244F1FD0404F5407402D25B084FEA56
:1087F8003202B61A65EB03055B084FEA32024FF402
:1088080080104FF4002CB6EB020E75EB030E22BF5E
:10881800B61A754640EA0C005B084FEA3202B6EB1E
:10882800020E75EB030E22BFB61A754640EA5C00CD
:108838005B084FEA3202B6EB020E75EB030E22BF5D
:10884800B61A754640EA9C005B084FEA3202B6EB5E
:10885800020E75EB030E22BFB61A754640EADC001D
:1088680055EA060E18D04FEA051545EA16754FEA7F
:1088780006164FEAC30343EA52734FEAC2025FEA9D
:108888001C1CC0D111F4801F0BD141EA00014FF02C
:1088980000004FF0004CB6E711F4801F04BF0143FD
:1088A8000020B4F1FD0C88BFBCF5E06F3FF6AFAE19
:1088B800B5EB030C04BFB6EB020C5FEA500C50F1A9
:1088C800000041EB045170BD0EF0004E4EEA11312C
:1088D80014EB5C04C2BFD4EB0C0541EA045170BD33
:1088E80041F480114FF0000E013C90E645EA060E77
:1088F8008DE60CEA135594EA0C0F08BF95EA0C0FA5
:108908003FF43BAF94EA0C0F0AD150EA01347FF4EC
:1089180034AF95EA0C0F7FF425AF104619462CE7C3
:1089280095EA0C0F06D152EA03353FF4FDAE104626
:10893800194622E750EA410618BF52EA43067FF477
:10894800C5AE50EA41047FF40DAF52EA43057FF407
:10895800EBAE12E74FEA410212F5001215D211D51B
:108968006FF47873B3EB625212D94FEAC12343F024
:10897800004343EA505311F0004F23FA02F018BFA6
:10898800404270474FF00000704750EA013005D16F
:1089980011F0004008BF6FF0004070474FF0000032
:1089A800704700BF4A0011D212F5001211D20DD53E
:1089B8006FF47873B3EB62520ED44FEAC12343F0DD
:1089C800004343EA505323FA02F070474FF0000087
:1089D800704750EA013002D14FF0FF3070474FF036
:1089E800000070474FEA4102B2F1E04324BFB3F5FB
:1089F800001CDCF1FE5C0DD901F0004C4FEAC0020E
:108A08004CEA5070B2F1004F40EB830008BF20F0F1
:108A18000100704711F0804F21D113F13872BCBFAB
:108A280001F00040704741F480114FEA5252C2F100
:108A38001802C2F1200C10FA0CF320FA02F018BF49
:108A480040F001004FEAC1234FEAD32303FA0CFC9C
:108A580040EA0C0023FA02F34FEA4303CCE77FEA2B
:108A6800625307D150EA01331EBF4FF0FE4040F475
:108A78004000704701F0004040F0FE4040F4000024
:108A8800704700BF80F0004002E000BF81F0004165
:108A980042001FBF5FEA410392EA030F7FEA226C9C
:108AA8007FEA236C6AD04FEA1262D2EB1363C1BF2C
:108AB800D218414048404140B8BF5B42192B88BF9B
:108AC800704710F0004F40F4000020F07F4018BFBE
:108AD800404211F0004F41F4000121F07F4118BFDE
:108AE800494292EA030F3FD0A2F1010241FA03FC86
:108AF80010EB0C00C3F1200301FA03F100F000436E
:108B080002D5494260EB4000B0F5000F13D3B0F135
:108B1800807F06D340084FEA310102F10102FE2AA4
:108B280051D2B1F1004F40EBC25008BF20F0010014
:108B380040EA03007047490040EB000010F4000FC2
:108B4800A2F10102EDD1B0FA80FCACF1080CB2EB55
:108B58000C0200FA0CF0AABF00EBC25052421843B4
:108B6800BCBFD0401843704792F0000F81F4000159
:108B780006BF80F400000132013BB5E74FEA41032C
:108B88007FEA226C18BF7FEA236C21D092EA030F98
:108B980004D092F0000F08BF0846704790EA010F12
:108BA8001CBF0020704712F07F4F04D1400028BF3F
:108BB80040F00040704712F100723CBF00F5000021
:108BC800704700F0004343F0FE4040F40000704757
:108BD8007FEA226216BF08467FEA23630146420203
:108BE80006BF5FEA412390EA010F40F48000704716
:108BF8004FF0000304E000BF10F0004348BF4042BC
:108C08005FEA000C08BF704743F0964301464FF0F7
:108C180000001CE050EA010208BF70474FF0000353
:108C28000AE000BF50EA010208BF704711F0004394
:108C380002D5404261EB41015FEA010C02BF844664
:108C48000146002043F0B64308BFA3F18053A3F5C3
:108C58000003BCFA8CF2083AA3EBC25310DB01FA0A
:108C680002FC634400FA02FCC2F12002BCF1004F8E
:108C780020FA02F243EB020008BF20F0010070471F
:108C880002F1200201FA02FCC2F1200250EA4C0073
:108C980021FA02F243EB020008BF20EADC707047B9
:108CA8004FF0FF0C1CEAD0521EBF1CEAD15392EAC7
:108CB8000C0F93EA0C0F6FD01A4480EA010C4002A3
:108CC80018BF5FEA41211ED04FF0006343EA5010FD
:108CD80043EA5111A0FB01310CF00040B1F5000F3F
:108CE8003EBF490041EAD3715B0040EA010062F1EE
:108CF8007F02FD2A1DD8B3F1004F40EBC25008BFD8
:108D080020F00100704790F0000F0CF0004C08BFF5
:108D180049024CEA502040EA51207F3AC2BFD2F1C2
:108D2800FF0340EAC250704740F400004FF00003D0
:108D3800013A5DDC12F1190FDCBF00F0004070470A
:108D4800C2F10002410021FA02F1C2F1200200FA48
:108D580002FC5FEA310040F1000053EA4C0308BF0F
:108D680020EADC70704792F0000F00F0004C02BF60
:108D7800400010F4000F013AF9D040EA0C0093F0DB
:108D8800000F01F0004C02BF490011F4000F013B35
:108D9800F9D041EA0C018FE70CEAD15392EA0C0FA3
:108DA80018BF93EA0C0F0AD030F0004C18BF31F00E
:108DB800004CD8D180EA010000F00040704790F0E4
:108DC800000F17BF90F0004F084691F0000F91F088
:108DD800004F14D092EA0C0F01D142020FD193EA4E
:108DE8000C0F03D14B0218BF084608D180EA0100D6
:108DF80000F0004040F0FE4040F40000704740F0B2
:108E0800FE4040F4400070474FF0FF0C1CEAD0527F
:108E18001EBF1CEAD15392EA0C0F93EA0C0F69D0DB
:108E2800A2EB030280EA010C49024FEA402037D046
:108E38004FF0805343EA111143EA10130CF000403D
:108E48008B4238BF5B0042F17D024FF4000C8B422D
:108E580024BF5B1A40EA0C00B3EB510F24BFA3EB0D
:108E6800510340EA5C00B3EB910F24BFA3EB9103DD
:108E780040EA9C00B3EBD10F24BFA3EBD10340EA37
:108E8800DC001B0118BF5FEA1C1CE0D1FD2A3FF67D
:108E980050AF8B4240EBC25008BF20F00100704732
:108EA8000CF0004C4CEA50207F32C2BFD2F1FF03D5
:108EB80040EAC250704740F400004FF00003013A06
:108EC80037E792F0000F00F0004C02BF400010F4AA
:108ED800000F013AF9D040EA0C0093F0000F01F0BE
:108EE800004C02BF490011F4000F013BF9D041EAE0
:108EF8000C0195E70CEAD15392EA0C0F08D1420213
:108F08007FF47DAF93EA0C0F7FF470AF084676E7E5
:108F180093EA0C0F04D14B023FF44CAF08466EE7BE
:108F280030F0004C18BF31F0004CCAD130F000428C
:108F38007FF45CAF31F000437FF43CAF5FE700BFE4
:108F48004FF0FF3C06E000BF4FF0010C02E000BF0D
:108F58004FF0010C4DF804CD4FEA40024FEA4103AF
:108F68007FEA226C18BF7FEA236C11D001B052EA65
:108F7800530C18BF90EA010F58BFB2EB030088BF2B
:108F8800C81738BF6FEAE17018BF40F0010070479A
:108F98007FEA226C02D15FEA402C05D17FEA236C7C
:108FA800E4D15FEA412CE1D05DF8040B704700BFC3
:108FB800844608466146FFE70FB5FFF7C9FF00285A
:108FC80048BF10F1000F0FBD4DF808EDFFF7F4FF93
:108FD8000CBF012000205DF808FB00BF4DF808ED2C
:108FE800FFF7EAFF34BF012000205DF808FB00BF4F
:108FF8004DF808EDFFF7E0FF94BF012000205DF871
:1090080008FB00BF4DF808EDFFF7D2FF94BF012021
:1090180000205DF808FB00BF4DF808EDFFF7C8FF1A
:1090280034BF012000205DF808FB00BF42000ED2CB
:10903800B2F1FE4F0BD34FF09E03B3EB126209D48B
:109048004FEA002343F0004323FA02F070474FF041
:109058000000704712F1610F01D1420202D14FF0B6
:10906800FF3070474FF00000704700BF53B94AB94E
:10907800002908BF00281CBF4FF0FF314FF0FF3018
:1090880000F07AB9ADF1080C6DE904CE00F006F8ED
:10909800DDF804E0DDE9022304B070472DE9F0476C
:1090A8008C460E460446089D002B50D18A4217462E
:1090B8006CD9B2FA82FEBEF1000F0BD0CEF1200CB3
:1090C80001FA0EF620FA0CFC02FA0EF74CEA060C2E
:1090D80000FA0EF43A0CBCFBF2F9BBB202FB19CC55
:1090E80009FB03FA4FEA144848EA0C46B2450AD984
:1090F800F61909F1FF3180F02581B24540F222814D
:10910800A9F102093E44A6EB0A06B6FBF2F002FBFF
:10911800106600FB03F3A4B244EA0644A34209D94B
:10912800E41900F1FF3280F00B81A34240F208817C
:1091380002383C440021E41A40EA0940002D62D07C
:10914800002324FA0EF42C606B60BDE8F0878B4294
:1091580007D9002D55D0002185E841000846BDE813
:10916800F087B3FA83F1002940F08F80B34202D32D
:10917800824200F2FC80841A66EB03060120B446A2
:10918800002D40D085E81010BDE8F08712B90127FE
:10919800B7FBF2F7B7FA87FEBEF1000F35D1012110
:1091A800F61B4FEA174C1FFA87F8B6FBFCF20CFBCC
:1091B800126608FB02F0230C43EA0646B04207D9C0
:1091C800F61902F1FF3302D2B04200F2D2801A46F9
:1091D800361AB6FBFCF00CFB106608FB00F8A3B2CD
:1091E80043EA0644A04507D9E41900F1FF3302D247
:1091F800A04500F2B9801846A4EB080440EA0240F2
:109208009CE729462846BDE8F08707FA0EF7CEF115
:10921800200326FA03F24FEA174CB2FBFCF11FFABF
:1092280087F80CFB112206FA0EF620FA03F301FB6D
:1092380008F933431E0C46EA0246B14500FA0EF41B
:1092480009D9F61901F1FF3280F08C80B14540F25E
:10925800898002393E44A6EB0906B6FBFCF00CFBFC
:10926800106200FB08F99EB246EA0246B14507D9EA
:10927800F61900F1FF3371D2B1456FD902383E4477
:10928800A6EB090640EA01418FE7C1F1200722FA5F
:1092980007F88B4048EA030326FA07F44FEA134E0F
:1092A800B4FBFEF91FFA83FC0EFB19448E4020FA2A
:1092B80007F809FB0CFA48EA06084FEA184646EA96
:1092C8000444A24502FA01F200FA01F608D9E418AA
:1092D80009F1FF3044D2A24542D9A9F102091C4440
:1092E800A4EB0A04B4FBFEF00EFB104400FB0CFCDC
:1092F8001FFA88F848EA0444A44507D9E41800F19D
:10930800FF3E29D2A44527D902381C4440EA094027
:10931800A0FB0289A4EB0C0CCC45C246CE4615D363
:1093280012D055B1B6EB0A036CEB0E0606FA07F736
:10933800CB401F43CE402F606E600021BDE8F08710
:109348001046F7E68946DEE64645EAD2B8EB020A59
:1093580069EB030E0138E4E77046D7E718468FE754
:109368008146BDE7114676E702383C4444E70846A3
:1093780006E7023A3E442BE7704700BFDFF834D0D7
:10938800002103E00C4B5B58435004310B480C4B55
:1093980042189A42F6D30B4A02E0002342F8043BF3
:1093A800094B9A42F9D301F04FFC0CF03DFB00F059
:1093B800DBFA704700800120F860010800000020F7
:1093C80050050020500500204C2E0020FEE700002C
:1093D80080B584B000AF7860114B1B68002B02D1B8
:1093E8000F4B104A1A600E4B1B68FB600C4B1A6837
:1093F8007B6813446A46934207D90CF00FFB024678
:109408000C2313604FF0FF3306E0054B1A687B68A6
:109418001344034A1360FB6818461037BD4680BDE5
:109428006C0500204C2E002080B584B000AF3B4670
:1094380000221A605A609A60DA603C4B3C4A1A6013
:109448003A4B00225A60394B00229A60374B01226E
:109458001A61364B00229A61344B00221A62334B50
:109468000022DA62314B334A9A62304B0022DA60CA
:109478002E4B0522DA612D4B01221A632B4B002259
:109488005A612A4801F081FC0346002B01D000F004
:10949800E5FA00233B6001237B600723BB603B4662
:1094A8001946224801F038FE0346002B01D000F08F
:1094B800D5FA01233B6002237B603B4619461B48D3
:1094C80001F02AFE0346002B01D000F0C7FA022360
:1094D8003B6003237B603B461946144801F01CFEA1
:1094E8000346002B01D000F0B9FA03233B600423A4
:1094F8007B603B4619460D4801F00EFE0346002BE3
:1095080001D000F0ABFA0E233B6005237B603B469D
:109518001946064801F000FE0346002B01D000F072
:109528009DFA00BF1037BD4680BD00BFF006002081
:10953800002001400100000F80B58AB000AF7860BC
:1095480007F1140300221A605A609A60DA601A61FF
:109558007B681B683C4A934271D100233B613B4ABC
:109568003A4B5B6C43F480735364384B5B6C03F485
:1095780080733B613B690023FB60344A334B1B6BB0
:1095880043F001031363314B1B6B03F00103FB60D2
:10959800FB680023BB602D4A2C4B1B6B43F0040374
:1095A80013632A4B1B6B03F00403BB60BB680F23D8
:1095B8007B610323BB610023FB6107F11403194698
:1095C800234802F0D3FF10237B610323BB610023F0
:1095D800FB6107F1140319461E4802F0C7FF1E4B32
:1095E8001E4A1A601C4B00225A601B4B00229A60CC
:1095F800194B0022DA60184B4FF480621A61164B3F
:109608004FF400625A61144B4FF400529A61124BA6
:109618004FF48072DA61104B00221A620E4B00225E
:109628005A620D4802F062F90346002B01D000F09F
:1096380015FA7B68084A9A63074A7B68936300BFF8
:109648002837BD4680BD00BF0020014000380240D9
:109658000000024000080240380700201064024061
:1096680080B500AF064B074A1A60054802F01FF99B
:109678000346002B01D000F0F1F900BF80BD00BF08
:10968800980700200030024080B485B000AF7860B1
:109698007B681B680A4A93420DD10023FB60094A84
:1096A800084B1B6B43F480531363064B1B6B03F48B
:1096B8008053FB60FB6800BF1437BD4680BC704711
:1096C800003002400038024080B582B000AF00236D
:1096D8007B600C4A0B4B1B6B43F480031363094BF1
:1096E8001B6B03F480037B607B6800220021382019
:1096F80002F099F8382002F0B2F800BF0837BD46EA
:1097080080BD00BF0038024080B58AB000AF07F1C5
:10971800140300221A605A609A60DA601A61002302
:109728003B617E4A7D4B1B6B43F0040313637B4B09
:109738001B6B03F004033B613B690023FB60774A22
:10974800764B1B6B43F080031363744B1B6B03F066
:109758008003FB60FB680023BB60704A6F4B1B6B88
:1097680043F0010313636D4B1B6B03F00103BB60F4
:10977800BB6800237B60694A684B1B6B43F002039C
:109788001363664B1B6B03F002037B607B6800234B
:109798003B60624A614B1B6B43F0080313635F4BEA
:1097A8001B6B03F008033B603B68002210215C48F8
:1097B80003F097F9002260215A4803F092F9002239
:1097C8004BF22001584803F08CF901224FF4406114
:1097D800544803F086F901224FF44071524803F0CF
:1097E80080F941F20F037B610023BB610123FB6118
:1097F80007F1140319464B4802F0B8FE10237B61A9
:109808000123BB610023FB6100233B6207F11403C2
:109818001946434802F0AAFEE0237B610223BB619C
:109828000023FB6103233B6205237B6207F11403DA
:1098380019463B4802F09AFE4FF446637B610123C8
:10984800BB610023FB6100233B6207F11403194647
:10985800344802F08BFE03237B61344BBB61002349
:10986800FB6107F1140319462F4802F07FFE44F20A
:1098780014037B610023BB610123FB6107F114031F
:109888001946294802F072FE4BF220337B6101230E
:10989800BB610023FB6100233B6207F114031946F7
:1098A800214802F063FE4FF460737B610023BB61C3
:1098B8000023FB6107F1140319461A4802F056FE0B
:1098C8004FF480737B610023BB610023FB6107F1C8
:1098D80014031946124802F049FE04237B61002351
:1098E800BB610123FB6107F114031946104802F01C
:1098F8003DFE00220021062001F095FF062001F020
:10990800AEFF00220021072001F08DFF072001F0A3
:10991800A6FF00BF2837BD4680BD00BF0038024003
:10992800000002400008024000040240000011103C
:10993800000C024080B500AF094B0A4A1A60084B78
:1099480002225A60064B40F6FF729A60044803F000
:1099580013F90346002B01D000F080F800BF80BD4A
:10996800A00700200030004080B500AF01F09AF950
:1099780000F015F8FFF7C8FEFFF7A6FE00F074F830
:1099880000F036FA00F042FBFFF76AFEFFF7D2FF5D
:1099980000F028FCFFF748FD08F0B8FFFCE780B5A9
:1099A80096B000AF07F128033022002118460CF0CA
:1099B80090F807F1140300221A605A609A60DA607E
:1099C8001A613B4600221A605A609A60DA601A618E
:1099D8000D23BB620123FB6201233B630123FB636D
:1099E80002233B644FF480037B640C23BB64F023A5
:1099F800FB6402233B6505237B6507F128031846B2
:109A080004F094F90346002B01D000F027F80F2347
:109A18007B610223BB619023FB6100233B6200232F
:109A28007B6207F114030021184604F095FB0346F6
:109A3800002B01D000F012F804233B604FF4807330
:109A4800FB603B46184604F073FD0346002B01D02B
:109A580000F004F800BF5837BD4680BD80B400AFA1
:109A680000BFBD4680BC704780B500AF134B144A99
:109A78001A60124B00225A60104B7F229A600F4BDB
:109A8800FF22DA600D4B00221A610C4B00225A614A
:109A98000A4B00229A61094804F03EFE0346002B57
:109AA80001D0FFF7DBFF054805F04DF90346002B11
:109AB80001D0FFF7D3FF00BF80BD00BFAC07002077
:109AC8000028004080B483B000AF78607B681B68D2
:109AD800054A934202D1054B01221A6000BF0C3798
:109AE800BD4680BC704700BF002800403C0E47427E
:109AF80080B485B000AF78600B46FB701346BB702E
:109B08000023BB600023FB607B6803F5FA63BB603E
:109B1800FB78022B30D8FA7813465B001344DB003D
:109B28009B1A324A82FB03125210DB17D21ABB78F7
:109B380013441A46BB681A44BB68013B9B081A4485
:109B4800BB68013B2A49A1FB03135B09D21ABB6816
:109B5800013B2749A1FB0313DB0913441A1D254BBD
:109B6800A3FB0213D11A49080B4499080B46DB00E2
:109B78005B1AD31AFB602CE0FA7813465B00134497
:109B8800DB009B1A194A82FB03125210DB17D21A08
:109B9800BB7813441A46BB681A44BB689B081A442E
:109BA800BB681349A1FB03135B09D21ABB681049B0
:109BB800A1FB0313DB0913449A1C0E4BA3FB0213EE
:109BC800D11A49080B4499080B46DB005B1AD31AD3
:109BD800FB60FB68002B01D10723FB60FB68DBB24D
:109BE80018461437BD4680BC704700BF398EE3382D
:109BF8001F85EB512549922480B588B000AFF860E5
:109C0800B9607A603B6007F11403002219461548D1
:109C180004F0CAFE07F1100300221946114804F0A7
:109C2800B5FFFB7C18467B7CBA7C1946FFF760FFC2
:109C380003461A46FB681A70BA7CBB681A707A7CAD
:109C48007B681A70FA7C3B681A703A7DBB6A1A7096
:109C58007A7DFB6A1A70BA7D3B6B1A7000BF203799
:109C6800BD4680BDAC07002090B587B000AF044664
:109C7800084611461A462346FB710346BB710B463C
:109C88007B7113463B7107F10C03002219461748F4
:109C980004F08AFE07F1080300221946134804F06D
:109CA80075FFFB79BB72BB797B727B79FB723B7961
:109CB8003B7397F828307B7397F82C30BB730023DD
:109CC8003B6100237B6107F108030022194607481E
:109CD80004F0BCFE07F10C0300221946034804F007
:109CE800A5FD00BF1C37BD4690BD00BFAC070020D6
:109CF80080B483B000AF00237B600F4A0E4B5B6CCF
:109D080043F4804353640C4B5B6C03F480437B60E7
:109D18007B6800233B60084A074B1B6C43F0805369
:109D28001364054B1B6C03F080533B603B6800BF1A
:109D38000C37BD4680BC70470038024080B400AF85
:109D480000BFBD4680BC704780B400AFFEE780B45A
:109D580000AFFEE780B400AFFEE780B400AFFEE7D7
:109D680080B400AF00BFBD4680BC704780B400AF70
:109D780000BFBD4680BC704780B400AF00BFBD4681
:109D880080BC704780B500AF00F0CAFF0BF02AFE18
:109D980000BF80BD80B500AF00200AF023FD012080
:109DA80002F0C8FE00BF80BD80B500AF01200AF0F8
:109DB80019FD022002F0BEFE00BF80BD80B500AFD5
:109DC8000BF014FC00BF80BD80B500AF024801F065
:109DD8009BFE00BF80BD00BF3807002080B500AFE4
:109DE800024803F037F800BF80BD00BF40120020D2
:109DF80080B58EB000AF07F1280300221A605A60C0
:109E08009A60DA6007F1200300221A605A603B1D4D
:109E180000221A605A609A60DA601A615A619A617F
:109E28003D4B4FF080421A603B4B03225A603A4B3D
:109E380000229A60384B41F64B52DA60364B0022CA
:109E48001A61354B00229A61334804F0ACFF03468F
:109E5800002B01D0FFF702FE4FF48053BB6207F1DD
:109E6800280319462C4805F03DF90346002B01D07C
:109E7800FFF7F4FD284804F0C1FF0346002B01D08A
:109E8800FFF7ECFD00233B6200237B6207F1200310
:109E98001946214805F03BFD0346002B01D0FFF78A
:109EA800DDFD60237B600023BB600023FB60002393
:109EB8007B613B1D00221946174805F04DF8034603
:109EC800002B01D0FFF7CAFD3B1D0422194612489A
:109ED80005F042F80346002B01D0FFF7BFFD3B1DFC
:109EE800082219460C4805F037F80346002B01D024
:109EF800FFF7B4FD3B1D0C221946074805F02CF866
:109F08000346002B01D0FFF7A9FD034800F024F811
:109F180000BF3837BD4680BDCC07002080B485B06F
:109F280000AF78607B681B68B3F1804F0DD10023C8
:109F3800FB60084A074B1B6C43F001031364054B95
:109F48001B6C03F00103FB60FB6800BF1437BD46C0
:109F580080BC70470038024080B58AB000AF786096
:109F680007F1140300221A605A609A60DA601A61D5
:109F78007B681B68B3F1804F3DD100233B61204AC9
:109F88001F4B1B6B43F0020313631D4B1B6B03F04A
:109F980002033B613B690023FB60194A184B1B6BAA
:109FA80043F001031363164B1B6B03F00103FB60C3
:109FB800FB6840F608437B610223BB610023FB6119
:109FC80000233B6201237B6207F1140319460D4805
:109FD80002F0CCFA4FF400437B610223BB610023FB
:109FE800FB6100233B6201237B6207F114031946DE
:109FF800054802F0BBFA00BF2837BD4680BD00BF48
:10A0080000380240000402400000024080B500AF62
:10A01800114B124A1A60104B4FF4E1325A600E4B42
:10A0280000229A600C4B0022DA600B4B00221A6166
:10A03800094B0C225A61084B00229A61064B0022F8
:10A04800DA61054805F0A7FC0346002B01D0FFF7AD
:10A0580005FD00BF80BD00BF0C08002000100140B6
:10A0680080B58AB000AF786007F1140300221A6047
:10A078005A609A60DA601A617B681B68254A9342C5
:10A0880043D100233B61244A234B5B6C43F010030C
:10A098005364214B5B6C03F010033B613B69002365
:10A0A800FB601D4A1C4B1B6B43F0020313631A4BE6
:10A0B8001B6B03F00203FB60FB6840237B610223F8
:10A0C800BB610123FB6103233B6207237B6207F12A
:10A0D80014031946114802F049FA80237B610223D0
:10A0E800BB610023FB6103233B6207237B6207F10B
:10A0F80014031946094802F039FA002200212520E4
:10A1080001F091FB252001F0AAFB00BF2837BD46CE
:10A1180080BD00BF0010014000380240000402402A
:10A1280080B582B000AF78607B681B68094A9342AB
:10A138000CD1094A084B5B6C23F010035364C0210F
:10A14800064802F0B5FB252001F097FB00BF083751
:10A15800BD4680BD001001400038024000040240A6
:10A1680080B582B000AF0346FB711C4805F060FC67
:10A17800FB79012B06D0022B09D0184B4FF4E132A2
:10A188005A6009E0154B4FF496425A6004E0134BAD
:10A198004FF416525A6000BF104B114A1A600F4B09
:10A1A80000229A600D4B0022DA600C4B00221A61E3
:10A1B8000A4B0C225A61094B00229A61074B002274
:10A1C800DA61064805F0E7FB0346002B01D0FFF7EC
:10A1D80045FC00BF0837BD4680BD00BF0C08002005
:10A1E8000010014080B500AF00221249124807F064
:10A1F80033FA0346002B01D0FFF730FC0F490E4815
:10A2080007F055FA0346002B01D0FFF727FC0C494D
:10A21800094807F0B5F90346002B01D0FFF71EFCEB
:10A22800054807F05DFA0346002B01D0FFF716FC3E
:10A2380000BF80BD180000204C08002078000020D6
:10A248000800002080B500AF00220549054807F046
:10A25800ADF90549034807F0C2F90023184680BD47
:10A26800580E00204C080020700A002080B400AF6F
:10A2780000231846BD4680BC7047000080B483B0F8
:10A2880000AF03463960FB711346BB80FB79232B73
:10A2980000F2988001A252F823F000BFCDA3000875
:10A2A800CDA30008CDA30008CDA30008CDA30008C6
:10A2B800CDA30008CDA30008CDA30008CDA30008B6
:10A2C800CDA30008CDA30008CDA30008CDA30008A6
:10A2D800CDA30008CDA30008CDA30008CDA3000896
:10A2E800CDA30008CDA30008CDA30008CDA3000886
:10A2F800CDA30008CDA30008CDA30008CDA3000876
:10A30800CDA30008CDA30008CDA30008CDA3000865
:10A31800CDA30008CDA30008CDA3000835A30008ED
:10A3280079A30008CDA30008CDA300083B681B78DB
:10A338001A463B6801331B781B021A433B680233F9
:10A348001B781B041A433B6803331B781B06134313
:10A358001A46204B1A603B681A791E4B1A713B68E3
:10A368005A791C4B5A713B689A791A4B9A712AE0B0
:10A37800184B1B68DAB23B681A703B680133154A00
:10A388001268120AD2B21A703B680233114A126874
:10A39800120CD2B21A703B6803330E4A1268120EBE
:10A3A800D2B21A703B6804330A4A12791A703B68B1
:10A3B8000533084A52791A703B680633054A927980
:10A3C8001A7000E000BF002318460C37BD4680BC59
:10A3D800704700BF0000002080B584B000AF7860EF
:10A3E80039603B681B68FB81FB89DBB219467868DA
:10A3F8000BF038FA7968054807F0F1F8034807F0D8
:10A4080001F9002318461037BD4680BD4C080020CE
:10A4180080B58AB000AF786007F1140300221A6093
:10A428005A609A60DA601A617B681B68B3F1A04FC2
:10A4380047D100233B61254A244B1B6B43F00103A2
:10A448001363224B1B6B03F001033B613B694FF421
:10A4580000737B610023BB610023FB6107F11403D8
:10A4680019461B4802F082F84FF4E0537B6102233F
:10A47800BB610023FB6103233B620A237B6207F174
:10A4880014031946124802F071F8104A0F4B5B6B1F
:10A4980043F0800353630023FB600C4A0B4B5B6C57
:10A4A80043F480435364094B5B6C03F48043FB60C3
:10A4B800FB6800220021432001F0B5F9432001F098
:10A4C800CEF900BF2837BD4680BD00BF0038024026
:10A4D8000000024080B582B000AF78607B68D3F896
:10A4E800E4237B6803F56D731946104607F040F9BD
:10A4F80000BF0837BD4680BD80B582B000AF786028
:10A508000B46FB707B68D3F8E403FA787968134646
:10A51800DB009B1A9B000B4403F5FE731A68FB785B
:10A52800194607F06FF900BF0837BD4680BD80B5F2
:10A5380082B000AF78600B46FB707B68D3F8E40309
:10A54800FA7879681346DB009B1A9B000B443C336E
:10A558001A68FB78194607F0B0F900BF0837BD46FE
:10A5680080BD80B582B000AF78607B68D3F8E433F3
:10A57800184607F093FA00BF0837BD4680BD80B57E
:10A5880084B000AF78600123FB737B68DB68002B25
:10A5980002D10023FB7308E07B68DB68022B02D141
:10A5A8000123FB7301E0FFF759FA7B68D3F8E43322
:10A5B800FA7B1146184607F03EFA7B68D3F8E43375
:10A5C800184607F009FA00BF1037BD4680BD0000E5
:10A5D80080B582B000AF78607B68D3F8E433184662
:10A5E80007F038FA7B681B6803F560631A467B68D6
:10A5F8001B6803F560631B6843F0010313607B6805
:10A608001B6A002B05D0054A044B1B6943F006035F
:10A61800136100BF0837BD4680BD00BF00ED00E0F4
:10A6280080B582B000AF78607B68D3F8E433184611
:10A6380007F024FA00BF0837BD4680BD80B582B058
:10A6480000AF78600B46FB707B68D3F8E433FA7888
:10A658001146184607F048FA00BF0837BD4680BDC6
:10A6680080B582B000AF78600B46FB707B68D3F88A
:10A67800E433FA781146184607F02AFA00BF08377B
:10A68800BD4680BD80B582B000AF78607B68D3F8E6
:10A69800E433184607F034FA00BF0837BD4680BDDA
:10A6A80080B582B000AF78607B68D3F8E433184691
:10A6B80007F030FA00BF0837BD4680BD80B582B0CC
:10A6C80000AF78607B681B78002B39D11F4A7B6804
:10A6D800C2F8E4337B681D4AC3F820221B4B4FF0B5
:10A6E800A0421A60194B04225A60184B0222DA6001
:10A6F800164B00221A61154B02229A61134B002255
:10A70800DA61124B00221A62104B00225A620F4B78
:10A7180000229A620D4802F077FA0346002B01D016
:10A72800FFF79CF98021094803F0F0FA4022002144
:10A73800064803F0A1FA80220121044803F09CFA9C
:10A74800002318460837BD4680BD00BF40120020D0
:10A7580080B584B000AF78600023FB730023BB731F
:10A768007B68D3F82032184602F051FB0346FB738E
:10A77800FB7B184600F02EF90346BB73BB7B1846DB
:10A788001037BD4680BD80B584B000AF78600846FC
:10A7980011461A460346FB700B46BB7013463B80B6
:10A7A8000023FB730023BB737B68D3F82002BB78BC
:10A7B8003A88F97802F0DBFF0346FB73FB7B184607
:10A7C80000F008F90346BB73BB7B18461037BD463B
:10A7D80080BD80B584B000AF78600B46FB70002365
:10A7E800FB730023BB737B68D3F82032FA781146D9
:10A7F800184603F024F80346FB73FB7B184600F069
:10A80800E9F80346BB73BB7B18461037BD4680BDCD
:10A8180080B584B000AF78600B46FB700023FB73F3
:10A828000023BB737B68D3F82032FA7811461846A8
:10A8380003F0FAF80346FB73FB7B184600F0CAF8EE
:10A848000346BB73BB7B18461037BD4680BD80B539
:10A8580084B000AF78600B46FB700023FB730023C5
:10A86800BB737B68D3F82032FA781146184603F098
:10A8780036F90346FB73FB7B184600F0ABF803463A
:10A88800BB73BB7B18461037BD4680BD80B485B00E
:10A8980000AF78600B46FB707B68D3F82032FB6012
:10A8A80097F90330002B0BDAFB7803F07F02F96885
:10A8B8001346DB009B1A9B000B4432331B780BE0DA
:10A8C800FB7803F07F02F9681346DB009B1A9B00B4
:10A8D8000B4403F5F9731B7818461437BD4680BC42
:10A8E800704780B584B000AF78600B46FB700023DA
:10A8F800FB730023BB737B68D3F82032FA781146C8
:10A90800184602F013FF0346FB73FB7B184600F062
:10A9180061F80346BB73BB7B18461037BD4680BD44
:10A9280080B586B000AFF8607A601A460B46FB72B5
:10A9380013463B810023FB750023BB75FB68D3F8E6
:10A9480020023B89F97A7A6803F025F80346FB75FB
:10A95800FB7D184600F03EF80346BB75BB7D1846E4
:10A968001837BD4680BD80B586B000AFF8607A6004
:10A978001A460B46FB7213463B810023FB750023E6
:10A98800BB75FB68D3F820023B89F97A7A6802F034
:10A99800A0FF0346FB75FB7D184600F01BF8034635
:10A9A800BB75BB7D18461837BD4680BD80B582B0E3
:10A9B80000AF78600B46FB707B68D3F82032FA78DA
:10A9C8001146184602F0CFFF034618460837BD4621
:10A9D80080BD000080B485B000AF0346FB71002342
:10A9E800FB73FB79032B17D801A252F823F000BFA1
:10A9F80009AA00080FAA000815AA00081BAA00083F
:10AA08000023FB730BE00223FB7308E00123FB73B5
:10AA180005E00223FB7302E00223FB7300BFFB7B0C
:10AA280018461437BD4680BC704700BF80B483B059
:10AA380000AF03463960FB713B6812221A80034B52
:10AA480018460C37BD4680BC704700BF3400002054
:10AA580080B483B000AF03463960FB713B680422C1
:10AA68001A80034B18460C37BD4680BC704700BFA0
:10AA78004800002080B582B000AF03463960FB7102
:10AA8800FB79002B05D13A680749084807F05CFCB8
:10AA980004E03A680449054807F056FC024B18469A
:10AAA8000837BD4680BD00BF28160020C45D0108D8
:10AAB80080B582B000AF03463960FB713A6804493B
:10AAC800044807F041FC024B18460837BD4680BDD4
:10AAD80028160020DC5D010880B582B000AF03466F
:10AAE8003960FB713B681A221A8000F043F8024B68
:10AAF80018460837BD4680BD4C00002080B582B09E
:10AB080000AF03463960FB71FB79002B05D13A6829
:10AB18000749084807F018FC04E03A680449054862
:10AB280007F012FC024B18460837BD4680BD00BF2F
:10AB380028160020F05D010880B582B000AF0346FA
:10AB48003960FB71FB79002B05D13A680749084841
:10AB580007F0FAFB04E03A680449054807F0F4FBFB
:10AB6800024B18460837BD4680BD00BF2816002096
:10AB7800FC5D010880B584B000AF0F4B1B68FB601B
:10AB88000E4B1B68BB600E4B1B687B60FA687B68CA
:10AB98001344FB60FB68002B09D008220949F868B8
:10ABA80000F014F804220849B86800F00FF800BF54
:10ABB8001037BD4680BD00BF107AFF1F147AFF1FF3
:10ABC800187AFF1F4E0000205E00002080B487B076
:10ABD80000AFF860B9601346FB710023FB750023D2
:10ABE800FB7527E0FB681B0F092B0BD8FB7D5B006F
:10ABF8001A46BB681344FA68120FD2B23032D2B286
:10AC08001A700AE0FB7D5B001A46BB681344FA68B9
:10AC1800120FD2B23732D2B21A70FB681B01FB6036
:10AC2800FB7D5B000133BA68134400221A70FB7D78
:10AC38000133FB75FA7DFB799A42D3D300BF1C37E9
:10AC4800BD4680BC7047000080B400AF114A114B6C
:10AC58001B6843F0010313600E4B00229A600D4AF3
:10AC68000C4B1B6823F0847323F480331360094B67
:10AC7800094A5A60074A074B1B6823F4802313606C
:10AC8800044B0022DA60054B054A9A6000BFBD46B6
:10AC980080BC7047003802401030002400ED00E00E
:10ACA8000080000880B500AF0E4A0E4B1B6843F4C5
:10ACB800007313600B4A0B4B1B6843F480631360EB
:10ACC800084A084B1B6843F480731360032000F0A4
:10ACD8009FFD002000F008F8FFF70AF80023184647
:10ACE80080BD00BF003C024080B582B000AF7860F4
:10ACF800094B1B68094AA2FB03239B09184600F06D
:10AD0800CAFD002279684FF0FF3000F08CFD002367
:10AD180018460837BD4680BD68000020D34D621034
:10AD280080B400AF044B1B680133034A136000BFB3
:10AD3800BD4680BC704700BF2818002080B400AF13
:10AD4800024B1B681846BD4680BC70472818002077
:10AD580080B584B000AF7860FFF7F0FFB8607B681B
:10AD6800FB60FB68B3F1FF3F02D0FB680133FB6077
:10AD780000BFFFF7E3FF0246BB68D21AFB689A429E
:10AD8800F7D300BF1037BD4680BD80B584B000AF93
:10AD980078600023FB737B68002B01D1012333E02B
:10ADA8007B681B6C002B09D17B6800225A647B6886
:10ADB800002283F83C207868FEF7BEFB7B681B6C9A
:10ADC80003F01003002B18D17B681B6C23F4885305
:10ADD80023F0020343F002027B681A64786800F0EB
:10ADE800BDFA7B6800225A647B681B6C23F003035E
:10ADF80043F001027B681A6401E00123FB737B685E
:10AE0800002283F83C20FB7B18461037BD4680BDE6
:10AE180080B485B000AF78600023FB607B6893F84E
:10AE28003C30012B01D1022387E07B68012283F8A3
:10AE38003C207B681B689B6803F00103012B18D03A
:10AE48007B681B687A681268926842F001029A600F
:10AE58003C4B1B683C4AA2FB03239A0C13465B003D
:10AE68001344FB6002E0FB68013BFB60FB68002BBE
:10AE7800F9D17B681B689B6803F00103002B5BD04A
:10AE88007B681B6C23F4E06323F0010343F48072B6
:10AE98007B681A647B681B685B6803F48063002B1B
:10AEA80007D07B681B6C23F4405343F480527B68C3
:10AEB8001A647B681B6C03F48053002B06D07B68F4
:10AEC8005B6C23F006027B685A6402E07B68002210
:10AED8005A647B68002283F83C207B681B686FF00B
:10AEE80022021A60194B5B6803F01F03002B0FD175
:10AEF8007B681B689B6803F04053002B1CD17B6860
:10AF08001B687A681268926842F080429A6013E07F
:10AF18007B681B680E4A93420ED17B681B689B684E
:10AF280003F04053002B07D17B681B687A681268CE
:10AF3800926842F080429A60002318461437BD4652
:10AF480080BC70476800002083DE1B43002301405B
:10AF58000020014080B586B000AFF860B9607A6023
:10AF680000237B61FB6893F83C30012B01D102235D
:10AF7800AEE0FB68012283F83C20FB681B689B68F5
:10AF880003F00103012B18D0FB681B68FA681268EC
:10AF9800926842F001029A604F4B1B684F4AA2FB2D
:10AFA80003239A0C13465B0013447B6102E07B6920
:10AFB800013B7B617B69002BF9D1FB681B689B68AF
:10AFC80003F00103002B00F08280FB681B6C23F464
:10AFD800E06323F0010343F48072FB681A64FB68A2
:10AFE8001B685B6803F48063002B07D0FB681B6C4D
:10AFF80023F4405343F48052FB681A64FB681B6CCB
:10B0080003F48053002B06D0FB685B6C23F0060228
:10B01800FB685A6402E0FB6800225A64FB6800225D
:10B0280083F83C20FB689B6B2D4ADA63FB689B6BBB
:10B038002C4A1A64FB689B6B2B4ADA64FB681B6812
:10B048006FF022021A60FB681B68FA68126852687F
:10B0580042F080625A60FB681B68FA68126892685E
:10B0680042F480729A60FB68986BFB681B684C33EB
:10B078001946BA687B6800F0E7FC1C4B5B6803F074
:10B088001F03002B0FD1FB681B689B6803F040531C
:10B09800002B1CD1FB681B68FA681268926842F0A2
:10B0A80080429A6013E0FB681B68114A93420ED1F4
:10B0B800FB681B689B6803F04053002B07D1FB68B3
:10B0C8001B68FA681268926842F080429A6000230E
:10B0D80018461837BD4680BD6800002083DE1B4334
:10B0E80069B500080FB600082BB600080023014018
:10B0F8000020014080B483B000AF786000BF0C37F7
:10B10800BD4680BC704780B483B000AF786000BF94
:10B118000C37BD4680BC704790B484B000AF7860EF
:10B1280039600023FB607B6893F83C30012B01D128
:10B13800022305E17B68012283F83C203B681B68F9
:10B14800092B26D97B681A687B681B68D9683B6815
:10B158001B689BB2184603465B0003441E3B07204E
:10B1680000FA03F3DB430B40D3607B681A687B6803
:10B178001B68D9683B6898683B681B689BB21C468B
:10B1880023465B0023441E3B00FA03F30B43D360C2
:10B1980023E07B681A687B681B6819693B681B6831
:10B1A8009BB2184603465B000344072000FA03F3EA
:10B1B800DB430B4013617B681A687B681B6819695D
:10B1C8003B6898683B681B689BB21C4623465B003B
:10B1D800234400FA03F30B4313613B685B68062BB7
:10B1E80024D87B6819687B681B68586B3B685A6869
:10B1F80013469B001344053B1F2202FA03F3DB436B
:10B2080003404B637B6819687B681B68586B3B6815
:10B218001B689BB21C463B685A6813469B00134444
:10B22800053B04FA03F303434B634CE03B685B685C
:10B238000C2B24D87B6819687B681B68186B3B68E3
:10B248005A6813469B001344233B1F2202FA03F358
:10B25800DB4303400B637B6819687B681B68186BCA
:10B268003B681B689BB21C463B685A6813469B00A8
:10B278001344233B04FA03F303430B6323E07B6883
:10B2880019687B681B68D86A3B685A6813469B0034
:10B298001344413B1F2202FA03F3DB430340CB6212
:10B2A8007B6819687B681B68D86A3B681B689BB217
:10B2B8001C463B685A6813469B001344413B04FAFA
:10B2C80003F30343CB627B681B68204A934209D18E
:10B2D8003B681B68122B05D11D4A1D4B5B6843F464
:10B2E800800353607B681B68184A934223D13B68EC
:10B2F8001B68102B03D03B681B68112B1BD1144A09
:10B30800134B5B6843F4000353603B681B68102BC6
:10B3180011D1104B1B68104AA2FB03239A0C134649
:10B328009B0013445B00FB6002E0FB68013BFB6091
:10B33800FB68002BF9D17B68002283F83C200023AE
:10B3480018461037BD4690BC704700BF002001402A
:10B35800002301406800002083DE1B4380B485B0D1
:10B3680000AF78607C4A7C4B5B6823F440335360C1
:10B378007949794B5A687B685B6813434B607B68F3
:10B388001B687A681268526822F480725A607B6877
:10B398001B687A68126851687A68126912020A434F
:10B3A8005A607B681B687A681268526822F040729B
:10B3B8005A607B681B687A68126851687A68926874
:10B3C8000A435A607B681B687A681268926822F49C
:10B3D80000629A607B681B687A68126891687A686C
:10B3E800D2680A439A607B689B6A5C4A934222D07F
:10B3F8007B681B687A681268926822F070629A60AB
:10B408007B681B687A68126891687A68926A0A434E
:10B418009A607B681B687A681268926822F04052CA
:10B428009A607B681B687A68126891687A68D26A41
:10B438000A439A600FE07B681B687A681268926812
:10B4480022F070629A607B681B687A68126892685A
:10B4580022F040529A607B681B687A68126892688A
:10B4680022F002029A607B681B687A681268916809
:10B478007A68926952000A439A607B681B6A002BBB
:10B4880025D07B681B687A681268526842F40062AB
:10B498005A607B681B687A681268526822F46042B6
:10B4A8005A607B685B6A5A1E4FF46043FB60FB6816
:10B4B80093FAA3F3BB60BB68B3FA83F39A407B6843
:10B4C8001B687968096849680A435A6007E07B681D
:10B4D8001B687A681268526822F400625A607B68B6
:10B4E8001B687A681268D26A22F47002DA627B6892
:10B4F8001B687A681268D16A7A68D269013A1205BB
:10B508000A43DA627B681B687A681268926822F4D8
:10B5180000729A607B681B687A68126891687A681A
:10B52800126B52020A439A607B681B687A68126839
:10B53800926822F480629A607B681B687A68126855
:10B5480091687A68526992020A439A6000BF143778
:10B55800BD4680BC704700BF002301400100000FBA
:10B5680080B584B000AF78607B689B6BFB60FB683C
:10B578001B6C03F05003002B3CD1FB681B6C43F49D
:10B588000072FB681A64FB681B689B6803F04053F1
:10B59800002B2BD1FB689B69002B27D1FB681B680C
:10B5A800DB6A03F47003002B06D0FB681B689B68FA
:10B5B80003F48063002B19D1FB681B68FA681268D2
:10B5C800526822F020025A60FB681B6C23F48072D8
:10B5D800FB681A64FB681B6C03F48053002B05D1CD
:10B5E800FB681B6C43F00102FB681A64F86806F0FC
:10B5F80089FF04E0FB689B6BDB6C7868984700BFA9
:10B608001037BD4680BD80B584B000AF78607B68D8
:10B618009B6BFB60F868FFF76DFD00BF1037BD46F8
:10B6280080BD80B584B000AF78607B689B6BFB60A1
:10B63800FB6840221A64FB685B6C43F00402FB68F9
:10B648005A64F868FFF75FFD00BF1037BD4680BD3C
:10B6580080B485B000AF78607B6803F00703FB60B7
:10B668000C4BDB68BB60BA684FF6FF031340BB6046
:10B67800FB681A02BB68134343F0BF6343F400330B
:10B68800BB60044ABB68D36000BF1437BD4680BCAA
:10B69800704700BF00ED00E080B400AF044BDB68EA
:10B6A8001B0A03F007031846BD4680BC704700BF5D
:10B6B80000ED00E080B483B000AF0346FB71084999
:10B6C80097F907305B09FA7902F01F02012000FAA6
:10B6D80002F241F8232000BF0C37BD4680BC7047FA
:10B6E80000E100E080B483B000AF0346FB71094974
:10B6F80097F907305B09FA7902F01F02012000FA76
:10B7080002F2203341F8232000BF0C37BD4680BC2D
:10B71800704700BF00E100E080B483B000AF03468B
:10B728003960FB7197F90730002B0BDA0D49FB796B
:10B7380003F00F03043B3A68D2B21201D2B20B44B1
:10B748001A7609E0084997F907303A68D2B2120127
:10B75800D2B20B4483F8002300BF0C37BD4680BC2F
:10B76800704700BF00ED00E000E100E080B489B060
:10B7780000AFF860B9607A60FB6803F00703FB610B
:10B78800FB69C3F10703042B28BF0423BB61FB69D2
:10B798000433062B02D9FB69033B00E000237B61DD
:10B7A8000122BB6902FA03F35A1EBB681A407B697F
:10B7B8009A4001217B6901FA03F3591E7B680B400B
:10B7C800134318462437BD4680BC704780B582B005
:10B7D80000AF78607B68013BB3F1807F01D3012320
:10B7E8000FE00A4A7B68013B53600F214FF0FF309E
:10B7F800FFF792FF054B00229A60044B07221A605C
:10B80800002318460837BD4680BD00BF10E000E0A1
:10B8180080B582B000AF78607868FFF719FF00BF85
:10B828000837BD4680BD80B586B000AF0346B96015
:10B838007A60FB7300237B61FFF72EFF78617A68DB
:10B84800B9687869FFF792FF024697F90F301146F9
:10B858001846FFF761FF00BF1837BD4680BD80B5A9
:10B8680082B000AF0346FB7197F907301846FFF71F
:10B8780021FF00BF0837BD4680BD80B582B000AF4C
:10B888000346FB7197F907301846FFF72BFF00BFF7
:10B898000837BD4680BD80B582B000AF7860786853
:10B8A800FFF794FF034618460837BD4680BD80B5AC
:10B8B80082B000AF78607B68002B01D1012311E0D2
:10B8C8007B685B79DBB2002B05D17B6800221A719B
:10B8D8007868FDF7D9FE7B6802225A717B680122DD
:10B8E8005A71002318460837BD4680BD80B586B01A
:10B8F80000AF786000237B61FFF720FA38617B682E
:10B90800002B01D1012399E07B68002283F83420C1
:10B918007B68022283F835207B681B687A68126886
:10B92800126822F001021A600FE0FFF707FA0246D8
:10B938003B69D31A052B08D97B6820225A657B6896
:10B94800032283F83520032378E07B681B681B6893
:10B9580003F00103002BE8D17B681B681B687B613F
:10B968007A69384B13407B617B685A687B689B68AF
:10B978001A437B68DB681A437B681B691A437B6838
:10B988005B691A437B689B691A437B68DB691A43C6
:10B998007B681B6A13437A6913437B617B685B6A24
:10B9A800042B07D17B68DA6A7B681B6B13437A69BF
:10B9B80013437B617B681B687A691A607B681B6824
:10B9C8005B697B617B6923F007037B617B685B6A4A
:10B9D8007A6913437B617B685B6A042B17D17B68A8
:10B9E8009B6A7A6913437B617B68DB6A002B0ED004
:10B9F800786800F075FA0346002B08D07B6840226F
:10BA08005A657B68012283F83520012316E07B689C
:10BA18001B687A695A61786800F02EFA0346FB6061
:10BA28007B68DB6D3F229A40FB689A607B68002246
:10BA38005A657B68012283F8352000231846183799
:10BA4800BD4680BD3F8010F080B586B000AFF8607D
:10BA5800B9607A603B600023FB75FB689B6D3B61B6
:10BA6800FB6893F83430012B01D1022348E0FB68CE
:10BA7800012283F83420FB6893F83530DBB2012BC0
:10BA880037D1FB68022283F83520FB6800225A650B
:10BA98003B687A68B968F86800F0C0F9FB68DB6D44
:10BAA8003F229A403B699A60FB681B68FA681268F3
:10BAB800126842F016021A60FB681B68FA6812687E
:10BAC800526942F080025A61FB681B6C002B07D058
:10BAD800FB681B68FA681268126842F008021A606C
:10BAE800FB681B68FA681268126842F001021A6063
:10BAF80005E0FB68002283F834200223FB75FB7DF8
:10BB080018461837BD4680BD80B586B000AF78604E
:10BB18000023BB60924B1B68924AA2FB03239B0A3B
:10BB28007B617B689B6D3B613B691B68FB607B6845
:10BB3800DB6D08229A40FB681340002B1AD07B6803
:10BB48001B681B6803F00403002B13D07B681B6879
:10BB58007A681268126822F004021A607B68DB6D4A
:10BB680008229A403B699A607B685B6D43F001024A
:10BB78007B685A657B68DB6D01229A40FB6813403D
:10BB8800002B12D07B681B685B6903F08003002BD5
:10BB98000BD07B68DB6D01229A403B699A607B6819
:10BBA8005B6D43F002027B685A657B68DB6D04229B
:10BBB8009A40FB681340002B12D07B681B681B68F7
:10BBC80003F00203002B0BD07B68DB6D04229A4044
:10BBD8003B699A607B685B6D43F004027B685A6539
:10BBE8007B68DB6D10229A40FB681340002B43D022
:10BBF8007B681B681B6803F00803002B3CD07B683C
:10BC0800DB6D10229A403B699A607B681B681B6851
:10BC180003F48023002B18D07B681B681B6803F48F
:10BC28000023002B08D17B681B6C002B24D07B6879
:10BC38001B6C786898471FE07B689B6C002B1BD0B7
:10BC48007B689B6C7868984716E07B681B681B6864
:10BC580003F48073002B07D17B681B687A6812682D
:10BC6800126822F008021A607B681B6C002B03D054
:10BC78007B681B6C786898477B68DB6D20229A404C
:10BC8800FB681340002B00F08E807B681B681B68E4
:10BC980003F01003002B00F086807B68DB6D202208
:10BCA8009A403B699A607B6893F83530DBB2052B84
:10BCB80036D17B681B687A681268126822F016020F
:10BCC8001A607B681B687A681268526922F08002E1
:10BCD8005A617B681B6C002B03D17B689B6C002B23
:10BCE80007D07B681B687A681268126822F008021D
:10BCF8001A607B68DB6D3F229A403B699A607B68DB
:10BD0800002283F834207B68012283F835207B6881
:10BD18001B6D002B7DD07B681B6D7868984778E099
:10BD28007B681B681B6803F48023002B1CD07B688E
:10BD38001B681B6803F40023002B08D17B685B6C2D
:10BD4800002B30D07B685B6C786898472BE07B6869
:10BD5800DB6B002B27D07B68DB6B7868984722E089
:10BD680068000020B5814E1B7B681B681B6803F4C4
:10BD78008073002B0FD17B681B687A681268126881
:10BD880022F010021A607B68002283F834207B6856
:10BD9800012283F835207B68DB6B002B03D07B689E
:10BDA800DB6B786898477B685B6D002B32D07B68CB
:10BDB8005B6D03F00103002B22D07B68052283F81A
:10BDC80035207B681B687A681268126822F00102C5
:10BDD8001A60BB680133BB607A69934207D87B68F5
:10BDE8001B681B6803F00103002BF2D100E000BFC1
:10BDF8007B68002283F834207B68012283F8352091
:10BE08007B68DB6C002B05D07B68DB6C7868984717
:10BE180000E000BF1837BD4680BD00BF80B485B0C4
:10BE280000AFF860B9607A603B60FB681B68FA682D
:10BE38001268126822F480221A60FB681B683A684C
:10BE48005A60FB689B68402B08D1FB681B687A68BE
:10BE58009A60FB681B68BA68DA6007E0FB681B68D1
:10BE6800BA689A60FB681B687A68DA6000BF1437A2
:10BE7800BD4680BC7047000080B485B000AF7860D4
:10BE88007B681B68DBB2103B134AA2FB03231B0928
:10BE9800FB60124AFB6813441B781A467B68DA6514
:10BEA800FB68032B09D97B681B6823F47F7323F095
:10BEB80003031A1D7B689A6507E07B681B6823F4F7
:10BEC8007F7323F003037A6893657B689B6D18463C
:10BED8001437BD4680BC7047ABAAAAAA2C5E0108DD
:10BEE80080B485B000AF78600023FB737B689B6AE1
:10BEF800BB607B689B69002B1FD1BB68032B55D89F
:10BF080001A252F823F000BF21BF000833BF000888
:10BF180021BF0008B5BF00087B68DB6A03F08073A7
:10BF2800002B45D00123FB7342E07B68DB6AB3F149
:10BF3800C07F3FD10123FB733CE07B689B69B3F56D
:10BF4800005F21D1BB68032B36D801A252F823F039
:10BF580069BF00086FBF000869BF000881BF0008FB
:10BF68000123FB732FE07B68DB6A03F08073002BEF
:10BF780024D00123FB7321E07B68DB6AB3F1C07F27
:10BF88001ED10123FB731BE0BB68022B02D9032BD4
:10BF980003D018E00123FB7315E07B68DB6A03F02C
:10BFA8008073002B0ED00123FB730BE000BF0AE067
:10BFB80000BF08E000BF06E000BF04E000BF02E0E9
:10BFC80000BF00E000BFFB7B18461437BD4680BCAD
:10BFD800704700BF80B586B000AFF860B960C7E9A8
:10BFE80000230123FB75234B1B7E012B01D1022368
:10BFF8003BE0204B01221A764CF2503000F068F8F2
:10C008000346FB75FB7D002B2BD1FB68002B05D16C
:10C018003B781946B86800F00BF916E0FB68012B6D
:10C0280005D13B881946B86800F0E0F80DE0FB68D8
:10C03800022B05D13B681946B86800F0B5F804E052
:10C04800D7E90023B86800F083F84CF2503000F0CC
:10C058003FF80346FB75084A074B1B6923F00103A9
:10C068001361044B00221A76FB7D18461837BD462B
:10C0780080BD00BF2C180020003C024080B400AFF7
:10C08800084B1B69002B07DA064B074A5A60054B19
:10C09800064A5A60002300E001231846BD4680BCCA
:10C0A800704700BF003C024023016745AB89EFCDD4
:10C0B80080B400AF054A054B1B6943F00043136188
:10C0C80000231846BD4680BC704700BF003C0240B4
:10C0D80080B584B000AF78600023FB601A4B002263
:10C0E800DA61FEF72BFEF86010E07B68B3F1FF3FE2
:10C0F8000CD07B68002B07D0FEF720FE0246FB68B9
:10C10800D21A7B689A4201D9032319E00F4BDB68E6
:10C1180003F48033002BE8D10C4BDB6803F00103F8
:10C12800002B02D0094B0122DA60084BDB6803F0D0
:10C13800F203002B03D000F09BF8012300E000235A
:10C1480018461037BD4680BD2C180020003C024020
:10C15800F0B484B000AFF860C7E90023114A114B6E
:10C168001B6923F4407313610E4A0E4B1B6943F499
:10C17800407313610B4A0B4B1B6943F001031361B6
:10C18800FB683A681A60FB6804331A4697E8180097
:10C19800250000262B46136000BF1037BD46F0BCB3
:10C1A800704700BF003C024080B483B000AF7860A5
:10C1B80039600D4A0C4B1B6923F4407313610A4A1A
:10C1C800094B1B6943F400731361074A064B1B694B
:10C1D80043F0010313617B683A681A6000BF0C37AB
:10C1E800BD4680BC704700BF003C024080B483B0AD
:10C1F80000AF78600B467B800C4A0C4B1B6923F41C
:10C2080040731361094A094B1B6943F48073136136
:10C21800064A064B1B6943F0010313617B687A8861
:10C228001A8000BF0C37BD4680BC7047003C0240F6
:10C2380080B483B000AF78600B46FB700B4A0B4BA1
:10C248001B6923F440731361084A084B1B69136187
:10C25800064A064B1B6943F0010313617B68FA78B1
:10C268001A7000BF0C37BD4680BC7047003C0240C6
:10C2780080B400AF274BDB6803F01003002B08D015
:10C28800254BDB6943F00803234AD361214B102275
:10C29800DA60204BDB6803F02003002B08D01E4B2C
:10C2A800DB6943F004031C4AD3611A4B2022DA608D
:10C2B800184BDB6803F04003002B08D0164BDB69F2
:10C2C80043F00203144AD361124B4022DA60114B47
:10C2D800DB6803F08003002B08D00F4BDB6943F0C9
:10C2E80001030D4AD3610B4B8022DA60094BDB68EE
:10C2F80003F00203002B08D0074BDB6943F010035F
:10C30800054AD361034B0222DA6000BFBD4680BCF8
:10C31800704700BF003C02402C18002080B584B054
:10C3280000AF786039600123FB730023BB60314B99
:10C338001B7E012B01D1022358E02E4B01221A76D5
:10C348004CF25030FFF7C4FE0346FB73FB7B002B17
:10C3580048D13B684FF0FF321A607B681B68012B9D
:10C3680015D17B681B69DAB27B685B681946104691
:10C3780000F0DAF84CF25030FFF7AAFE0346FB73E0
:10C388001D4A1D4B1B6923F00403136128E07B68D9
:10C398009B68BB601CE07B681B69DBB21946B86808
:10C3A80000F02CF84CF25030FFF792FE0346FB7376
:10C3B800114A114B1B6923F0FA031361FB7B002B15
:10C3C80003D03B68BA681A600AE0BB680133BB60F7
:10C3D8007B68DA687B689B681A44BB689A42DAD83B
:10C3E80000F05EF8034B00221A76FB7B18461037E4
:10C3F800BD4680BD2C180020003C024080B487B0A8
:10C4080000AF78600B46FB7000237B61FB78002B44
:10C4180002D100237B6110E0FB78012B03D14FF49C
:10C4280080737B6109E0FB78022B03D14FF4007322
:10C438007B6102E04FF440737B61184A174B1B691C
:10C4480023F4407313611549144B1A697B6913432C
:10C458000B61124A114B1B6923F0F8031361F8238F
:10C468003B613B6993FAA3F3FB60FB68B3FA83F380
:10C478007A6802FA03F343F002030849074A12698B
:10C4880013430B61054A054B1B6943F48033136161
:10C4980000BF1C37BD4680BC704700BF003C02404F
:10C4A80080B400AF1F4B1B6803F40073002B17D038
:10C4B8001C4A1C4B1B6823F400731360194A194B60
:10C4C8001B6843F400631360164A164B1B6823F479
:10C4D80000631360134A134B1B6843F40073136023
:10C4E800104B1B6803F48063002B17D00D4A0D4BCB
:10C4F8001B6823F4806313600A4A0A4B1B6843F4E1
:10C5080080531360074A074B1B6823F4805313605A
:10C51800044A044B1B6843F48063136000BFBD46A4
:10C5280080BC7047003C024080B483B000AF034633
:10C538003960FB710C4A0C4B1B6923F4407313617F
:10C54800094A094B1B6943F0040313610649064B6A
:10C558001A69FB791B02134343F480330B6100BF54
:10C568000C37BD4680BC7047003C024080B489B09F
:10C5780000AF7860396000237B6100233B610023B2
:10C58800BB610023FB6171E10122FB6902FA03F33D
:10C598007B613B681A687B6913403B613A697B6938
:10C5A8009A4240F060813B685B68022B03D03B688D
:10C5B8005B68122B23D1FB69DA087B68083253F8D1
:10C5C8002230BB61FB6903F007039B000F2202FACC
:10C5D80003F3DB43BA691340BB613B681A69FB6923
:10C5E80003F007039B0002FA03F3BA691343BB6124
:10C5F800FB69DA087B680832B96943F822107B685E
:10C608001B68BB61FB695B00032202FA03F3DB438F
:10C61800BA691340BB613B685B6803F00302FB69BE
:10C628005B0002FA03F3BA691343BB617B68BA691A
:10C638001A603B685B68012B0BD03B685B68022B78
:10C6480007D03B685B68112B03D03B685B68122BF3
:10C6580030D17B689B68BB61FB695B00032202FAEF
:10C6680003F3DB43BA691340BB613B68DA68FB69D3
:10C678005B0002FA03F3BA691343BB617B68BA69CA
:10C688009A607B685B68BB610122FB6902FA03F36D
:10C69800DB43BA691340BB613B685B681B0903F065
:10C6A8000102FB6902FA03F3BA691343BB617B68B1
:10C6B800BA695A607B68DB68BB61FB695B0003226F
:10C6C80002FA03F3DB43BA691340BB613B689A681B
:10C6D800FB695B0002FA03F3BA691343BB617B6829
:10C6E800BA69DA603B685B6803F08053002B00F09E
:10C6F800BA800023FB60624A614B5B6C43F4804361
:10C7080053645F4B5B6C03F48043FB60FB685D4ADA
:10C71800FB699B08023352F82330BB61FB6903F0C5
:10C7280003039B000F2202FA03F3DB43BA691340A9
:10C73800BB617B68544A934231D07B68534A934229
:10C748002BD07B68524A934225D07B68514A93424A
:10C758001FD07B68504A934219D07B684F4A934256
:10C7680013D07B684E4A93420DD07B684D4A934262
:10C7780007D07B684C4A934201D1082310E0092373
:10C788000EE007230CE006230AE0052308E0042353
:10C7980006E0032304E0022302E0012300E0002373
:10C7A800FA6902F0030292009340BA691343BB612D
:10C7B8003449FB699B080233BA6941F823203B4B93
:10C7C8001B68BB613B69DB43BA691340BB613B68CB
:10C7D8005B6803F48033002B03D0BA693B691343C9
:10C7E800BB61324ABB691360304B5B68BB613B6914
:10C7F800DB43BA691340BB613B685B6803F40033F1
:10C80800002B03D0BA693B691343BB61274ABB6954
:10C818005360264B9B68BB613B69DB43BA69134095
:10C82800BB613B685B6803F48013002B03D0BA69D3
:10C838003B691343BB611D4ABB6993601B4BDB68B3
:10C84800BB613B69DB43BA691340BB613B685B680A
:10C8580003F40013002B03D0BA693B691343BB618F
:10C86800124ABB69D360FB690133FB61FB690F2B7B
:10C878007FF68AAE00BF2437BD4680BC704700BF34
:10C888000038024000380140000002400004024025
:10C8980000080240000C0240001002400014024050
:10C8A80000180240001C024000200240003C0140E9
:10C8B80080B487B000AF7860396000233B61002303
:10C8C800FB600023BB6000237B61D4E001227B690D
:10C8D80002FA03F33B613A683B691340FB60FA686C
:10C8E8003B699A4240F0C4807B681A687B695B00A8
:10C8F800032101FA03F3DB431A407B681A607B6962
:10C90800DA087B69D9087B68083153F821107B69FC
:10C9180003F007039B000F2000FA03F3DB431940E1
:10C928007B68083243F822107B689A687B695B0051
:10C93800032101FA03F3DB431A407B689A607B68A2
:10C948005A6801217B6901FA03F3DB431A407B68CB
:10C958005A607B68DA687B695B00032101FA03F39C
:10C96800DB431A407B68DA60474A7B699B080233DD
:10C9780052F82330BB607B6903F003039B000F224E
:10C9880002FA03F3BA681340BB607B683F4A9342DC
:10C9980031D07B683E4A93422BD07B683D4A934214
:10C9A80025D07B683C4A93421FD07B683B4A934220
:10C9B80019D07B683A4A934213D07B68394A93422C
:10C9C8000DD07B68384A934207D07B68374A934238
:10C9D80001D1082310E009230EE007230CE0062309
:10C9E8000AE0052308E0042306E0032304E0022309
:10C9F80002E0012300E000237A6902F003029200BA
:10CA080003FA02F2BB689A4232D17B6903F003034E
:10CA18009B000F2202FA03F3BB601B487B699B084B
:10CA280019497A699208023251F82210BA68D24339
:10CA38000A40023340F823201D491D4B1A68FB6841
:10CA4800DB4313400B601A49194B5A68FB68DB43F8
:10CA580013404B601649164B9A68FB68DB4313403A
:10CA68008B601349124BDA68FB68DB431340CB60D9
:10CA78007B6901337B617B690F2B7FF627AF00BF92
:10CA88001C37BD4680BC704700380140000002409A
:10CA98000004024000080240000C0240001002405E
:10CAA8000014024000180240001C0240002002400E
:10CAB800003C014080B485B000AF78600B467B80B5
:10CAC8007B681A697B881340002B02D00123FB7313
:10CAD80001E00023FB73FB7B18461437BD4680BC7E
:10CAE800704780B483B000AF78600B467B801346F4
:10CAF8007B707B78002B03D07A887B689A6103E08F
:10CB08007B881A047B689A6100BF0C37BD4680BCDD
:10CB1800704780B483B000AF78600B467B807B6839
:10CB28005A697B885A407B685A6100BF0C37BD46FA
:10CB380080BC704780B582B000AF0346FB80084BCD
:10CB48005A69FB881340002B06D0054AFB885361BD
:10CB5800FB88184600F006F800BF0837BD4680BDC0
:10CB6800003C014080B483B000AF0346FB8000BFA7
:10CB78000C37BD4680BC704780B584B000AF786084
:10CB88007B68002B01D101232BE07B681B684CF6E6
:10CB9800CC421A607B681B6845F255521A607B6864
:10CBA8001B687A6852685A607B681B687A68926862
:10CBB8009A60FEF7C3F8F86008E0FEF7BFF802468F
:10CBC800FB68D31A302B01D903230AE07B681B6862
:10CBD800DB68002BF1D17B681B684AF6AA221A6031
:10CBE800002318461037BD4680BD80B483B000AF1F
:10CBF80078607B681B684AF6AA221A6000231846E8
:10CC08000C37BD4680BC7047F0B58DB008AF786072
:10CC18000023FB607B68002B01D10123F3E07B68D4
:10CC2800032283F8B1237868FDF7F2FB7B681B6861
:10CC3800184603F09EF97B681B683B607E686D466A
:10CC480006F110040FCC0FC594E80F0085E80F001B
:10CC5800331D0ECB386803F02BF97B681B68002165
:10CC6800184603F096F90023FB604CE07968FA68EF
:10CC78001346DB009B1A9B000B44313301221A70C8
:10CC8800FB68D8B27968FA681346DB009B1A9B00E8
:10CC98000B44303302461A70FB6898B27968FA6818
:10CCA8001346DB009B1A9B000B44363302461A805E
:10CCB8007968FA681346DB009B1A9B000B443333F0
:10CCC80000221A707968FA681346DB009B1A9B00E9
:10CCD8000B44383300221A607968FA681346DB007F
:10CCE8009B1A9B000B443C3300221A607968FA684F
:10CCF8001346DB009B1A9B000B44443300221A6046
:10CD0800FB680133FB60FB680E2BAFD90023FB6087
:10CD18005AE07968FA681346DB009B1A9B000B44BB
:10CD280003F2F11300221A70FB68D8B27968FA6826
:10CD38001346DB009B1A9B000B4403F5F87302466D
:10CD48001A70FB6898B27968FA681346DB009B1A78
:10CD58009B000B44363302461A807968FA681346FA
:10CD6800DB009B1A9B000B4403F2F31300221A709A
:10CD78007968FA681346DB009B1A9B000B4403F59D
:10CD8800FC7300221A607968FA681346DB009B1A64
:10CD98009B000B4403F5FE7300221A607968FA6859
:10CDA8001346DB009B1A9B000B4403F5017300221A
:10CDB8001A607B681A68FB6840339B0013440022A2
:10CDC8005A60FB680133FB60FB680E2BA1D97B68B6
:10CDD8001B683B607E686D4606F110040FCC0FC5DA
:10CDE80094E80F0085E80F00331D0ECB386803F078
:10CDF800F7F87B68012283F8B1237B681B68184623
:10CE080004F0C4F8002318461437BD46F0BD80B5B9
:10CE180082B000AF78607B6893F8B033012B01D102
:10CE2800022312E07B68012283F8B0237B681B6829
:10CE3800184604F094F87B681B68184603F089F8D4
:10CE48007B68002283F8B023002318460837BD46C4
:10CE580080BD000080B58CB000AF78607B681B682F
:10CE68003B620023FB620023BB620023FB610023BB
:10CE78007B620023BB6100237B617A4B3B617B684B
:10CE88001B68184604F01FF90346002B40F04B843A
:10CE98007B681B68184604F090F80346002B00F0E6
:10CEA80041847B681B68184604F087F8034603F042
:10CEB8000203022B03D17B681B6802225A617B683C
:10CEC8001B68184604F079F8034603F40023B3F509
:10CED800002F40F0B28000237B627B681B681846F5
:10CEE80004F07FF8B862A4E0BB6A03F00103002BEA
:10CEF80000F099807B681B687A6AD2B2114618469E
:10CF080004F09DF8F861FB6903F00103002B6BD076
:10CF18007B6A5A013B6A134403F530631A460123BE
:10CF280093607B681B69012B3CD179687A6A134648
:10CF3800DB009B1A9B000B4403F5FC731A687B6AA1
:10CF480059013B6A0B4403F530631B69C3F31203B1
:10CF5800D11A78687A6A1346DB009B1A9B0003444F
:10CF680003F50273196079687A6A1346DB009B1A25
:10CF78009B000B4403F5FE73196878687A6A1346B8
:10CF8800DB009B1A9B00034403F5FC731B681944E0
:10CF980078687A6A1346DB009B1A9B00034403F502
:10CFA800FE7319607B6ADBB219467868FDF7A4FA4C
:10CFB8007B681B69012B17D17B6A002B14D1796818
:10CFC8007A6A1346DB009B1A9B000B4403F5017336
:10CFD8001B68002B08D17B6818687B6803F56D73A4
:10CFE8001A46012104F0B1F8FB6903F00803002B8D
:10CFF8000BD07868FDF76EFA7B6A5A013B6A1344D6
:10D0080003F530631A4608239360FB6903F01003A5
:10D01800002B08D07B6A5A013B6A134403F530633E
:10D028001A46102393607B6A01337B62BB6A5B08F4
:10D03800BB62BB6A002B7FF457AF7B681B6818463E
:10D0480003F0BBFF034603F48023B3F5802F40F0C1
:10D05800C5807B681B68184603F0DAFFB8620023B6
:10D068007B62B7E0000E2707BB6A03F00103002BC1
:10D0780000F0AA807B681B687A6AD2B2114618460B
:10D0880003F0F8FFF861FB6903F00103002B5AD0A5
:10D0980001227B6A02FA03F3BB613B6A03F5006372
:10D0A80019463B6A03F500635A6BBB69DB431340BF
:10D0B8004B637B6A5A013B6A134403F510631A46B3
:10D0C800012393607B681B69012B1BD179687A6AFD
:10D0D8001346DB009B1A9B000B443C3319687868A5
:10D0E8007A6A1346DB009B1A9B00034438331B689B
:10D0F800194478687A6A1346DB009B1A9B0003443C
:10D108003C3319607B6ADBB219467868FDF70FFA81
:10D118007B681B69012B16D17B6A002B13D17968B8
:10D128007A6A1346DB009B1A9B000B4444331B6846
:10D13800002B08D17B6818687B6803F56D731A4665
:10D14800012104F002F8FB6903F00803002B08D062
:10D158007B6A5A013B6A134403F510631A46082395
:10D168009360FB6903F01003002B08D07B6A5A0117
:10D178003B6A134403F510631A4610239360FB6956
:10D1880003F04003002B08D07B6A5A013B6A134422
:10D1980003F510631A4640239360FB6903F002030A
:10D1A800002B08D07B6A5A013B6A134403F51063CD
:10D1B8001A4602239360FB6903F08003002B03D017
:10D1C800796A786800F0D6FC7B6A01337B62BB6AB7
:10D1D8005B08BB62BB6A002B7FF446AF7B681B68A9
:10D1E800184603F0EAFE034603F00043B3F1004F8C
:10D1F80012D13B6A03F500631A463B6A03F50063E4
:10D208005B6823F0010353607868FDF709FA7B68CF
:10D218001B684FF000425A617B681B68184603F090
:10D22800CCFE034603F40063B3F5006F0FD13B6AED
:10D2380003F500639B6803F00103012B02D17868B2
:10D24800FDF7C6F97B681B684FF400625A617B687A
:10D258001B68184603F0B1FE034603F48053B3F588
:10D26800805F40F08E803B6A03F500631A463B6A94
:10D2780003F500635B6823F0010353607B681B6858
:10D288001021184602F0DEFF0023FB6214E0FB6A5F
:10D298005A013B6A134403F510631A46FF2393604F
:10D2A800FB6A5A013B6A134403F530631A46FF23AD
:10D2B8009360FB6A0133FB627B685A68FB6A9A4297
:10D2C800E5D83B6A03F500631A464FF0FF339361D4
:10D2D8003B6A03F500631A463B6A03F50063DB69A2
:10D2E80043F00113D3617B689B6A002B18D03B6A1B
:10D2F80003F500631A463B6A03F50063D3F88430EC
:10D3080043F00B03C2F884303B6A03F500631A4606
:10D318003B6A03F500635B6C43F00B03536415E051
:10D328003B6A03F500631A463B6A03F500635B69D1
:10D3380043F00B0353613B6A03F500631A463B6AEB
:10D3480003F500631B6943F00B0313613B6A03F5A4
:10D3580000631A463B6A03F500631B6823F4FE6307
:10D3680013607B6818687B681B69D9B27B6803F512
:10D378006D731A4603F0E9FE7B681B684FF4805210
:10D388005A617B681B68184603F017FE034603F4CE
:10D398000053B3F5005F40F0D7807B681B681846E0
:10D3A80003F09EFE7B681B687A681268D26822F4D4
:10D3B8007052DA607B681B68184602F09EFF0346CD
:10D3C800002B0FD17B680022DA607B684FF4007273
:10D3D8005A617B681B687A681268D26842F41052F6
:10D3E800DA60A9E07B680322DA607B6840225A6130
:10D3F80001F050F838613B69794A93420CD93B698E
:10D40800784A934208D87B681B687A681268D268A1
:10D4180042F47052DA608FE03B69724A93420CD949
:10D428003B69714A934208D87B681B687A6812681E
:10D43800D26842F46052DA607EE03B696A4A9342FD
:10D448000CD93B69694A934208D87B681B687A689B
:10D458001268D26842F45052DA606DE03B69634A60
:10D4680093420CD93B69624A934208D87B681B688F
:10D478007A681268D26842F44052DA605CE03B692C
:10D488005B4A93420CD93B695A4A934208D87B6855
:10D498001B687A681268D26842F43052DA604BE04E
:10D4A8003B69544A93420CD93B69534A934208D882
:10D4B8007B681B687A681268D26842F42052DA6086
:10D4C8003AE03B694C4A93420CD93B694B4A934238
:10D4D80008D87B681B687A681268D26842F41052D0
:10D4E800DA6029E03B69454A93420CD93B69444AD2
:10D4F800934208D87B681B687A681268D26842F43D
:10D508000052DA6018E03B693D4A93420CD93B6906
:10D518003C4A934208D87B681B687A681268D268CC
:10D5280042F4E052DA6007E07B681B687A681268A8
:10D53800D26842F4C052DA607868FDF720F87B6858
:10D548001B684FF400525A617B681B68184603F049
:10D5580034FD034603F01003102B74D17B681B685D
:10D568007A681268926922F010029A613B6A1B6A13
:10D578007B617B6903F00F021346DB009B1A9B005B
:10D5880003F5F8737A681344FB607B695B0C03F05E
:10D598000F03022B38D17A6947F6F0731340002B3A
:10D5A80049D0FB68D9687B691B099BB2C3F30A039E
:10D5B8009BB21A46386A03F0ABFBFB68DA687B69F2
:10D5C8001B09C3F30A031A44FB68DA60FB689A690B
:10D5D8007B691B09C3F30A031A44FB689A612AE0B2
:10D5E800BFACD800BFE1E400FF23F4007F7306015D
:10D5F8009F491A01FF2C31013FA44C01FF356E01F0
:10D608001FABA601FF47E8017B695B0C03F00F0322
:10D61800062B10D17B6803F56D7308221946386A0A
:10D6280003F076FBFB689A697B691B09C3F30A035D
:10D638001A44FB689A617B681B687A681268926969
:10D6480042F010029A617B681B68184603F0B5FC2B
:10D65800034603F00803082B06D17868FCF781FF1E
:10D668007B681B6808225A617B681B68184603F0B0
:10D67800A4FC034603F48013B3F5801F0AD17B6A28
:10D68800DBB219467868FCF7EBFF7B681B684FF440
:10D6980080125A617B681B68184603F08EFC0346AB
:10D6A80003F40013B3F5001F0AD17B6ADBB21946F5
:10D6B8007868FCF7C3FF7B681B684FF400125A6157
:10D6C8007B681B68184603F078FC034603F0804328
:10D6D800B3F1804F07D17868FCF7D4FF7B681B68EB
:10D6E8004FF080425A617B681B68184603F065FC5E
:10D6F800034603F00403042B15D17B681B685B68A1
:10D708007B617B6903F00403002B02D07868FCF787
:10D71800C7FF7B681B687A68126851687A690A4390
:10D728005A6000E000BF3037BD4680BD80B582B08A
:10D7380000AF78600B46FB707B6893F8B033012B21
:10D7480001D102230FE07B68012283F8B0237B68B4
:10D758001B68FA781146184603F0DCFB7B68002248
:10D7680083F8B023002318460837BD4680BD80B52E
:10D7780084B000AF7860084611461A460346FB702D
:10D788000B463B801346BB700023FB7297F90330AE
:10D79800002B0BDAFB7803F07F021346DB009B1AA1
:10D7A8009B0030337A681344FB600BE0FB7803F08E
:10D7B8007F021346DB009B1A9B0003F5F8737A6817
:10D7C8001344FB60FB7803F07F03DAB2FB681A703E
:10D7D80097F90330DBB2DB09DBB21A46FB685A70F3
:10D7E8003A88FB689A60FB68BA78DA70FB685B78FD
:10D7F800002B04D0FB681B789AB2FB68DA80BB78F0
:10D80800022B02D1FB6800221A717B6893F8B033AF
:10D81800012B01D102230EE07B68012283F8B0239B
:10D828007B681B68F968184602F09BFD7B6800223C
:10D8380083F8B023FB7A18461037BD4680BD80B503
:10D8480084B000AF78600B46FB7097F90330002B6B
:10D858000BDAFB7803F07F021346DB009B1A9B0070
:10D8680030337A681344FB600BE0FB7803F07F02E7
:10D878001346DB009B1A9B0003F5F8737A68134480
:10D88800FB60FB7803F07F03DAB2FB681A7097F944
:10D898000330DBB2DB09DBB21A46FB685A707B68DF
:10D8A80093F8B033012B01D102230EE07B680122EB
:10D8B80083F8B0237B681B68F968184602F0D9FD25
:10D8C8007B68002283F8B023002318461037BD4632
:10D8D80080BD80B586B000AFF8607A603B600B46CB
:10D8E800FB72FB7A03F07F021346DB009B1A9B0056
:10D8F80003F5F873FA6813447B617B697A68DA6028
:10D908007B693A685A617B6900229A617B690022C7
:10D918005A70FB7A03F07F03DAB27B691A70FB68EE
:10D928001B69012B02D17A687B691A61FB7A03F0C3
:10D938007F03002B09D1FB681868FB681B69DBB201
:10D948001A46796903F052F808E0FB681868FB6822
:10D958001B69DBB21A46796902F006FE00231846F5
:10D968001837BD4680BD80B483B000AF78600B46E1
:10D97800FB70FB7803F00F0279681346DB009B1AF3
:10D988009B000B4403F502731B689BB218460C37C7
:10D99800BD4680BC704780B586B000AFF8607A603D
:10D9A8003B600B46FB72FB7A03F07F021346DB00F9
:10D9B8009B1A9B003033FA6813447B617B697A6851
:10D9C800DA607B693A685A617B6900229A617B69EF
:10D9D80001225A70FB7A03F07F03DAB27B691A706E
:10D9E800FB681B69012B02D17A687B691A61FB7A93
:10D9F80003F07F03002B09D1FB681868FB681B69DB
:10DA0800DBB21A46796902F0F1FF08E0FB68186892
:10DA1800FB681B69DBB21A46796902F0A5FD002391
:10DA280018461837BD4680BD80B584B000AF786011
:10DA38000B46FB7097F90330002B0BDAFB7803F0E9
:10DA48007F021346DB009B1A9B0030337A6813442D
:10DA5800FB6009E0FA781346DB009B1A9B0003F58C
:10DA6800F8737A681344FB60FB6801229A70FB78AC
:10DA780003F07F03DAB2FB681A7097F90330DBB260
:10DA8800DB09DBB21A46FB685A707B6893F8B0333F
:10DA9800012B01D102231EE07B68012283F8B02309
:10DAA8007B681B68F968184603F058F9FB7803F09F
:10DAB8007F03002B0AD17B6818687B681B69D9B281
:10DAC8007B6803F56D731A4603F03FFB7B68002201
