:020000040800F2
:1080000000000120F194000891980008939800085E
:1080100095980008979800089998000800000000BB
:108020000000000000000000000000009B98000815
:108030009D980008000000009F980008A198000883
:1080400041950008419500084195000841950008B8
:1080500041950008419500084195000841950008A8
:108060004195000841950008419500084195000898
:108070004195000841950008419500084195000888
:108080004195000841950008419500084195000878
:108090004195000841950008419500084195000868
:1080A0004195000841950008419500084195000858
:1080B0004195000841950008419500084195000848
:1080C0004195000841950008419500084195000838
:1080D00041950008AD98000841950008B598000842
:1080E0004195000841950008419500084195000818
:1080F0004195000841950008419500084195000808
:1081000041950008419500084195000841950008F7
:1081100041950008419500084195000841950008E7
:1081200041950008419500084195000841950008D7
:108130004195000800000000000000004195000883
:10814000419500084195000841950008BD98000838
:1081500041950008419500084195000841950008A7
:108160004195000841950008419500084195000897
:108170004195000841950008000000000000000043
:04818000419500081D
:1081880010B5054C237833B9044B13B10448AFF349
:1081980000800123237010BD60080020000000004B
:1081A800DCE0010808B5034B1BB103490348AFF3F2
:1081B800008008BD0000000064080020DCE0010821
:1081C800034613F8012B002AFBD1181A013870470F
:1081D80081F0004102E000BF83F0004330B54FEA70
:1081E80041044FEA430594EA050F08BF90EA020FDD
:1081F8001FBF54EA000C55EA020C7FEA645C7FEA70
:10820800655C00F0E2804FEA5454D4EB5555B8BF92
:108218006D420CDD2C4480EA020281EA030382EA03
:10822800000083EA010180EA020281EA0303362D95
:1082380088BF30BD11F0004F4FEA01314FF4801C68
:108248004CEA113102D0404261EB410113F0004F7A
:108258004FEA03334CEA133302D0524263EB430331
:1082680094EA050F00F0A780A4F10104D5F1200ECF
:108278000DDB02FA0EFC22FA05F2801841F100012A
:1082880003FA0EF2801843FA05F359410EE0A5F1FE
:1082980020050EF1200E012A03FA0EFC28BF4CF02F
:1082A800020C43FA05F3C01851EBE37101F00045E5
:1082B80007D54FF0000EDCF1000C7EEB00006EEBF2
:1082C8000101B1F5801F1BD3B1F5001F0CD349087C
:1082D8005FEA30004FEA3C0C04F101044FEA4452D3
:1082E80012F5800F80F09A80BCF1004F08BF5FEA5A
:1082F800500C50F1000041EB045141EA050130BD3A
:108308005FEA4C0C404141EB010111F4801FA4F1DC
:108318000104E9D191F0000F04BF01460020B1FA31
:1083280081F308BF2033A3F10B03B3F120020CDA69
:108338000C3208DD02F1140CC2F10C0201FA0CF047
:1083480021FA02F10CE002F11402D8BFC2F1200CAC
:1083580001FA02F120FA0CFCDCBF41EA0C01904062
:10836800E41AA2BF01EB0451294330BD6FEA0404AB
:108378001F3C1CDA0C340EDC04F11404C4F1200296
:1083880020FA04F001FA02F340EA030021FA04F3A8
:1083980045EA030130BDC4F10C04C4F1200220FAFF
:1083A80002F001FA04F340EA0300294630BD21FA3D
:1083B80004F0294630BD94F0000F83F4801306BF03
:1083C80081F480110134013D4EE77FEA645C18BFF7
:1083D8007FEA655C29D094EA050F08BF90EA020F8E
:1083E80005D054EA000C04BF1946104630BD91EA86
:1083F800030F1EBF0021002030BD5FEA545C05D189
:108408004000494128BF41F0004130BD14F58004C7
:108418003CBF01F5801130BD01F0004545F0FE413B
:1084280041F470014FF0000030BD7FEA645C1ABF70
:10843800194610467FEA655C1CBF0B46024650EAA7
:10844800013406BF52EA033591EA030F41F40021D3
:1084580030BD00BF90F0000F04BF0021704730B559
:108468004FF4806404F132044FF000054FF000012E
:1084780050E700BF90F0000F04BF0021704730B5EF
:108488004FF4806404F1320410F0004548BF4042C4
:108498004FF000013EE700BF42004FEAE2014FEA19
:1084A80031014FEA02701FBF12F07F4393F07F4FF4
:1084B80081F06051704792F0000F14BF93F07F4F26
:1084C800704730B54FF4607401F0004521F0004169
:1084D80020E700BF50EA010208BF704730B54FF0EF
:1084E80000050AE050EA010208BF704730B511F0F4
:1084F800004502D5404261EB41014FF4806404F12C
:1085080032045FEA915C3FF4DCAE4FF003025FEAAD
:10851800DC0C18BF03325FEADC0C18BF033202EB35
:10852800DC02C2F1200300FA03FC20FA02F001FA8F
:1085380003FE40EA0E0021FA02F11444C1E600BF2E
:1085480070B54FF0FF0C4CF4E06C1CEA11541DBFE1
:108558001CEA135594EA0C0F95EA0C0F00F0DEF8AC
:108568002C4481EA030621EA4C5123EA4C5350EA91
:10857800013518BF52EA033541F4801143F48013E2
:1085880038D0A0FB02CE4FF00005E1FB02E506F073
:108598000042E0FB03E54FF00006E1FB03569CF0C8
:1085A800000F18BF4EF0010EA4F1FF04B6F5007FCE
:1085B80064F5407404D25FEA4E0E6D4146EB060640
:1085C80042EAC62141EA55514FEAC52040EA5E50C9
:1085D8004FEACE2EB4F1FD0C88BFBCF5E06F1ED873
:1085E800BEF1004F08BF5FEA500E50F1000041EBAA
:1085F800045170BD06F0004646EA010140EA020057
:1086080081EA0301B4EB5C04C2BFD4EB0C0541EA78
:10861800045170BD41F480114FF0000E013C00F38D
:10862800AB8014F1360FDEBF002001F0004170BDB1
:10863800C4F10004203C35DA0C341BDC04F11404CA
:10864800C4F1200500FA05F320FA04F001FA05F256
:1086580040EA020001F0004221F0004110EBD37023
:1086680021FA04F642EB06015EEA430E08BF20EA4F
:10867800D37070BDC4F10C04C4F1200500FA04F3F2
:1086880020FA05F001FA04F240EA020001F0004184
:1086980010EBD37041F100015EEA430E08BF20EAF7
:1086A800D37070BDC4F1200500FA05F24EEA020E3F
:1086B80020FA04F301FA05F243EA020321FA04F06E
:1086C80001F0004121FA04F220EA020000EBD37025
:1086D8005EEA430E08BF20EAD37070BD94F0000F25
:1086E8000FD101F00046400041EB010111F4801F59
:1086F80008BF013CF7D041EA060195F0000F18BF0A
:10870800704703F00046520043EB030313F4801F45
:1087180008BF013DF7D043EA0603704794EA0C0FFF
:108728000CEA135518BF95EA0C0F0CD050EA410615
:1087380018BF52EA4306D1D181EA030101F0004192
:108748004FF0000070BD50EA410606BF10461946BA
:1087580052EA430619D094EA0C0F02D150EA0136C6
:1087680013D195EA0C0F05D152EA03361CBF104607
:1087780019460AD181EA030101F0004141F0FE41A6
:1087880041F470014FF0000070BD41F0FE4141F42A
:10879800780170BD70B54FF0FF0C4CF4E06C1CEA2A
:1087A80011541DBF1CEA135594EA0C0F95EA0C0FDF
:1087B80000F0A7F8A4EB050481EA030E52EA03359A
:1087C8004FEA013100F088804FEA03334FF08055BB
:1087D80045EA131343EA12634FEA022245EA1115E8
:1087E80045EA10654FEA00260EF000419D4208BF99
:1087F800964244F1FD0404F5407402D25B084FEA46
:108808003202B61A65EB03055B084FEA32024FF4F1
:1088180080104FF4002CB6EB020E75EB030E22BF4E
:10882800B61A754640EA0C005B084FEA3202B6EB0E
:10883800020E75EB030E22BFB61A754640EA5C00BD
:108848005B084FEA3202B6EB020E75EB030E22BF4D
:10885800B61A754640EA9C005B084FEA3202B6EB4E
:10886800020E75EB030E22BFB61A754640EADC000D
:1088780055EA060E18D04FEA051545EA16754FEA6F
:1088880006164FEAC30343EA52734FEAC2025FEA8D
:108898001C1CC0D111F4801F0BD141EA00014FF01C
:1088A80000004FF0004CB6E711F4801F04BF0143ED
:1088B8000020B4F1FD0C88BFBCF5E06F3FF6AFAE09
:1088C800B5EB030C04BFB6EB020C5FEA500C50F199
:1088D800000041EB045170BD0EF0004E4EEA11311C
:1088E80014EB5C04C2BFD4EB0C0541EA045170BD23
:1088F80041F480114FF0000E013C90E645EA060E67
:108908008DE60CEA135594EA0C0F08BF95EA0C0F94
:108918003FF43BAF94EA0C0F0AD150EA01347FF4DC
:1089280034AF95EA0C0F7FF425AF104619462CE7B3
:1089380095EA0C0F06D152EA03353FF4FDAE104616
:10894800194622E750EA410618BF52EA43067FF467
:10895800C5AE50EA41047FF40DAF52EA43057FF4F7
:10896800EBAE12E74FF0FF3C06E000BF4FF0010C02
:1089780002E000BF4FF0010C4DF804CD4FEA410C66
:108988007FEA6C5C4FEA430C18BF7FEA6C5C1BD033
:1089980001B050EA410C0CBF52EA430C91EA030FB4
:1089A80002BF90EA020F0020704710F1000F91EA11
:1089B800030F58BF994208BF90422CBFD8176FEADF
:1089C800E37040F0010070474FEA410C7FEA6C5CAD
:1089D80002D150EA013C07D14FEA430C7FEA6C5CB4
:1089E800D6D152EA033CD3D05DF8040B704700BFE0
:1089F8008446104662468C461946634600E000BF2E
:108A080001B5FFF7B7FF002848BF10F1000F01BDFF
:108A18004DF808EDFFF7F4FF0CBF012000205DF8CA
:108A280008FB00BF4DF808EDFFF7EAFF34BF01204F
:108A380000205DF808FB00BF4DF808EDFFF7E0FFE8
:108A480094BF012000205DF808FB00BF4DF808ED39
:108A5800FFF7CEFF94BF012000205DF808FB00BFA0
:108A68004DF808EDFFF7C4FF34BF012000205DF882
:108A780008FB00BF4FEA410212F5001215D211D5CA
:108A88006FF47873B3EB625212D94FEAC12343F003
:108A9800004343EA505311F0004F23FA02F018BF85
:108AA800404270474FF00000704750EA013005D14E
:108AB80011F0004008BF6FF0004070474FF0000011
:108AC800704700BF4A0011D212F5001211D20DD51D
:108AD8006FF47873B3EB62520ED44FEAC12343F0BC
:108AE800004343EA505323FA02F070474FF0000066
:108AF800704750EA013002D14FF0FF3070474FF015
:108B0800000070474FEA4102B2F1E04324BFB3F5D9
:108B1800001CDCF1FE5C0DD901F0004C4FEAC002EC
:108B28004CEA5070B2F1004F40EB830008BF20F0D0
:108B38000100704711F0804F21D113F13872BCBF8A
:108B480001F00040704741F480114FEA5252C2F1DF
:108B58001802C2F1200C10FA0CF320FA02F018BF28
:108B680040F001004FEAC1234FEAD32303FA0CFC7B
:108B780040EA0C0023FA02F34FEA4303CCE77FEA0A
:108B8800625307D150EA01331EBF4FF0FE4040F454
:108B98004000704701F0004040F0FE4040F4000003
:108BA800704700BF80F0004002E000BF81F0004144
:108BB80042001FBF5FEA410392EA030F7FEA226C7B
:108BC8007FEA236C6AD04FEA1262D2EB1363C1BF0B
:108BD800D218414048404140B8BF5B42192B88BF7A
:108BE800704710F0004F40F4000020F07F4018BF9D
:108BF800404211F0004F41F4000121F07F4118BFBD
:108C0800494292EA030F3FD0A2F1010241FA03FC64
:108C180010EB0C00C3F1200301FA03F100F000434C
:108C280002D5494260EB4000B0F5000F13D3B0F114
:108C3800807F06D340084FEA310102F10102FE2A83
:108C480051D2B1F1004F40EBC25008BF20F00100F3
:108C580040EA03007047490040EB000010F4000FA1
:108C6800A2F10102EDD1B0FA80FCACF1080CB2EB34
:108C78000C0200FA0CF0AABF00EBC2505242184393
:108C8800BCBFD0401843704792F0000F81F4000138
:108C980006BF80F400000132013BB5E74FEA41030B
:108CA8007FEA226C18BF7FEA236C21D092EA030F77
:108CB80004D092F0000F08BF0846704790EA010FF1
:108CC8001CBF0020704712F07F4F04D1400028BF1E
:108CD80040F00040704712F100723CBF00F5000000
:108CE800704700F0004343F0FE4040F40000704736
:108CF8007FEA226216BF08467FEA236301464202E2
:108D080006BF5FEA412390EA010F40F480007047F4
:108D18004FF0000304E000BF10F0004348BF40429A
:108D28005FEA000C08BF704743F0964301464FF0D6
:108D380000001CE050EA010208BF70474FF0000332
:108D48000AE000BF50EA010208BF704711F0004373
:108D580002D5404261EB41015FEA010C02BF844643
:108D68000146002043F0B64308BFA3F18053A3F5A2
:108D78000003BCFA8CF2083AA3EBC25310DB01FAE9
:108D880002FC634400FA02FCC2F12002BCF1004F6D
:108D980020FA02F243EB020008BF20F001007047FE
:108DA80002F1200201FA02FCC2F1200250EA4C0052
:108DB80021FA02F243EB020008BF20EADC70704798
:108DC8004FF0FF0C1CEAD0521EBF1CEAD15392EAA6
:108DD8000C0F93EA0C0F6FD01A4480EA010C400282
:108DE80018BF5FEA41211ED04FF0006343EA5010DC
:108DF80043EA5111A0FB01310CF00040B1F5000F1E
:108E08003EBF490041EAD3715B0040EA010062F1CC
:108E18007F02FD2A1DD8B3F1004F40EBC25008BFB6
:108E280020F00100704790F0000F0CF0004C08BFD4
:108E380049024CEA502040EA51207F3AC2BFD2F1A1
:108E4800FF0340EAC250704740F400004FF00003AF
:108E5800013A5DDC12F1190FDCBF00F000407047E9
:108E6800C2F10002410021FA02F1C2F1200200FA27
:108E780002FC5FEA310040F1000053EA4C0308BFEE
:108E880020EADC70704792F0000F00F0004C02BF3F
:108E9800400010F4000F013AF9D040EA0C0093F0BA
:108EA800000F01F0004C02BF490011F4000F013B14
:108EB800F9D041EA0C018FE70CEAD15392EA0C0F82
:108EC80018BF93EA0C0F0AD030F0004C18BF31F0ED
:108ED800004CD8D180EA010000F00040704790F0C3
:108EE800000F17BF90F0004F084691F0000F91F067
:108EF800004F14D092EA0C0F01D142020FD193EA2D
:108F08000C0F03D14B0218BF084608D180EA0100B4
:108F180000F0004040F0FE4040F40000704740F090
:108F2800FE4040F4400070474FF0FF0C1CEAD0525E
:108F38001EBF1CEAD15392EA0C0F93EA0C0F69D0BA
:108F4800A2EB030280EA010C49024FEA402037D025
:108F58004FF0805343EA111143EA10130CF000401C
:108F68008B4238BF5B0042F17D024FF4000C8B420C
:108F780024BF5B1A40EA0C00B3EB510F24BFA3EBEC
:108F8800510340EA5C00B3EB910F24BFA3EB9103BC
:108F980040EA9C00B3EBD10F24BFA3EBD10340EA16
:108FA800DC001B0118BF5FEA1C1CE0D1FD2A3FF65C
:108FB80050AF8B4240EBC25008BF20F00100704711
:108FC8000CF0004C4CEA50207F32C2BFD2F1FF03B4
:108FD80040EAC250704740F400004FF00003013AE5
:108FE80037E792F0000F00F0004C02BF400010F489
:108FF800000F013AF9D040EA0C0093F0000F01F09D
:10900800004C02BF490011F4000F013BF9D041EABE
:109018000C0195E70CEAD15392EA0C0F08D14202F1
:109028007FF47DAF93EA0C0F7FF470AF084676E7C4
:1090380093EA0C0F04D14B023FF44CAF08466EE79D
:1090480030F0004C18BF31F0004CCAD130F000426B
:109058007FF45CAF31F000437FF43CAF5FE700BFC3
:109068004FF0FF3C06E000BF4FF0010C02E000BFEC
:109078004FF0010C4DF804CD4FEA40024FEA41038E
:109088007FEA226C18BF7FEA236C11D001B052EA44
:10909800530C18BF90EA010F58BFB2EB030088BF0A
:1090A800C81738BF6FEAE17018BF40F00100704779
:1090B8007FEA226C02D15FEA402C05D17FEA236C5B
:1090C800E4D15FEA412CE1D05DF8040B704700BFA2
:1090D800844608466146FFE70FB5FFF7C9FF002839
:1090E80048BF10F1000F0FBD4DF808EDFFF7F4FF72
:1090F8000CBF012000205DF808FB00BF4DF808ED0B
:10910800FFF7EAFF34BF012000205DF808FB00BF2D
:109118004DF808EDFFF7E0FF94BF012000205DF84F
:1091280008FB00BF4DF808EDFFF7D2FF94BF012000
:1091380000205DF808FB00BF4DF808EDFFF7C8FFF9
:1091480034BF012000205DF808FB00BF4FEA400251
:10915800B2F1FE4F0FD34FF09E03B3EB12620DD95D
:109168004FEA002343F0004310F0004F23FA02F0C7
:1091780018BF404270474FF00000704712F1610F6E
:1091880001D1420205D110F0004008BF6FF0004045
:1091980070474FF00000704742000ED2B2F1FE4F08
:1091A8000BD34FF09E03B3EB126209D44FEA0023AE
:1091B80043F0004323FA02F070474FF00000704775
:1091C80012F1610F01D1420202D14FF0FF30704716
:1091D8004FF00000704700BF53B94AB9002908BFD3
:1091E80000281CBF4FF0FF314FF0FF3000F07AB974
:1091F800ADF1080C6DE904CE00F006F8DDF804E0E6
:10920800DDE9022304B070472DE9F0478C460E468D
:109218000446089D002B50D18A4217466CD9B2FAF1
:1092280082FEBEF1000F0BD0CEF1200C01FA0EF633
:1092380020FA0CFC02FA0EF74CEA060C00FA0EF4BF
:109248003A0CBCFBF2F9BBB202FB19CC09FB03FADE
:109258004FEA144848EA0C46B2450AD9F61909F10A
:10926800FF3180F02581B24540F22281A9F102093F
:109278003E44A6EB0A06B6FBF2F002FB106600FBC2
:1092880003F3A4B244EA0644A34209D9E41900F15D
:10929800FF3280F00B81A34240F2088102383C443F
:1092A8000021E41A40EA0940002D62D0002324FA84
:1092B8000EF42C606B60BDE8F0878B4207D9002D57
:1092C80055D0002185E841000846BDE8F087B3FA8B
:1092D80083F1002940F08F80B34202D3824200F22A
:1092E800FC80841A66EB03060120B446002D40D0AA
:1092F80085E81010BDE8F08712B90127B7FBF2F72F
:10930800B7FA87FEBEF1000F35D10121F61B4FEAEF
:10931800174C1FFA87F8B6FBFCF20CFB126608FB29
:1093280002F0230C43EA0646B04207D9F61902F1C7
:10933800FF3302D2B04200F2D2801A46361AB6FB88
:10934800FCF00CFB106608FB00F8A3B243EA0644E5
:10935800A04507D9E41900F1FF3302D2A04500F275
:10936800B9801846A4EB080440EA02409CE7294665
:109378002846BDE8F08707FA0EF7CEF1200326FA53
:1093880003F24FEA174CB2FBFCF11FFA87F80CFB0B
:10939800112206FA0EF620FA03F301FB08F933430B
:1093A8001E0C46EA0246B14500FA0EF409D9F61930
:1093B80001F1FF3280F08C80B14540F2898002399A
:1093C8003E44A6EB0906B6FBFCF00CFB106200FB62
:1093D80008F99EB246EA0246B14507D9F61900F1E6
:1093E800FF3371D2B1456FD902383E44A6EB090666
:1093F80040EA01418FE7C1F1200722FA07F88B40C4
:1094080048EA030326FA07F44FEA134EB4FBFEF9C1
:109418001FFA83FC0EFB19448E4020FA07F809FB5B
:109428000CFA48EA06084FEA184646EA0444A245F8
:1094380002FA01F200FA01F608D9E41809F1FF303E
:1094480044D2A24542D9A9F102091C44A4EB0A045A
:10945800B4FBFEF00EFB104400FB0CFC1FFA88F86E
:1094680048EA0444A44507D9E41800F1FF3E29D28C
:10947800A44527D902381C4440EA0940A0FB0289C8
:10948800A4EB0C0CCC45C246CE4615D312D055B130
:10949800B6EB0A036CEB0E0606FA07F7CB401F4340
:1094A800CE402F606E600021BDE8F0871046F7E6D9
:1094B8008946DEE64645EAD2B8EB020A69EB030EB6
:1094C8000138E4E77046D7E718468FE78146BDE7DD
:1094D800114676E702383C4444E7084606E7023A74
:1094E8003E442BE7704700BFDFF834D0002103E08B
:1094F8000C4B5B58435004310B480C4B42189A42B2
:10950800F6D30B4A02E0002342F8043B094B9A4287
:10951800F9D300F081FE12F051FB00F024F97047F6
:109528000000012048150208000000206008002003
:1095380060080020AC370020FEE7000008B50346AD
:109548000B4A126842B10A4A106803446A469342B9
:1095580006D8074A136008BD0649054A1160F2E7B4
:1095680012F026FB0C2303604FF0FF3008BD00BF4C
:109578007C080020AC37002008B50548054B03607F
:1095880000F02CFF00B908BD00F009F9FBE700BFA7
:109598002C120020003002400268094B9A4200D089
:1095A800704782B000230193064B1A6B42F4805235
:1095B8001A631B6B03F480530193019B02B0EFE71E
:1095C8000030024000380240F0B58BB0002405940A
:1095D80006940794089409940194384B1A6B42F046
:1095E80004021A631A6B02F004020192019A0294AF
:1095F8001A6B42F080021A631A6B02F08002029220
:10960800029A03941A6B42F001021A631A6B02F071
:1096180001020392039A04941A6B42F002021A633D
:109628001B6B03F002030493049B254F224641F26F
:10963800FF31384601F04CFA224D22464FF6200100
:10964800284601F045FA41F2FF33059301260696B4
:109658000794089405A9384601F0ACF881230593CE
:1096680006940794A7F5006705A9384601F0A2F803
:109678007E2305930694079605A9384601F09AF8C3
:1096880040F20D4305930694079405A9284601F076
:1096980091F84FF62003059306960794089405A9B8
:1096A800284601F087F84FF440730593069407960F
:1096B80005A9284601F07EF80BB0F0BD003802403D
:1096C800000802400004024008B50748074B036041
:1096D8000223436040F6FF73836001F0FFF900B98D
:1096E80008BD00F05CF8FBE73412002000300040B1
:1096F80030B597B0302200210AA812F0C2FA00242F
:10970800059406940794089409940094019402948B
:109718000394049409230A9301230B930F930225BE
:1097280010954FF4800311930C231293F023139395
:109738001495052315930AA801F0E2FE0F2305935B
:1097480006959023079308940994214605A802F0EA
:10975800CDF8042300934FF400730393684602F096
:10976800B5F917B030BD08B500F08CFDFFF7C0FFA4
:10977800FFF72AFF00F014F800F0A4F800F0FEF953
:1097880000F05EF900F014FA00F0B8F9FFF7F4FE03
:10979800FFF79AFF00F0F8FA04F04AFAFCE770477E
:1097A80008B50948094B0360002343607F228260A3
:1097B800FF22C26003614361836102F078FA00B955
:1097C80008BDFFF7ECFFFBE740120020002800402F
:1097D8000268044B9A4200D070470122024B1A607B
:1097E800FAE700BF002800403C0E4742013806282F
:1097F80028D8DFE800F004090E13181D2200124BC8
:109808001B68D3F8C80070470F4B1B68D3F8CC000F
:1098180070470D4B1B68D3F8D00070470A4B1B6884
:10982800D3F8D4007047084B1B68D3F8D8007047AA
:10983800054B1B68D3F8DC007047034B1B68D3F853
:10984800E00070470148704780060020CC100208ED
:1098580082B0002100910B4B5A6C42F480425A644A
:109868005A6C02F480420092009A01911A6C42F0FC
:1098780080521A641B6C03F080530193019B02B061
:10988800704700BF003802407047FEE7FEE7FEE77A
:10989800FEE770477047704708B500F00DFD12F0FD
:1098A8006FF908BD08B50CF0BBFC08BD08B50CF095
:1098B800E3FD08BD08B5024801F0B6F908BD00BFD0
:1098C800941D002000B587B00023029303930493EE
:1098D80005930093019314484FF08042026043605F
:1098E8008360C3600361836102F004FC98B906A930
:1098F8004FF4805341F8103D0B4802F0B7FA68B9AD
:109908000023009301936946074802F00FFD40B910
:1099180007B05DF804FBFFF742FFE8E7FFF73FFFFA
:10992800EEE7FFF73CFFF3E7E012002082B00368A0
:10993800104A934204D0104A93420ED002B07047A6
:10994800002300930D4B5A6C42F001025A645B6C81
:1099580003F001030093009BF0E700230193074BFA
:109968001A6C42F002021A641B6C03F002030193A2
:10997800019BE3E70000014000040040003802407A
:109988000368B3F1804F00D0704782B00023019381
:10999800054B1A6C42F001021A641B6C03F00103B8
:1099A8000193019B02B0EFE70038024000B589B08F
:1099B80000230393049305930693079303681B4AB4
:1099C800934205D01A4A93421AD009B05DF804FBB5
:1099D80000230193174B1A6B42F001021A631B6BA9
:1099E80003F001030193019B4FF480730393022357
:1099F80004930123079303A90F4800F0DBFEE4E773
:109A0800002302930B4B1A6B42F002021A631B6B82
:109A180003F002030293029B022303930493079328
:109A280003A9064800F0C6FECFE700BF00000140CA
:109A380000040040003802400000024000040240D8
:109A480000B591B000230E930F93079308930993E1
:109A58000A930B930C930D93009301930293039332
:109A68000493059306932348234A02600522426023
:109A780083604CF24F32C26003614361836102F03C
:109A880052FB00282AD100230E930F930EA91948E0
:109A980002F04CFC28BB602307930022089209922D
:109AA8000A920B920C920D9207A9124802F084FBBD
:109AB800D0B90023009301930293039304934FF4C6
:109AC80000520592069369460A4802F058FC70B99C
:109AD8000848FFF76BFF11B05DF804FBFFF75FFE66
:109AE800D1E7FFF75CFED6E7FFF759FEE1E7FFF79E
:109AF80056FEEDE7A01200200000014000B58BB033
:109B08000023089309930193029303930493059305
:109B1800069307931748184A02604360836041F62A
:109B28004B52C2600361836102F0FDFAC8B9002399
:109B38000893099308A90F4802F0F8FBA0B960231D
:109B4800019300230293039305930C2201A909486A
:109B580002F032FB58B90748FFF728FF0BB05DF851
:109B680004FBFFF71CFEE2E7FFF719FEE7E7FFF744
:109B780016FEF0E7601200200004004008B50A480D
:109B88000A4B03604FF4E133436000238360C360F2
:109B980003610C2242618361C36102F0AFFD00B929
:109BA80008BDFFF7FCFDFBE7601300200010014033
:109BB80008B50A480A4B03604FF4E13343600023B9
:109BC8008360C36003610C2242618361C36102F058
:109BD80095FD00B908BDFFF7E2FDFBE72013002063
:109BE8000048004010B58AB00023059306930793F8
:109BF800089309930368314A934204D0304A934248
:109C08002ED00AB010BD002401942E4B5A6C42F09D
:109C180010025A645A6C02F010020192019A0294DE
:109C28001A6B42F002021A631B6B03F002030293E1
:109C3800029BC02305930223069301230793032362
:109C480008930723099305A91F4800F0B3FD22468E
:109C58002146252000F062FB252000F08FFBD0E78D
:109C680000240394174B1A6C42F480221A641A6C6D
:109C780002F480220392039A04941A6B42F00402BD
:109C88001A631B6B03F004030493049B4FF44063B3
:109C980005930223069301230793032308930723BD
:109CA800099305A9094800F085FD22462146272089
:109CB80000F034FB272000F061FBA2E70010014010
:109CC80000480040003802400004024000080240FA
:109CD80008B50368114A934203D0114A93420ED043
:109CE80008BD02F59432536C23F010035364C0216D
:109CF8000C4800F04BFE252000F04CFB08BD02F597
:109D0800F832136C23F4802313644FF4406106483F
:109D180000F03CFE272000F03DFBE1E70010014089
:109D280000480040000402400008024010B5044604
:109D3800134802F012FD012C14D0022C17D04FF456
:109D4800E1320F4B5A600E480E4B036000238360CC
:109D5800C36003610C2242618361C36102F0CEFCDF
:109D680050B910BD4FF49642054B5A60EBE74FF4DB
:109D78001652034B5A60E6E7FFF711FDF1E700BF03
:109D8800601300200010014008B500220F49104858
:109D980003F0BCFA70B90F490D4803F0CEFA60B968
:109DA8000D490B4803F084FA50B9094803F0CCFA7E
:109DB80048B908BDFFF7F3FCEDE7FFF7F0FCEFE764
:109DC800FFF7EDFCF1E7FFF7EAFCF2E718000020E7
:109DD800A01300206C00002008000020002070471D
:109DE800202803D0212814D000207047114A487831
:109DF8008B781B0443EA002308780343C87843EAB6
:109E0800006313600B7913714B7953718B799371DC
:109E1800EAE7084B1A680A701A68120A4A705A88E0
:109E28008A70DA78CA701A790A715A794A719B79F4
:109E38008B71D9E70000002038B5054609780CF089
:109E48000BFC054C2946204603F041FA204603F056
:109E580044FA002038BD00BFA013002010B5064CFE
:109E680000220649204603F02AFA0549204603F055
:109E78002EFA002010BD00BFA0130020AC1900204E
:109E8800C41500200368B3F1A04F00D0704770B527
:109E980088B0002501951D4C236B43F00103236313
:109EA800236B03F001030193019B4FF400730393A9
:109EB80004950595164E03A9304600F07BFC4FF437
:109EC800E0530393022304930595032306930A237F
:109ED800079303A9304600F06DFC636B43F08003E1
:109EE80063630295636C43F480436364636C03F4B7
:109EF80080430293029B2A462946432000F00EFA2B
:109F0800432000F03BFA08B070BD00BF00380240A3
:109F18000000024008B500F56D71D0F8E40303F0C5
:109F28002CFA08BD08B5C1EBC10300EB8303D3F8D5
:109F3800FC21D0F8E40303F04DFA08BD08B5C1EBE5
:109F4800C10300EB8303DA6BD0F8E40303F077FA7C
:109F580008BD08B5D0F8E40303F0FBFA08BD10B556
:109F68000446C3682BB1022B0DD0FFF718FC012162
:109F780000E00021D4F8E40303F0D9FAD4F8E403AC
:109F880003F0B6FA10BD0121F4E7000010B504464D
:109F9800D0F8E40303F0CEFA2268D2F8003E43F08A
:109FA8000103C2F8003E236A23B1034A136943F050
:109FB8000603136110BD00BF00ED00E008B5D0F83E
:109FC800E40303F0C0FA08BD08B5D0F8E40303F0D1
:109FD800D0FA08BD08B5D0F8E40303F0C8FA08BD04
:109FE80008B5D0F8E40303F0C6FA08BD08B5D0F800
:109FF800E40303F0C2FA08BD03780BB100207047F0
:10A0080010B503461448C0F8E433C3F820024FF0F3
:10A01800A0430360042343600222C260002303615B
:10A028008261C36103624362836200F082FD80B98A
:10A03800094C8021204601F05EFA4022002120468A
:10A0480001F034FA80220121204601F02FFA002085
:10A0580010BDFFF7A4FBEBE7941D0020D0F82022E9
:10A0680011F0800F08D101F07F01C1EBC10102EBB3
:10A07800810191F8F201704701F07F03C3EBC3033C
:10A0880002EB830393F83200704708B5D0F820023A
:10A0980001F07CF908BD20B102280CBF0120022084
:10A0A80070470020704708B5D0F8200200F0A7FDDF
:10A0B800FFF7F1FF08BD10B51C4613462246D0F83D
:10A0C800200201F0D1F8FFF7E6FF10BD08B5D0F87F
:10A0D800200201F00AF9FFF7DEFF08BD08B5D0F845
:10A0E800200201F085F9FFF7D6FF08BD08B5D0F8C2
:10A0F800200201F0B0F9FFF7CEFF08BD08B5D0F88F
:10A10800200201F09FF8FFF7C6FF08BD08B5D0F898
:10A11800200201F044F9FFF7BEFF08BD08B5D0F8EA
:10A12800200201F006F9FFF7B6FF08BD12230B80E5
:10A13800004870473400002004230B800048704713
:10A1480048000020A2B110B44C1C531EDBB201EB36
:10A15800430103310022030F092B94BF30333733F7
:10A1680004F8013C000104F8022B8C42F3D110BC26
:10A178007047000038B51A230B800B4B186808335A
:10A188001B68C01801D1094838BD094B1D68074C28
:10A198000822A11CFFF7D6FF042204F11201284669
:10A1A800FFF7D0FFEFE700BF107AFF1F4C00002039
:10A1B800147AFF1F08B50A460249034803F01DFC3C
:10A1C800004808BD7C21002028E1010810B5044C96
:10A1D8000A462146034803F010FC204610BD00BF84
:10A1E8007C21002014E1010808B50A460249034809
:10A1F80003F003FC004808BD7C210020F8E00108BA
:10A2080008B50A460249034803F0F7FB004808BDB1
:10A218007C21002004E101080B4B1A6842F001027E
:10A228001A60002199601A6822F0847222F4803240
:10A238001A60064A5A601A6822F480221A60D960A5
:10A24800034A044B9A6070470038024010300024DB
:10A258000080000800ED00E010B50446074B1868C0
:10A26800074BA3FB0030800900F0A2F8002221462A
:10A278004FF0FF3000F052F8002010BD68000020B9
:10A28800D34D621008B50B4B1A6842F400721A607D
:10A298001A6842F480621A601A6842F480721A607E
:10A2A800032000F029F80020FFF7D6FFFFF7D0FAC7
:10A2B800002008BD003C0240024A136801331360C5
:10A2C800704700BF7C230020014B1868704700BF0F
:10A2D8007C23002030B583B00190FFF7F5FF0546D9
:10A2E800019CB4F1FF3F18BF0134FFF7EDFF401B9D
:10A2F800A042FAD303B030BD074AD36823F4E06321
:10A308001B041B0C43F0BF6343F40033000200F44A
:10A31800E0600343D360704700ED00E030B4154BB4
:10A32800DC68C4F30224C4F10703042B28BF042308
:10A33800251D062D8CBFE51E0025012404FA03F314
:10A34800013B1940A940AC40013C22401143002880
:10A3580009DB0901C9B200F1604000F5614080F8ED
:10A36800001330BC704700F00F000901C9B2024B5E
:10A378001954F6E700ED00E014ED00E0420900F0A2
:10A388001F00012303FA00F0014B43F82200704735
:10A3980000E100E0430900F01F00012202FA00F08A
:10A3A8002033024A42F82300704700BF00E100E072
:10A3B8000138B0F1807F0AD2064B5860F021064A76
:10A3C80082F823100020986007221A607047012045
:10A3D800704700BF10E000E000ED00E068B110B584
:10A3E800044643792BB10223637101236371002072
:10A3F80010BD0371FFF7D0F8F5E7012070470000A2
:10A4080010B408490C6924F440740C610C6944F4D4
:10A4180040740C610C6944F001040C6102604360F3
:10A4280010BC7047003C0240074B1A6922F4407286
:10A438001A611A6942F400721A611A6942F001023B
:10A448001A610160704700BF003C0240074B1A695F
:10A4580022F440721A611A6942F480721A611A6908
:10A4680042F001021A610180704700BF003C0240BF
:10A47800204BDB6813F0100F07D01F4AD36943F055
:10A488000803D36110221B4BDA601A4BDB6813F008
:10A49800200F07D0184AD36943F00403D361202260
:10A4A800144BDA60134BDB6813F0400F07D0124AE5
:10A4B800D36943F00203D36140220E4BDA600D4B9F
:10A4C800DB6813F0800F07D00B4AD36943F0010310
:10A4D800D3618022074BDA60064BDB6813F0020F6A
:10A4E80007D0054AD36943F01003D3610222014B18
:10A4F800DA607047003C024080230020064B1B694D
:10A50800002B01DB01207047034B044A5A6002F11B
:10A5180088325A6000207047003C0240230167459A
:10A52800034A136943F0004313610020704700BFDA
:10A53800003C024070B504460022154BDA61FFF773
:10A54800C3FE0646134DEB6813F4803F0AD0B4F1FE
:10A55800FF3FF8D0CCB1FFF7B7FE801B8442F2D2A0
:10A56800032070BD0B4BDB6813F0010F02D00122F2
:10A57800084BDA60074BDB6813F0F20F01D10020BB
:10A5880070BDFFF775FF012070BD032070BD00BFCF
:10A5980080230020003C02402DE9F041224C247E1B
:10A5A800012C03D102242046BDE8F08198461746C5
:10A5B8000E46054601221C4B1A764CF25030FFF726
:10A5C800B9FF044698B9B5B1012D22D0022D25D086
:10A5D8003A4643463046FFF713FF4CF25030FFF738
:10A5E800A9FF0446114A136923F0010313610022ED
:10A5F8000D4B1A76D7E7FAB20C4B196921F4407162
:10A60800196119691961196941F0010119613270FB
:10A61800E3E7B9B23046FFF719FFDEE739463046BF
:10A62800FFF702FFD9E700BF80230020003C02406B
:10A63800074B1A6922F440721A611A6942F004023F
:10A648001A611A6942F4803242EA002018617047A0
:10A65800003C024019B3012923D002290CBF4FF452
:10A6680000714FF44071104B1A6922F440721A615C
:10A678001A690A431A611A6922F0F8021A61F82263
:10A6880092FAA2F2B2FA82F21969904041F00202FB
:10A69800104318611A6942F480321A617047002128
:10A6A800E1E74FF48071DEE7003C0240164B1B687F
:10A6B80013F4007F10D0144B1A6822F400721A6049
:10A6C8001A6842F400621A601A6822F400621A607A
:10A6D8001A6842F400721A600B4B1B6813F4806FFF
:10A6E80010D0094B1A6822F480621A601A6842F482
:10A6F80080521A601A6822F480521A601A6842F46A
:10A7080080621A60704700BF003C02402DE9F843A0
:10A71800264B1B7E012B04D14FF002094846BDE8A9
:10A72800F8830F4604460122204B1A764CF250302B
:10A73800FFF700FF8146002833D14FF0FF333B601D
:10A748002368012B1BD0A568E3682B449D4226D2C1
:10A758004CF25038164E217C2846FFF77BFF4046C6
:10A76800FFF7E8FE336923F0FA0333618146A8B99D
:10A778000135E368A2681344AB42ECD80FE0616886
:10A78800207CFFF755FF4CF25030FFF7D3FE81468F
:10A79800074A136923F00403136100E03D60FFF7E3
:10A7A80085FF0022014B1A76B8E700BF80230020FE
:10A7B800003C02402DE9F04F83B000256D4FDFF8D3
:10A7C800C0E16D4EDFF8BC91DFF8BCA157E0EC08A2
:10A7D80000EB8404D4F820C005F007024FEA820B8E
:10A7E8000F2202FA0BF22CEA020C0A6902FA0BF2A7
:10A7F80042EA0C0222624EE0846802EA040BCC684A
:10A8080004FA0CF444EA0B048460446824EA030B59
:10A818004C68C4F30013AB4043EA0B03436051E0B8
:10A82800002202FA0BF242EA0C029A6033686FEADD
:10A8380008044A6812F4803F0CBF234048EA030327
:10A84800336073684A6812F4003F0CBF234048EA3B
:10A8580003037360B2684B6813F4801F0CBF224077
:10A8680048EA0202B260F3684A6812F4001F0CBF9B
:10A87800234048EA0303F3600135102D76D0012305
:10A88800AB400A6803EA02084345F5D14A6822F05A
:10A898001002022A9BD004684FEA450C032202FAF0
:10A8A8000CF2D24304EA020B4C6804F0030404FAE5
:10A8B8000CF444EA0B0404604C6824F01004013CD6
:10A8C800012C99D9C3681A408B6803FA0CF3134317
:10A8D800C3604B6813F0805FCED0002301937B6C7C
:10A8E80043F480437B647B6C03F480430193019BB6
:10A8F80025F0030303F1804303F59C339C6805F0BE
:10A9080003024FEA820B0F2202FA0BF224EA020C2E
:10A91800704585D048451BD050451BD0174A9042FA
:10A928001AD002F58062904218D002F580629042F7
:10A9380016D002F58062904214D002F580629042EF
:10A9480012D002F5806290420CBF0822092268E703
:10A95800012266E7022264E7032262E7042260E735
:10A9680005225EE706225CE707225AE703B0BDE846
:10A97800F08F00BF00380240003C0140000C02404C
:10A988000000024000040240000802402DE9F04F98
:10A998000022DFF82091DFF82081DFF820A1DFF81E
:10A9A80020B107E0002606FA04F4A64564D0013277
:10A9B800102A7BD00123934003EA0105AB42F6D16C
:10A9C800066857000324BC40E443264006604FEA6B
:10A9D800D20E00EB8E0EDEF820C002F00706B6009D
:10A9E8000F2707FA06F62CEA0606CEF820608668D6
:10A9F80026408660466826EA03034360C3681C4015
:10AA0800C46022F0030303F1804303F59C339E687E
:10AA180002F00304A400A74006EA070E4845C1D087
:10AA280050451BD058451BD0214EB0421AD006F5D0
:10AA38008066B04218D006F58066B04216D006F59A
:10AA48008066B04214D006F58066B04212D006F592
:10AA58008066B0420CBF08260926A4E70126A2E7B3
:10AA68000226A0E703269EE704269CE705269AE728
:10AA7800062698E7072696E79C6824EA07079F605A
:10AA8800D8F80030ED432B40C8F80030D8F804302F
:10AA98002B40C8F80430D8F808302B40C8F80830E4
:10AAA800D8F80C301D40C8F80C5080E7BDE8F08F8E
:10AAB800000C024000000240003C0140000402403B
:10AAC800000802400369194214BF012000207047A2
:10AAD80012B90904816170478161704708B338B5BC
:10AAE800044603684CF6CC421A60036845F2555296
:10AAF8001A60036842685A60036882689A60FFF7C0
:10AB0800E3FB05462368DA6832B1FFF7DDFB401B3B
:10AB18003028F7D9032038BD4AF6AA221A60002047
:10AB280038BD0120704703684AF6AA221A6000203F
:10AB38007047002861D0F0B589B00546032380F836
:10AB4800B133FFF79FF9286801F05EFE2C4654F8F0
:10AB5800107B6E460FCC0FC694E80F0086E80F00F6
:10AB68002B1D0ECB384601F00BFE0021286801F0A2
:10AB780051FE2B462A46002101200C4682F831005E
:10AB880082F83010D18682F833409463D4635464D9
:10AB980001311C320F29F1D100210A4683F8F12135
:10ABA80083F8F011D98683F8F321C3F8F821C3F8A4
:10ABB800FC21C3F804222C6801F1400004EB800456
:10ABC800626001311C330F29E8D12C4654F8107B00
:10ABD8006E460FCC0FC694E80F0086E80F002B1DB9
:10ABE8000ECB384601F02CFE012385F8B1332868D6
:10ABF80002F0D7F9002009B0F0BD0120704790F8A5
:10AC0800B033012B01D10220704710B5044601234F
:10AC180080F8B033006802F0B8F9206801F0EEFD62
:10AC2800002084F8B00310BD2DE9F04F89B0044628
:10AC3800D0F80080404602F0EFF910B109B0BDE845
:10AC4800F08F8146206802F0B8F90028F6D0206815
:10AC580002F0B3F910F0020F02D0236802225A6101
:10AC6800206802F0AAF910F4002F75D1CA462068AE
:10AC780002F0A3F910F4802F40F0C980206802F098
:10AC88009CF90028C0F28081206802F096F910F43F
:10AC9800006F09D0D8F8083813F0010F40F082810E
:10ACA80023684FF400625A61206802F086F910F4B4
:10ACB800805F40F07B81206802F07FF910F4005F2C
:10ACC80040F0B981206802F078F910F0100F15D023
:10ACD8002268936923F010039361D8F8205005F097
:10ACE8000F06C5F34343022B00F03482062B00F015
:10ACF80051822268936943F010039361206802F03F
:10AD08005CF910F0080F40F05782206802F055F9FE
:10AD180010F4801F40F05782206802F04EF910F4BA
:10AD2800001F40F05A82206802F047F910F0804F67
:10AD380040F05D82206802F040F910F0040F3FF403
:10AD48007DAF23685D6815F0040F40F058822368D2
:10AD58005A6815435D6071E7206802F032F90546CC
:10AD6800002852D008F530662746CA46CDF8088034
:10AD78001BE0D7F8F8213369C3F31203D31AC7F8D5
:10AD88000832D7F8FC311344C7F8FC311FE018F03B
:10AD9800080F31D118F0100F1CBF1023B3600AF14F
:10ADA800010A20361C376D082CD015F0010FF6D09B
:10ADB8005FFA8AFB5946206802F013F9804610F0C2
:10ADC800010FE4D00123B3602369012BD1D0594688
:10ADD8002046FFF7A7F82369012BD8D1BAF1000F55
:10ADE800D5D1D4F80432002BD1D104F56D720121EC
:10ADF800206802F031F9CAE72046FFF78BF80823EC
:10AE0800B360C7E7DDF8088031E782462FE720689E
:10AE180002F0DFF88346002800F0B480CDF81480F3
:10AE280008F51067CA46CDF81880A046CDF81C90E2
:10AE380026E0D8F83C30D8F838201344C8F83C301D
:10AE48003CE015F0080F1CBF0823BB6015F0100F7D
:10AE58001CBF1023BB6015F0400F1CBF4023BB6014
:10AE680015F0020F1CBF0223BB6015F0800F39D10B
:10AE78000AF1010A08F11C0820375FEA5B0B7CD055
:10AE88001BF0010FF4D05FFA8AF302931946206889
:10AE980002F0B1F8054610F0010FD2D0059B03F57A
:10AEA8000062D3F83438012101FA0AF123EA0103D8
:10AEB80053630123BB602369012BBAD00299204652
:10AEC800FFF73CF82369012BBBD1BAF1000FB8D1C9
:10AED800636C002BB5D104F56D720121206802F076
:10AEE800BBF8AEE72368184604934646D8F84450A2
:10AEF800D8F84820AB1AD8F838108B4228BF0B4630
:10AF0800039300F5106909EB4A19D9F818100333AF
:10AF180089B2B1EB930F22D9954220D9FDB1AD1A70
:10AF2800B36B9D4228BF1D460395237C0093ABB2AB
:10AF3800029AF16B049801F099FFF36B2B44F363C9
:10AF4800B26C2A44B264D9F8183003359BB2B3EB1B
:10AF5800950F04D9756C954201D9002DDFD1039B5B
:10AF6800002B85D1049BD3F83428012101FA0AF17A
:10AF780022EA0102C3F834287AE7DDF81880DDF800
:10AF88001C907BE6824679E6D8F8043823F0010362
:10AF9800C8F804382046FFF711F823684FF000423C
:10AFA8005A6171E62046FEF7F1FF79E608F500657B
:10AFB8006B6823F001036B601021206801F0ECFC42
:10AFC80063685BB108F51063FF229A60C3F8082232
:10AFD80009F10109203361684945F6D84FF0FF337C
:10AFE800AB61EB6943F00113EB61A36AD3B1D5F808
:10AFF800843043F00B03C5F884306B6C43F00B03CB
:10B008006B64D8F8003823F4FE63C8F8003804F5F8
:10B018006D72217C206802F01FF823684FF480527B
:10B028005A6148E66B6943F00B036B612B6943F087
:10B038000B032B61E5E7206801F0F2FF2268D36873
:10B0480023F47053D360206801F0CFFC88B9002343
:10B05800E3604FF4007363612268D36843F41053CC
:10B06800D3602046FEF77BFF23684FF400525A61F5
:10B0780028E60323E3604023636100F0F1FC624BA0
:10B088000344624A934205D82268D36843F4705354
:10B09800D360E6E75E4B03445E4A934205D82268D4
:10B0A800D36843F46053D360DBE7A0F57403A3F5DA
:10B0B8001053594A934205D82268D36843F4505331
:10B0C800D360CEE7A0F18373A3F5E743534A9342D5
:10B0D80005D82268D36843F44053D360C1E7504B86
:10B0E8000344504A934205D82268D36843F4305346
:10B0F800D360B6E74C4B03444C4A934205D82268C8
:10B10800D36843F42053D360ABE7494B0344494A1F
:10B11800934205D82268D36843F41053D360A0E75C
:10B12800A0F1B773A3F55853434A934205D8226850
:10B13800D36843F40053D36093E7404B0344404A39
:10B1480093422268D36894BF43F4E05343F4C05356
:10B15800D36086E747F6F0731D423FF4CAAD2D0968
:10B168004FEAC609A9EB060704EB8707C5F30A02ED
:10B17800D7F8FC11404601F08EFEC5F30A05D7F852
:10B18800FC312B44C7F8FC31D7F808321D44C7F806
:10B198000852AEE5082204F56D71404601F07BFEC9
:10B1A800F200911B04EB8101C5F30A13D1F80822C0
:10B1B8001344C1F808329CE52046FEF7CAFE23680E
:10B1C80008225A61A1E55FFA8AF12046FEF702FFDC
:10B1D80023684FF480125A619EE55FFA8AF120468F
:10B1E800FEF7F2FE23684FF400125A619BE52046F1
:10B1F800FEF7F6FE23684FF080425A619AE5204632
:10B20800FEF7F4FEA3E500BF405327FFFF340C0010
:10B21800401E1BFF3F420F007F4F12001FD6130036
:10B2280060B6E5FE5FE3160000D3CEFE3F771B0055
:10B23800C05BB3FEBF9121001F753800E05459FE72
:10B24800DF9C410090F8B033012B01D102207047F8
:10B2580010B50446012380F8B033006801F085FE7C
:10B26800002084F8B00310BDF8B511F0800F1DD18F
:10B2780001F07F04E500291B00EB810101F5F8715D
:10B288002E1B00EB860686F8F041002786F8F17140
:10B29800C6F8F82186F8F331022B04BF00230B719E
:10B2A80090F8B033012B15D10220F8BD01F07F04CE
:10B2B800E500291B00EB810130312E1B00EB8606CF
:10B2C80086F83040012786F83170B26386F833304B
:10B2D800F486E1E70446012380F8B033006801F002
:10B2E800A3FB002084F8B003F8BD4AB2002A01F09D
:10B2F8007F03C3EBC30300EB8303B4BF303303F511
:10B30800F87301F07F011970D20F5A7090F8B023CA
:10B31800012A01D10220704710B50446012280F8A5
:10B32800B0231946006801F0C4FB002084F8B0037C
:10B3380010BD38B501F07F05EC00611B00EB810101
:10B3480001F5F871641B00EB8404C4F8FC21C4F80F
:10B3580004320023C4F8083284F8F13184F8F0513B
:10B368000369012B06D065B1DAB2006801F0DEFB93
:10B37800002038BDC5EBC50400EB8404C4F80022E6
:10B38800F1E7DAB2006801F0D7FCF1E701F00F014C
:10B39800C1EBC10100EB8101B1F80802704738B573
:10B3A80001F07F05EC00611B00EB81013031641B6B
:10B3B80000EB8404E26363640023A364012384F83C
:10B3C800313084F830500369012B06D05DB1DAB210
:10B3D800006801F0ABFB002038BDC5EBC50400EBED
:10B3E80084042264F2E7DAB2006801F0A5FCF2E70F
:10B3F80038B54AB2002A12DBC1EBC10300EB830364
:10B4080003F5F87301249C7001F07F041C70D20FBF
:10B418005A7090F8B023012A09D1022038BD01F0F2
:10B428007F03C3EBC30300EB83033033EAE705462E
:10B43800012280F8B0231946006801F041FD1CB1D3
:10B44800002085F8B00338BD05F56D72297C2868A1
:10B4580001F002FEF4E710B54AB2002A12DBC1EB94
:10B46800C10300EB830303F5F87300249C7001F01B
:10B478007F011970D20F5A7090F8B023012A09D1B0
:10B48800022010BD01F07F03C3EBC30300EB83036D
:10B498003033EAE70446012280F8B02319460068F1
:10B4A80001F036FD002084F8B00310BD30B4056803
:10B4B8006C6AE1B10B46A96A04EB1144591E0029D4
:10B4C8000CDD00231846403305EB83035B6804EB6F
:10B4D80013440130C0B203468842F4DB44EA024414
:10B4E800403105EB81056C60002030BC704744EAB0
:10B4F8000244AC62F8E70368596200207047000014
:10B50800002800F09481F0B583B00446036813F076
:10B51800010F2ED0A24B9B6803F00C03042B1FD005
:10B528009F4B9B6803F00C03082B14D022799D4B8A
:10B538001A706368002B40D0FEF7C6FE0646984D89
:10B548002B6813F4003F14D1FEF7BEFE801B64285D
:10B55800F6D9032070E1924B5B6813F4800FE5D0B5
:10B568008F4B1B6813F4003F03D06368002B00F077
:10B578006081236813F0020F4AD0894B9B6813F04F
:10B588000C0F2ED0864B9B6803F00C03082B23D09E
:10B59800E368002B62D00122834B1A60FEF794FE09
:10B5A80006467F4D2B6813F0020F49D1FEF78CFE3B
:10B5B800801B0228F6D903203EE1FEF785FE0646E9
:10B5C800774D2B6813F4003FD3D0FEF77DFE801B28
:10B5D8006428F6D903202FE1714B5B6813F4800FC0
:10B5E800D6D16F4B1B6813F0020F04D0E368012B10
:10B5F80001D0012020E16A480168F82393FAA3F3F7
:10B60800B3FA83F22369934021F0F80213430360ED
:10B61800236813F0080F45D063698BB30122634B8D
:10B628001A60FEF751FE06465D4D6B6F13F0020F70
:10B6380038D1FEF749FE801B0228F6D90320FBE02B
:10B6480057480168F82393FAA3F3B3FA83F22369FE
:10B65800934021F0F80213430360D9E70022524BCC
:10B668001A60FEF731FE06464D4D2B6813F0020FA7
:10B67800CED0FEF729FE801B0228F6D90320DBE096
:10B6880000224A4B1A60FEF71FFE0646444D6B6FB8
:10B6980013F0020F06D0FEF717FE801B0228F6D91A
:10B6A8000320C9E0236813F0040F1FD1A369002BFE
:10B6B80000F0C1803A4A926802F00C02082A00F0B1
:10B6C800BD80022B59D00022394B1A60FEF7FCFDD1
:10B6D8000546334C236813F0007F00F0A680FEF780
:10B6E800F3FD401B6428F5D90320A5E0002301934E
:10B6F8002B4B1A6C42F080521A641B6C03F0805377
:10B708000193019B2B4A136843F480731360FEF77F
:10B71800DBFD0646274D2B6813F4807F06D1FEF724
:10B72800D3FD801B0228F6D9032085E0227A224B1C
:10B738001A70A36883B1FEF7C7FD0746184D41F29A
:10B7480088362B6F13F0020FB0D1FEF7BDFDC01B7A
:10B75800B042F6D903206FE0FEF7B6FD0746104D5C
:10B7680041F288362B6F13F0020F9FD0FEF7ACFD25
:10B77800C01BB042F6D903205EE000220C4B1A60D1
:10B78800FEF7A2FD0646064D2B6813F0007F15D084
:10B79800FEF79AFD801B6428F6D903204CE000BF11
:10B7A800003802400238024000004742800E4742FB
:10B7B80060004742007000407038024047F6C0758C
:10B7C80095FAA5F5B5FA85F54FF4403292FAA2F24A
:10B7D800B2FA82F04FF0706191FAA1F1B1FA81F1F9
:10B7E800E369226A1343626AAA401343A26A5208B1
:10B7F800013A82401343E26A02FA01F10B43104A0C
:10B80800536001220F4B1A60FEF75EFD05460C4C93
:10B81800236813F0007F06D1FEF756FD401B64280D
:10B82800F6D9032008E0002006E0002004E001200B
:10B838007047012000E0002003B0F0BD0120FBE7C5
:10B848000038024060004742F8B5254B9B6803F07A
:10B858000C03042B03D0082B03D02248F8BD224840
:10B86800F8BD1F4B5A6802F03F025B6813F4800F63
:10B8780012D01B4B5968C1F3881100231A48A1FB49
:10B888000001FDF7A9FC164B5B68C3F301430133C4
:10B898005B00B0FBF3F0F8BD114B5B68C3F3881392
:10B8A8001E4600275C010025E41A65EB0705A9017F
:10B8B80041EA9461A001001B61EB0501CB0043EA5A
:10B8C8005073C400A01943EB07018B0243EA90535D
:10B8D8008402204619460023FDF77EFCD3E700BF0B
:10B8E800003802400024F400001BB700002800F0D4
:10B8F800AA802DE9F0410446554B1B6803F00F035D
:10B908008B420AD2CBB2524A1370136803F00F036A
:10B91800994202D00120BDE8F081236813F0020F9C
:10B9280017D013F0040F04D04A4A936843F4E05345
:10B938009360236813F0080F04D0464A936843F4D1
:10B9480060439360434A936823F0F003A06803437D
:10B9580093600D46236813F0010F35D06268012A01
:10B9680022D0022A28D03B4B1B6813F0020F6CD060
:10B9780038498B6823F0030313438B60FEF7A4FC5C
:10B988008046344E41F28837B36803F00C0362688E
:10B99800B3EB820F18D0FEF797FCA0EB0800B84273
:10B9A800F2D90320BDE8F0812A4B1B6813F4003F4D
:10B9B800DED10120BDE8F081264B1B6813F0007F23
:10B9C800D6D10120BDE8F081214B1B6803F00F039D
:10B9D8009D420AD2EAB21E4B1A701B6803F00F038D
:10B9E8009D4202D00120BDE8F081236813F0040FC6
:10B9F80006D0184A936823F4E053E1680B43936038
:10BA0800236813F0080F07D0124A9368216923F4BA
:10BA1800604343EAC1039360FFF716FF0D4B9B6831
:10BA2800F02292FAA2F2B2FA82F203F0F003D340C3
:10BA3800094AD35CD840094B18600020FEF70CFC7B
:10BA48000020BDE8F081012070470120BDE8F081A9
:10BA5800003C02400038024040E101086800002034
:10BA6800014B1868704700BF68000020084B9B68AE
:10BA78004FF4E05292FAA2F2B2FA82F203F4E053DF
:10BA8800D340044AD35C044A1068D840704700BFCA
:10BA98000038024050E1010868000020084B9B680C
:10BAA8004FF4604292FAA2F2B2FA82F203F46043CF
:10BAB800D340044AD35C044A1068D840704700BF9A
:10BAC8000038024050E1010868000020F0B583B05A
:10BAD8000646036813F0010F08D1082B06D0336817
:10BAE80013F0040F3BD1002003B0F0BD0022504BEF
:10BAF8001A60FEF7E9FB05464E4C236813F0006F09
:10BB080006D0FEF7E1FB401B0228F6D90320EBE73D
:10BB180047F6C07393FAA3F3B3FA83F14FF0E04208
:10BB280092FAA2F2B2FA82F273688B40B16801FA13
:10BB380002F213433F4AC2F8843001223C4B1A6098
:10BB4800FEF7C2FB05463B4C236813F0006FC6D1D5
:10BB5800FEF7BAFB401B0228F6D90320C4E70023EE
:10BB68000193344B1A6C42F080521A641B6C03F038
:10BB780080530193019B304A136843F48073136028
:10BB8800FEF7A2FB05462C4C236813F4807F06D1F0
:10BB9800FEF79AFB401B0228F6D90320A4E7254BA1
:10BBA8001B6F13F4407312D0F26802F44072934290
:10BBB8000DD0204B1A6F22F44072204901200860F2
:10BBC800002008601A671B6F13F0010F13D1F36888
:10BBD80003F44072B2F5407F1ED0164A936823F4EE
:10BBE800F8139360134A116FF368C3F30B030B4305
:10BBF8001367002078E7FEF767FB07460D4C41F214
:10BC08008835236F13F0020FE1D1FEF75DFBC01BEF
:10BC1800A842F6D9032067E706498A6822F4F81291
:10BC280023F0704323F4407313438B60DAE700BFBB
:10BC3800680047420038024000700040400E47420A
:10BC480038B504460268D36823F0A003D360FEF732
:10BC58003BFB05462368DB6813F0200F07D1FEF78E
:10BC680033FB401BB0F57A7FF4D9032038BD0020A0
:10BC780038BD38B50368DA6812F0400F01D00020EB
:10BC880038BD04464FF0FF32DA60FEF71DFB05466B
:10BC98002368DB6813F0400F07D1FEF715FB401B44
:10BCA800B0F57A7FF4D9032038BD002038BD0028CC
:10BCB80055D010B50446437F9BB1022363772368B0
:10BCC800CA225A62236853225A622046FFF7D1FFDC
:10BCD80058B12368FF225A62042363770123184668
:10BCE80010BD0377FDF774FDE7E72268936823F436
:10BCF800E00323F040039360226891686368206939
:10BD08000343606903430B4393602368E2681A6145
:10BD180022681369A16843EA014313612268D36862
:10BD280023F08003D3602046FFF78AFF034678B9E3
:10BD380021680A6C22F480220A6421680A6CA069CE
:10BD480002430A642268FF21516201226277C6E732
:10BD58002368FF225A62042363770123BFE7012384
:10BD68001846704770B4036A23F001030362036A3C
:10BD78004468826922F073020D682A4323F00203A3
:10BD88008D682B430C4DA84203D005F58065A84269
:10BD98000BD123F00803CD682B4323F0040324F4CC
:10BDA80040744D698E6935432C43446082614A680A
:10BDB8004263036270BC70470000014070B4036ABC
:10BDC80023F480730362036A4468C26922F0730231
:10BDD8000D682A4323F400738D6843EA05230E4D4A
:10BDE800A84203D005F58065A8420DD123F400636D
:10BDF800CD6843EA052323F4806324F440544D6955
:10BE08008E69354344EA05144460C2614A68C263D6
:10BE1800036270BC704700BF0000014030B4036A81
:10BE280023F480530362036A4468C26922F4E64239
:10BE38000D6842EA052223F400538D6843EA05336E
:10BE4800094DA84203D005F58065A84204D124F421
:10BE580080444D6944EA85144460C2614A680264BA
:10BE6800036230BC704700BF0000014090F83C30CE
:10BE7800012B00F0CB8070B4012380F83C30022302
:10BE880080F83D300268936823F47F4323F07703FA
:10BE980093600B68402B00F08F8021D9702B5FD006
:10BEA80038D8502B6ED0602B51D103684D68CE68BE
:10BEB8001C6A24F010041C6299691A6A21F4704102
:10BEC80041EA063122F0A00242EA051299611A629B
:10BED8000268936823F0700343F06703936036E0C9
:10BEE800102B00F083800CD9202B00F08780302B9A
:10BEF8002DD10268936823F0700343F037039360F1
:10BF080025E023BB0268936823F0700343F007031E
:10BF180093601CE0B3F5805F14D0B3F5005F16D1D1
:10BF28000468A26822F47F428B684D682B43C96875
:10BF380043EA01231343A3600268936843F48043F0
:10BF4800936004E00268936823F007039360012379
:10BF580080F83D30002380F83C30184670BC7047AC
:10BF68000468A26822F47F428B684D682B43C96835
:10BF780043EA01231343A3600268936843F07703FD
:10BF88009360E4E703684C68CE68196A1D6A25F077
:10BF980001051D629A6922F0F00242EA061221F0B8
:10BFA8000A0121439A6119620268936823F07003B9
:10BFB80043F057039360CAE703684C68CE68196A70
:10BFC8001D6A25F001051D629A6922F0F00242EA15
:10BFD800061221F00A0121439A61196202689368E6
:10BFE80023F0700343F047039360B0E70268936857
:10BFF80023F0700343F017039360A8E7026893687F
:10C0080023F0700343F027039360A0E702207047F2
:10C018000368354A904233D0B0F1804F30D0A2F552
:10C028007C4290422CD002F58062904228D002F5E2
:10C038008062904224D002F57842904220D02B4A68
:10C04800904233D002F5806290422FD002F5806290
:10C0580090422BD0A2F59832904227D002F5806208
:10C06800904223D002F5806290421FD023F08003D3
:10C078004A69134303608B68C3620B68836225E0D7
:10C0880023F070034A681343174A90420ED0B0F168
:10C09800804F0BD0A2F57C42904207D002F5806217
:10C0A800904203D002F58062904217D123F4407386
:10C0B800CA68134323F080034A69134303608B68FB
:10C0C800C3620B688362084B984202D0084B9842BF
:10C0D80001D10B69036301234361704702F578427C
:10C0E8009042E3D0ABE700BF0000014000400140B0
:10C0F80000040140A8B110B5044690F83D305BB18A
:10C10800022384F83D30211D2068FFF781FF0123B9
:10C1180084F83D30002010BD80F83C30FDF730FC3D
:10C12800EEE701207047A8B110B5044690F83D30FD
:10C138005BB1022384F83D30211D2068FFF768FFBA
:10C14800012384F83D30002010BD80F83C30FDF715
:10C15800EDFBEEE70120704770B4036A23F010038B
:10C168000362036A4468826922F4E6420D6842EA7F
:10C17800052223F020038D6843EA05130D4DA842DC
:10C1880003D005F58065A8420DD123F08003CD6862
:10C1980043EA051323F0400324F440644D698E6993
:10C1A800354344EA8504446082614A6882630362D5
:10C1B80070BC70470000014038B590F83C30012B46
:10C1C80066D00D460446012380F83C30022380F8EF
:10C1D8003D300C2A1AD8DFE802F00719191920197E
:10C1E80019193419191947000068FFF7BBFD2268AF
:10C1F800936943F0080393612268936923F0040369
:10C2080093612268936929690B439361012384F838
:10C218003D30002084F83C0038BD0068FFF79CFFE3
:10C228002268936943F4006393612268936923F455
:10C238008063936122689369296943EA01239361C2
:10C24800E4E70068FFF7BAFD2268D36943F0080302
:10C25800D3612268D36923F00403D3612268D369C8
:10C2680029690B43D361D1E70068FFF7D7FD22683E
:10C27800D36943F40063D3612268D36923F48063EC
:10C28800D3612268D369296943EA0123D361BDE7F1
:10C29800022038BD10B4036A01248C4023EA040349
:10C2A8000362036A8A401A43026210BC70470000A6
:10C2B80010B504460C290DD8DFE801F0070C0C0C6A
:10C2C800230C0C0C290C0C0C2F000268D36843F0CB
:10C2D8000203D36001222068FFF7DCFF2368124ABB
:10C2E800934203D002F58062934203D15A6C42F420
:10C2F80000425A642268136843F001031360002067
:10C3080010BD0268D36843F00403D360E2E7026813
:10C31800D36843F00803D360DCE70268D36843F0CE
:10C328001003D360D6E700BF0000014090F83C300E
:10C33800012B22D030B4012280F83C20022380F85F
:10C348003D300468636823F07003636004686368C1
:10C358000D682B4363600468A36823F08003A3601F
:10C368000468A36849680B43A36080F83D20002354
:10C3780080F83C30184630BC70470220704790F86F
:10C388003C30012B22D0012380F83C30CB6823F4C9
:10C3980040738A68134323F480634A68134323F481
:10C3A80000630A68134323F480530A69134323F490
:10C3B80000534A6913438A6923F4404313430268CC
:10C3C8005364002380F83C301846704702207047B9
:10C3D8002DE9F04704460268136923F44053C16805
:10C3E8000B4313610168CA6822F4164222F00C025A
:10C3F80083680069034360690343E06903431343A7
:10C40800CB602268536923F44073A1690B435361DD
:10C41800E369B3F5004F5FD02568B64B9D4200F045
:10C42800128103F580639D4200F00D81FFF71EFB2A
:10C4380000EB800000EB800063689B00B0FBF3F327
:10C44800DFF8B482A8FB03235B091E01FFF70EFB8C
:10C4580000EB800000EB800063689B00B0FBF3F703
:10C46800FFF704FB00EB800000EB800063689B0093
:10C47800B0FBF3F3A8FB03235B094FF0640A0AFB44
:10C4880013731B013233A8FB03235B0903F0F00786
:10C49800FFF7ECFA00EB800000EB800063689B007C
:10C4A800B0FBF3F9FFF7E2FA00EB800000EB800045
:10C4B80063689B00B0FBF3F3A8FB03235B090AFB4B
:10C4C80013931B013233A8FB0323C3F343133B43EA
:10C4D8003344AB60BDE8F087256803F1804303F57A
:10C4E80010439D4259D003F580639D4255D0FFF714
:10C4F800BDFA00EB800000EB800063685B00B0FBD6
:10C50800F3F3DFF8F481A8FB03235B091F01FFF7AE
:10C51800ADFA00EB800000EB800063685B00B0FBC5
:10C52800F3F6FFF7A3FA00EB800000EB80006368E6
:10C538005B00B0FBF3F3A8FB03235B094FF0640A2D
:10C548000AFB1363DB003233A8FB03231B0903F444
:10C55800F876FFF78BFA00EB800000EB8000636849
:10C568005B00B0FBF3F9FFF781FA00EB800000EB0A
:10C57800800063685B00B0FBF3F3A8FB03235B094F
:10C588000AFB1393DB003233A8FB0323C3F34213E4
:10C598003B443344AB60BDE8F087FFF77FFA00EB1C
:10C5A800800000EB800063685B00B0FBF3F3DFF80A
:10C5B8004881A8FB03235B091F01FFF76FFA00EB13
:10C5C800800000EB800063685B00B0FBF3F6FFF7C8
:10C5D80065FA00EB800000EB800063685B00B0FB4D
:10C5E800F3F3A8FB03235B094FF0640A0AFB136308
:10C5F800DB003233A8FB03231B0903F4F876FFF7AB
:10C608004DFA00EB800000EB800063685B00B0FB34
:10C61800F3F9FFF743FA00EB800000EB8000636852
:10C628005B00B0FBF3F3A8FB03235B090AFB13933E
:10C63800DB003233A8FB0323C3F342133B443344E8
:10C64800AB60BDE8F087FFF729FA00EB800000EB4C
:10C65800800063689B00B0FBF3F3DFF89C80A8FBC5
:10C6680003235B091E01FFF719FA00EB800000EBBA
:10C67800800063689B00B0FBF3F7FFF70FFA00EB4D
:10C68800800000EB800063689B00B0FBF3F3A8FB1D
:10C6980003235B094FF0640A0AFB13731B0132334F
:10C6A800A8FB03235B0903F0F007FFF7F7F900EB9A
:10C6B800800000EB800063689B00B0FBF3F9FFF794
:10C6C800EDF900EB800000EB800063689B00B0FB95
:10C6D800F3F3A8FB03235B090AFB13931B01323313
:10C6E800A8FB0323C3F343133B433344AB60BDE8C8
:10C6F800F08700BF001001401F85EB5158B310B5FB
:10C70800044690F839300BB3242384F83930226872
:10C71800D36823F40053D3602046FFF759FE2268FC
:10C72800136923F4904313612268536923F02A03A1
:10C7380053612268D36843F40053D3600020E06358
:10C74800202384F8393084F83A3010BD80F8383026
:10C75800FDF748FAD8E70120704778B110B50446CC
:10C76800242380F83930FDF7B3FA0020E06384F819
:10C77800390084F83A0084F8380010BD0120704769
:10C7880084B010B5044603A880E80E00089B012B6E
:10C7980011D0E36843F04003E360204600F07EFCDC
:10C7A8004FF48033A363069B012B1ED00020BDE805
:10C7B800104004B07047A36B23F48033A363E3688D
:10C7C80023F4840323F04003E360E36823F4401375
:10C7D800E3600D9B012B03D0204600F05FFCE2E7ED
:10C7E800E36843F48013E360F6E7A36843F00603C5
:10C7F800A360A36843F02003A360D7E7836843F0EE
:10C808000103836000207047836823F0010383607D
:10C818000020704708B5C36823F0C043C3600129EE
:10C8280009D019B9C36843F08043C3603220FDF7CB
:10C8380051FD002008BDC36843F00053C360F5E70D
:10C8480084B02DE9F84F04460BA880E80E0088460E
:10C85800DDF838A0DDF84CB0A36B43F40023A363E4
:10C86800BBF1000F03D1A36B43F40013A3630023B0
:10C87800C4F8003E04F50065D4F80038C4F8003860
:10C88800109B012B62D00321204600F0A7F810214D
:10C89800204600F081F8204600F090F800232B6134
:10C8A8006B614FF0FF32AA61EB61B8F1000F28D03D
:10C8B80004F51063002216464FF09049FF271868C8
:10C8C8000028B4BFC3F800901E601E619F6001324B
:10C8D80020334245F3D1A2B104F5306300210F465D
:10C8E8004FF090494FF0FF081E68002EB4BFC3F800
:10C8F80000901F601F61C3F80880013120338A420D
:10C90800F2D12B6923F480732B61BAF1010F29D07E
:10C918000023A3616FF080436361BAF1000F03D174
:10C92800A36943F01003A361A269194B1343A361E0
:10C93800119B1BB1A36943F00803A361BBF1010F6D
:10C948001FD00020BDE8F84F04B070470D9B23B9F5
:10C958000021204600F042F899E70121204600F026
:10C968003DF894E70B4B2B632B6B43F4803343F078
:10C9780003032B632B6B0023A3616FF08043636178
:10C98800D2E7A36943F0804343F00403A361D8E7E7
:10C9980000383C8000018000890141F020010161DC
:10C9A800054B026912F0200F03D0013BF9D1032097
:10C9B80070470020704700BF400D0300102303613B
:10C9C800054B026912F0100F03D0013BF9D1032087
:10C9D80070470020704700BF400D0300D0F80038B2
:10C9E8001943C0F8001800207047D0F8083800F53F
:10C9F800006013F0060F11D0836803F00603022BC2
:10CA08000ED0836803F00603062B0BD0836803F06F
:10CA18000603042B14BF0020022070470020704733
:10CA2800032070470320704730B44B78012B20D087
:10CA3800D0F81C480D784FF48033AB402343C0F83E
:10CA48001C380A78520100F53060135813F4004F6F
:10CA58000CD114588B68C3F30A0343F0805343F492
:10CA68000043C97843EA814323431350002030BC74
:10CA78007047D0F81C480D78AB409BB22343C0F8F0
:10CA88001C380C78620100F51060135813F4004F3D
:10CA9800ECD115588B68C3F30A0343F0805343F471
:10CAA8000043C97843EA814343EA84532B43135034
:10CAB800DCE730B44B78012B1CD0D0F83C480D781B
:10CAC800012202FA05F524EA0544C0F83C48D0F8EA
:10CAD8001C480D78AA4024EA0242C0F81C280B78AA
:10CAE8005B0100F530601A5822F400421A50002009
:10CAF80030BC7047D0F83C580A7803FA02F292B278
:10CB080025EA0202C0F83C28D0F81C280D78AB4072
:10CB18009BB222EA0303C0F81C380B785B0100F5CE
:10CB280010601A5822F400421A50E0E7F0B583B0BA
:10CB38004B78012B35D000F530630D7803EB4515A4
:10CB48002C69E40CE4042C610D7803EB45152C6981
:10CB580024F0FF5424F4C0142C614C69002C40F0DC
:10CB6800B8800D7803EB45152E698C68C4F3120460
:10CB780034432C610C7803EB4414256945F40025F3
:10CB88002561012A00F0C080CA78012A00F0C2801D
:10CB98000A785201D15841F00441D150002003B025
:10CBA800F0BD4B694BBB00F510630D7803EB4515E1
:10CBB8002C6924F0FF5424F4C0142C610C7803EB86
:10CBC8004414256945F4002525610C7803EB4413CA
:10CBD8001C69E40CE4041C61012A3DD0CB78012BCC
:10CBE80066D04B69002B41D0D0F834580E78012319
:10CBF800B3402B43C0F8343835E000F510640D78A5
:10CC080004EB45152B69DB0CDB042B610D7804EB79
:10CC180045152B6923F0FF5323F4C0132B610E78BD
:10CC280004EB461637698D684B692B44013BB3FB0F
:10CC3800F5F3404D05EAC3433B4333610D7804EBFC
:10CC480045152E694B69C3F3120333432B61CB7827
:10CC5800012B1ED0012AC4D10C7800F5106303EB18
:10CC680044130C695C61CB78012B21D00B785B01F4
:10CC780000F510655C5944F004445C51CB78012BF5
:10CC88008CD114468B8A0A78C968009400F0EEF8B3
:10CC980084E70B7804EB43131D6925F0C0451D613B
:10CCA8000B7804EB4314236943F00053236193E7A3
:10CCB800D0F8083813F4807F0B784FEA431300F557
:10CCC80010655C590CBF44F0005444F080545C512A
:10CCD800CCE78D682C44013CB4FBF5F40E7803EBEB
:10CCE80046163769134D05EAC4453D4335610E784C
:10CCF80003EB46163769A4B28D6805FB04F4C4F348
:10CD080012043C4334613CE70A7803EB4212CC68D6
:10CD1800546139E7D0F8082812F4807F0A784FEA7E
:10CD28004212D0580CBF40F0005040F08050D05014
:10CD38002EE700BF0000F81F30B44B78012B30D02D
:10CD480000F530600C7800EB44142369DB0CDB043D
:10CD580023610C7800EB4414236923F0FF5323F478
:10CD6800C01323614B690BB18B684B610B7800EBE7
:10CD780043131C6944F400241C610C7800EB441430
:10CD880025698B68C3F312032B432361012A67D0FB
:10CD98000B785B011A5842F004421A50002030BC4C
:10CDA80070474B6973BB00F510630D7803EB4515AD
:10CDB8002C6924F0FF5424F4C0142C610C7803EB84
:10CDC8004414256945F4002525610C7803EB4413C8
:10CDD8001C69E40CE4041C6100F510650B785B0128
:10CDE8005C5944F004445C51012A33D04B69002B50
:10CDF800D4D0D0F83428097801238B401343C0F8E5
:10CE08003438CBE700F510630D7803EB45152C6932
:10CE1800E40CE4042C610D7803EB45152C6924F02F
:10CE2800FF5424F4C0142C618C684D69A54288BF56
:10CE38004C610C7803EB4414256945F40025256101
:10CE48000C7803EB44131D694C69C4F312042C439A
:10CE58001C61C1E70B7805EB43150B696B619DE716
:10CE68000B7800EB4313CA685A6191E710B49DF838
:10CE780004406CB9DC1CA4080AD000F5805000EB13
:10CE88000232002351F8040B106001339C42F9D19F
:10CE9800002010BC7047033292080FD070B40C46C3
:10CEA800002300F58056356844F8045B01339A4244
:10CEB800F9D101EB8301084670BC704708467047FA
:10CEC8004B78012B12D000F530600B785B011A58B3
:10CED800002A03DB1A5822F080421A500B785B01B3
:10CEE8001A5842F400121A500020704700F51060DA
:10CEF8000B785B011A58002A03DB1A5822F080428B
:10CF08001A500B785B011A5842F400121A50EBE7DA
:10CF18004B78012B0ED000F530600B785B011A5866
:10CF280022F400121A50CB78023BDBB2012B15D940
:10CF38000020704700F510600B785B011A5822F446
:10CF480000121A50CB78023BDBB2012BF0D80B78D9
:10CF58005B011A5842F080521A50E9E70B785B01DE
:10CF68001A5842F080521A50E2E7D0F8003823F4F9
:10CF7800FE63C0F80038D0F80038090101F4FE61FA
:10CF88001943C0F800180020704708B5D0F80438D5
:10CF980023F00203C0F804380320FDF79BF90020B2
:10CFA80008BD08B5D0F8043843F00203C0F80438C7
:10CFB8000320FDF78FF9002008BD42698069104001
:10CFC8007047D0F8183800F50060C0691840000CA8
:10CFD8007047D0F8183800F50060C069184080B272
:10CFE800704700F5306303EB41118A6800F5006073
:10CFF80040691040704710B4D0F81048D0F8343861
:10D0080000EB411000F510608068CB40DB01DBB21B
:10D018002343184010BC7047406900F00100704776
:10D02800D0F8003923F4FF6323F00703C0F8003970
:10D0380000F500639A6802F00602042A05D05A68CF
:10D0480042F480725A6000207047D0F8002942F0FC
:10D058000302C0F80029F2E710B40024C0F8104B0E
:10D06800D0F8104B44F40024C0F8104BD0F8104B03
:10D0780044F01804C0F8104BD0F8104B44F0C044EA
:10D08800C0F8104B012902D0002010BC7047C0F82E
:10D09800142B4FF08023C0F8003BF5E70B4B0269D7
:10D0A800002A03DB013BFAD103207047036943F0F0
:10D0B80001030361054B026912F0010F03D0013B24
:10D0C800F9D1032070470020704700BF400D0300CE
:10D0D800D0F818321BB10020C3F8140270470220A0
:10D0E800704710B5D0F81842D0F81C325BB194F8EC
:10D0F8000002FF2807D09B6894F801222146984730
:10D10800FF2384F80032002010BD00004323038071
:10D1180000487047A400002043230380004870475C
:10D12800E8000020432303800048704738010020AE
:10D138000A230380004870472C01002038B50446B4
:10D14800D0F81852FCF7A1FFC5F80C02D4F8183231
:10D158004BB1D4F81C32DB6805F50371D5F804022D
:10D168009847002038BD022038BD000070B505463C
:10D178000C460B7813F0600226D0202A27D1CA88E3
:10D18800DAB1D0F8186213F0800F0AD14B7886F81C
:10D198000032CB8886F80132CA88314600F064FC38
:10D1A80015E0D0F81C329B68314660789847E288D1
:10D1B8003146284600F043FC09E0D0F81C329B6851
:10D1C80000224878984702E04B780A2B01D00020CB
:10D1D80070BD0122014900F032FCF8E78008002008
:10D1E80010B504468121FCF771FF01212046FCF7A8
:10D1F8006DFF82212046FCF769FFD4F8183253B13D
:10D20800D4F81C325B689847D4F818020EF014FD65
:10D218000023C4F81832002010BD38B50446037C3A
:10D2280073BB4FF4007302228121FCF744FF4FF4D3
:10D238000073022201212046FCF73DFF0823032248
:10D2480082212046FCF737FF4FF407700EF0ECFC04
:10D258000546C4F8180248B3D4F81C321B6898472E
:10D268000023C5F81432C5F81832237CA3B1402333
:10D27800D5F8042201212046FCF750FF002038BDD4
:10D28800402302228121FCF716FF402302220121BC
:10D298002046FCF710FFD1E74FF40073D5F80422BD
:10D2A80001212046FCF73AFF002038BD012038BD97
:10D2B80019B1C0F81C120020704702207047D0F83E
:10D2C8001832C3F80812C3F8102200207047D0F8AB
:10D2D8001832C3F8041200207047D0F818229AB107
:10D2E80008B5037C3BB14023D2F804220121FCF7A6
:10D2F80015FF002008BD4FF40073D2F80422012165
:10D30800FCF70CFF002008BD0220704798B108B553
:10D318000346D0F8140210B10020C3F8140209B172
:10D32800C3F810121846012380F8FC310270FCF78C
:10D3380063FE002008BD0220704719B1C0F814121E
:10D34800002070470220704708B5FCF7ACFE0020AB
:10D3580008BD08B5D0F8143233B11B6898470028C7
:10D3680014BF0220002008BD022008BD08B5D0F86F
:10D3780014325B689847002008BD38B5044600F5AC
:10D388000275284600F004F90123C4F8F431B4F812
:10D398000E32C4F8F83194F8081201F01F03012B7B
:10D3A8000ED03BB1022B10D001F080012046FCF7D3
:10D3B80095FE03E02946204600F008F9002038BD14
:10D3C8002946204600F07AFAF8E72946204600F078
:10D3D80091FAF3E710B5044619BB1346D0F8F421C7
:10D3E800032A27D1D0F80C11D0F8102191420BD87C
:10D3F800D0F814321B691BB190F8FC21032A0ED017
:10D40800204600F048FB15E0891AC0F80C118A4242
:10D4180028BF0A4692B2194600F035FB0AE0984741
:10D42800EEE70A46D0F814329B691BB190F8FC115C
:10D43800032901D0002010BD11469847FAE710B51E
:10D448000446002947D11346D0F8F421022A05D012
:10D4580094F80032012B3AD0002010BDC169026A4D
:10D46800914217D88169B1FBF2F302FB13132BB970
:10D478008A4203D8D0F8F831994218D3D4F8143234
:10D48800DB681BB194F8FC21032A1DD0204600F06C
:10D498000DFBDDE78A1AC26192B2194600F0DCFA88
:10D4A80000231A4619462046FCF738FED0E700222A
:10D4B800114600F0D1FA0021C4F8F8110B460A46CB
:10D4C8002046FCF72BFEC3E720469847DEE70023FB
:10D4D80084F80032C0E70A46D0F814325B69002BA2
:10D4E800BAD090F8FC110329B6D111469847B3E792
:10D4F80038B50446402300221146FCF7DCFD4025E0
:10D50800C4F810512B46002280212046FCF7D3FD99
:10D518002562012384F8FC31D4F818322BB1D4F8F1
:10D5280014325B68217920469847002038BD017481
:10D538000020704790F8FC3180F8FD31042380F812
:10D54800FC310020704790F8FD3180F8FC31002054
:10D55800704708B590F8FC31032B01D0002008BDB6
:10D56800D0F81432DB69002BF8D09847F6E7002092
:10D578007047002070470020704708B5012280F8E6
:10D58800FC21D0F81422526801799047002008BD88
:10D598000B7803704B784370CA788B7803EB0223BF
:10D5A80043804A790B7903EB02238380CA798B790C
:10D5B80003EB0223C380704710B504468021FCF7B3
:10D5C8008DFD00212046FCF789FD10BD70B582B0A5
:10D5D80005460C464B78092B00F26881DFE813F00A
:10D5E8002D015001660143016601A0000A00660191
:10D5F8001101C4004A88130A013B062B00F28C80F3
:10D60800DFE803F0041E328A8A6E7B00D0F81032FD
:10D618001B680DF10601007C9847BDF80620002A1A
:10D6280000F04681E388002B00F042819A4228BF2F
:10D638001A46ADF806200146284600F000FA37E100
:10D64800037C43B9D0F814329B6A0DF10600984761
:10D6580002234370E1E7D0F81432DB6A0DF10600CB
:10D66800984702234370D8E7D2B2052A34D8DFE8B6
:10D6780002F0030B131B232BD0F810325B680DF15B
:10D688000601007C9847C8E7D0F810329B680DF176
:10D698000601007C9847C0E7D0F81032DB680DF12E
:10D6A8000601007C9847B8E7D0F810321B690DF1E5
:10D6B8000601007C9847B0E7D0F810325B690DF19D
:10D6C8000601007C9847A8E7D0F810329B690DF155
:10D6D8000601007C9847A0E72146FFF76DFFE7E0C9
:10D6E800037C33B9D0F814325B6B0DF10600984710
:10D6F80093E72146FFF760FFDAE0037C43B9D0F8EF
:10D7080014321B6B0DF1060098470723437084E71A
:10D718002146FFF751FFCBE02146FFF74DFFC7E059
:10D728008B88E3B9CB88D3B98E7806F07F0690F85A
:10D73800FC31032B0CD080F8FE613146FCF7DEFC8F
:10D74800284600F0A8F936B1022385F8FC31AFE08D
:10D75800FFF732FFACE0012385F8FC31A8E0214651
:10D768002846FFF729FFA3E08978534B1970012950
:10D7780009D890F8FC31022B09D0032B1CD0214684
:10D78800FFF71AFF94E02146FFF716FF90E081B1FA
:10D798004160032380F8FC31FFF7DBFD022803D04A
:10D7A800284600F078F983E021462846FFF704FF71
:10D7B8007EE000F070F97BE089B1436899421DD0A2
:10D7C800D9B2FFF7D3FD3C4B197869602846FFF7BB
:10D7D800C0FD02280DD0284600F05DF968E002235C
:10D7E80080F8FC314160FFF7C1FD284600F053F98D
:10D7F8005EE021462846FFF7DFFE59E000F04BF9CE
:10D8080056E0CB88012B08D190F8FC31022B07D0C9
:10D81800032B0DD0FFF7D0FE4AE0FFF7CDFE47E01F
:10D828000146002341F8083F012200F008F93FE0D3
:10D838000122011D00F003F93AE090F8FC31023BA7
:10D84800012B0DD80123C360D0F804320BB1032398
:10D85800C360022205F10C01284600F0F0F827E029
:10D86800FFF7AAFE24E04B88012B21D1C0F804322F
:10D87800D0F814329B689847284600F00CF917E056
:10D8880090F8FC31023B012B0DD84B88012B0FD1AE
:10D898000023C0F80432D0F814329B689847284611
:10D8A80000F0F9F804E0FFF787FE01E0FFF784FED7
:10D8B800002002B070BD00BF8108002038B50446C2
:10D8C8000D4690F8FC31032B11D10B79012B03D9AC
:10D8D800FFF772FE002038BDD0F814329B689847D5
:10D8E800EB88002BF6D1204600F0D5F8F2E7FFF7D9
:10D8F80063FEEFE738B505460C468A880B7803F0D7
:10D908006003202B11D0D1B26378012B2AD0002BD1
:10D918004BD0032B0DD190F8FC31022B0BD0032BED
:10D928000FD02146FFF748FE03E0D0F814329B6879
:10D938009847002038BD11F07F0FFAD0FCF7CEFBD6
:10D94800F7E7638823B911F07F0F01D0FCF7C6FB16
:10D95800D5F814329B68214628469847284600F097
:10D968009AF8E6E790F8FC31022B05D0032B09D092
:10D978002146FFF721FEDCE711F07F0FD9D0FCF735
:10D98800ADFBD6E76388002BD3D111F07F0F03D10D
:10D99800284600F080F8CCE7FCF7A8FBD5F814324D
:10D9A8009B68214628469847F2E790F8FC31022BFD
:10D9B80005D0032B09D02146FFF7FEFDB9E711F08A
:10D9C8007F0FB6D0FCF78AFBB3E712F0800F01F0A7
:10D9D8007F0400EB041414BF143404F58274FCF7BC
:10D9E8003DFB38B10123236002222146284600F07E
:10D9F80026F89EE700232360F6E7F8B130B4044622
:10DA0800037833B100230133DBB210F8015F002D36
:10DA1800F9D15B00023313800B7003234B7020781D
:10DA280058B1022300255A1CD2B2C8540233DBB2C3
:10DA38008D5414F8010F0028F5D130BC704710B58B
:10DA480013460222C0F8F4218361C3610A4600210B
:10DA5800FCF75CFB002010BD08B513460A46002100
:10DA6800FCF754FB002008BD10B513460322C0F88C
:10DA7800F421C0F80831C0F80C310A460021FCF73F
:10DA88004DFB002010BD08B513460A460021FCF7DF
:10DA980045FB002008BD08B50423C0F8F431002375
:10DAA8001A461946FCF732FB002008BD08B50523C5
:10DAB800C0F8F43100231A461946FCF72FFB002062
:10DAC80008BD000010B508F029FE08F0AFFC00F012
